:100000000C9400010C9428010C9428010C942801F4
:100010000C9428010C9428010C9428010C942801BC
:100020000C9428010C9428010C9428010C942801AC
:100030000C9428010C9428010C9428010C9428019C
:100040000C94C40A0C9428010C94920A0C946C0A27
:100050000C9428010C9428010C9428010C9428017C
:100060000C940E0B0C94280100407A10F35A00A057
:10007000724E18090010A5D4E80000E87648170071
:1000800000E40B54020000CA9A3B000000E1F505B1
:10009000000080969800000040420F000000A086FB
:1000A00001000000102700000000E803000000002D
:1000B0006400000000000A000000000001000000D1
:1000C00000002C76D888DC674F0823DFC1DFAE59EB
:1000D000E1B1B796E5E3E453C63AE651997696E87E
:1000E000E6C28426EB898C9B62ED407C6FFCEFBC02
:1000F0009C9F40F2BAA56FA5F490055A2AF75C932D
:100100006B6CF9676DC11BFCE0E40D47FEF520E662
:10011000B500D0ED902E0300943577050080841E45
:10012000080000204E0A000000C80C333333330FA0
:10013000986E12831141EF8D2114893BE65516CF3D
:10014000FEE6DB18D1844B381BF77C1D901DA4BB49
:10015000E424203284725E228100C9F124ECA1E5FE
:100160003D2741A042A1E045A3A4A5A64BA74D4829
:100170004FA8504354A9AA58E1ABACE2ADAE62AF70
:10018000B0B161B2B3B4E365B6B7B8B9BABBBCBD80
:100190006FBE7063BF79E478E5C0C1E6C2C3C4C571
:1001A000C6C7000000002300260029000000000050
:1001B000240027002A0000000000250028002B0052
:1001C00004040404040404040202020202020303FD
:1001D0000303030301020408102040800102040805
:1001E0001020010204081020000000080002010095
:1001F0000003040700000000000000002D0C9C1B01
:1002000011241FBECFEFD8E0DEBFCDBF26E0AEE8A1
:10021000B4E001C01D92AF34B207E1F714E0A0E0F2
:10022000B1E0EEE4F3E402C005900D92AE38B10700
:10023000D9F710E0CFEFD0E004C02197FE010E9473
:10024000A21FCE3FD107C9F70E94D90C0C949A2166
:100250000C9400002091600581E0213208F044C038
:1002600080913C058111FCCF80915F0592E09093D5
:100270003C0591E090933B059FEF90933A051092D7
:10028000390520933805AFE3B5E0E8E1F5E090E00B
:10029000291331C01092170590911705880F892BEB
:1002A0008093170580911605813049F51092160547
:1002B000809117058093BB008091BC0083FDF8CF2F
:1002C00085EC8093BC0080913C058230E1F3809105
:1002D0003A058F3FB1F080913A058032A1F08091CC
:1002E0003A05803391F084E010923E05109260054B
:1002F00010923D0508953D9131939F5FC9CF85EEE2
:10030000E0CF80E0F1CF82E0EFCF83E0EDCF91E06E
:1003100090933D0580935F0510923E051092600515
:10032000089590911505809114052FEF3FEF9817D0
:1003300048F4E92FF0E0EC50FB4F208130E09F5F64
:1003400090931505C90108959091150580911405A4
:100350002FEF3FEF981748F4E92FF0E0EC50FB4FF8
:10036000208130E09F5F90931505C901089508959D
:10037000AF92BF92CF92DF92EF92FF920F931F93B3
:10038000CF93DF936C017B018B01040F151FEB01F1
:100390005E01AE18BF08C017D10759F06991D601A8
:1003A000ED91FC910190F081E02DC6010995892B1A
:1003B00079F7C501DF91CF911F910F91FF90EF90D9
:1003C000DF90CF90BF90AF900895809114059091E9
:1003D0001505891B990B089508950895FC01538D07
:1003E000448D252F30E0842F90E0821B930B54170F
:1003F00010F0CF96089501970895FC01918D828D9C
:10040000981761F0A28DAE0FBF2FB11D5D968C9134
:10041000928D9F5F9F73928F90E008958FEF9FEF73
:100420000895FC01918D828D981731F0828DE80F2F
:10043000F11D858D90E008958FEF9FEF0895FC01E9
:10044000918D228D892F90E0805C9F4F821B9109B6
:100450008F739927089581E695E00E941F0221E09D
:10046000892B09F420E0822F089580E090E0892B09
:1004700029F00E942B0281110C9400000895FC01C8
:10048000A48DA80FB92FB11DA35ABF4F2C91848DF5
:1004900090E001968F739927848FA689B7892C9352
:1004A000A089B1898C91837080648C93938D848DA5
:1004B000981306C00288F389E02D80818F7D8083A8
:1004C0000895EF92FF920F931F93CF93DF93EC0168
:1004D00081E0888F9B8D8C8D98131AC0E889F989EB
:1004E000808185FF15C09FB7F894EE89FF896083EE
:1004F000E889F98980818370806480839FBF81E06F
:1005000090E0DF91CF911F910F91FF90EF900895B0
:10051000F62E0B8D10E00F5F1F4F0F731127E02E8B
:100520008C8D8E110CC00FB607FCFACFE889F989C3
:10053000808185FFF5CFCE010E943F02F1CFEB8D88
:10054000EC0FFD2FF11DE35AFF4FF0829FB7F89497
:100550000B8FEA89FB8980818062CFCFCF93DF93B5
:10056000EC01888D8823B9F0AA89BB89E889F989CB
:100570008C9185FD03C0808186FD0DC00FB607FC00
:10058000F7CF8C9185FFF2CF808185FFEDCFCE0133
:100590000E943F02E9CFDF91CF910895833081F02F
:1005A00028F4813099F08230A9F008958730A9F0BD
:1005B0008830C9F08430B1F4809180008F7D03C011
:1005C000809180008F7780938000089584B58F7725
:1005D00084BD089584B58F7DFBCF8091B0008F7767
:1005E0008093B00008958091B0008F7DF9CF1F9364
:1005F000CF93DF93282F30E0F901E851FE4F84912B
:10060000F901EC52FE4FD491F901E054FE4FC49130
:10061000CC23A9F0162F81110E94CE02EC2FF0E01E
:10062000EE0FFF1FEA54FE4FA591B4918FB7F894D7
:10063000EC91111108C0D095DE23DC938FBFDF91C0
:10064000CF911F910895DE2BF8CFCF93DF9390E0E9
:10065000FC01EC52FE4F249180549E4FFC0184918A
:100660008823D1F090E0880F991FFC01E455FE4FDC
:10067000A591B491FC01EA54FE4FC591D49161114A
:100680000EC09FB7F8948C91E22FE0958E238C9347
:100690002881E223E8839FBFDF91CF9108958FB730
:1006A000F894EC91E22BEC938FBFF6CF3FB7F89420
:1006B0008091D6049091D704A091D804B091D90428
:1006C00026B5A89B05C02F3F19F00196A11DB11DAD
:1006D0003FBFBA2FA92F982F8827BC01CD01620FE9
:1006E000711D811D911D42E0660F771F881F991FA4
:1006F0004A95D1F708958F929F92AF92BF92CF9271
:10070000DF92EF92FF924B015C010E9456036B0156
:100710007C010E9456036C197D098E099F09683E71
:10072000734081059105A8F321E0821A9108A10880
:10073000B10888EEC80E83E0D81EE11CF11C8114BC
:100740009104A104B10429F7FF90EF90DF90CF90BE
:10075000BF90AF909F908F900895CF93DF9380E4E8
:1007600080937C0080917A00806480937A008091ED
:100770007A0086FDFCCF80917800C0917900DC2F53
:10078000C82F6FE070E080E090E00E947B0381E082
:10079000C837D105C4F0CE01835891098F34910533
:1007A000A8F0865991098336910590F08C589109EB
:1007B0008F39910578F088519140833B910560F025
:1007C000C538D3405CF4DF91CF91089582E0FBCF30
:1007D00083E0F9CF84E0F7CF85E0F5CF80E0F3CF79
:1007E0002FB7F8946091D2047091D3048091D4040F
:1007F0009091D5042FBF089585ED8093BC00809122
:10080000BC0084FDFCCF10923C0508952091AE04FD
:10081000260F3327331F21323105ECF420913C059C
:10082000FC0190E080E0243069F082E00895A0911E
:10083000AE042191AC0142575B4FA40FB52FB11DFF
:100840002C930196861798F38091AE04680F6093FD
:10085000AE0480E0089581E008950895E0911505C3
:1008600080911405E81730F4F0E0EC50FB4F8081E4
:1008700090E008958FEF9FEF0895CF92DF92EF926F
:10088000FF920F931F93CF93DF937C01CB018A01DB
:1008900020913D05222389F0EB016B01C40ED51E8A
:1008A000CC15DD0569F06991D701ED91FC910190BE
:1008B000F081E02DC7010995F3CF642F0E94060453
:1008C000C801DF91CF911F910F91FF90EF90DF90C2
:1008D000CF900895CF93DF931F92CDB7DEB7698392
:1008E00020913D052223F9F020916005203258F037
:1008F00021E030E0FC013383228390E080E00F9020
:10090000DF91CF91089580913E05E82FF0E0E15C02
:10091000FA4F998190838F5F80933E0580936005A5
:1009200081E090E0ECCF61E0CE0101960E940604E8
:10093000F7CF682F8EEF95E00C946A04CF93C82F01
:1009400088E60E94870184E090E00E9499048C2F41
:100950006AE00E94741F8295807F682F690F8EEF76
:1009600095E00E946A04CF910C942A0190E080E007
:10097000089590913C059111FCCF282F91E0909320
:100980003C0590933B053FEF30933A0510923905B3
:10099000380F309338059093170590911705906D97
:1009A0009093170590911605913019F51092160540
:1009B000909117059093BB009091BC0093FDF8CFE8
:1009C00095EC9093BC0090913C059130E1F39091AF
:1009D0003905981710F420913905A8E1B5E0E4EF46
:1009E000F4E080E0821307C010921505809314058F
:1009F000089595EEE6CF9D9191938F5FF3CF88E6B2
:100A00000E94870183E090E00E9499040E942A01DD
:100A100081E090E00E94B9040E94A401982F929571
:100A20009F708F702AE0929F800D1124089588E6B0
:100A30000E94870184E090E00E9499040E942A01AC
:100A400081E090E00E94B9040E94A401982F929541
:100A50009F708F702AE0929F800D1124089588E680
:100A60000E94870185E090E00E9499040E942A017B
:100A700081E090E00E94B9040E94A401982F991F80
:100A80009927991F9093F304982F929597708F70E0
:100A90002AE0929F800D1124089588E60E94870124
:100AA00086E090E00E9499040E942A0181E090E093
:100AB0000E94B9040E94A401982F92959F708F7094
:100AC0002AE0929F800D1124089588E60E948701F4
:100AD00081E090E00E9499040E942A0181E090E068
:100AE0000E94B9040E94A401982F92959F708F7064
:100AF0002AE0929F800D1124089588E60E948701C4
:100B000090E080E00E9499040E942A0181E090E038
:100B10000E94B9040E94A401982F92959F708F7033
:100B20002AE0929F800D1124089588E60E94870193
:100B300082E090E00E9499040E942A0181E090E006
:100B40000E94B9040E94A40121E0AC014074552721
:100B500086FF20E02093F204282F22952F70382F53
:100B60003F70452B61F085FB992790F99093F10434
:100B70002170832F9AE0299F800D112408952370FE
:100B8000F8CF88E60E9487018FE090E00E949904E8
:100B90000E942A0181E090E00E94B9040E94A40111
:100BA0000895CF93DF93C82F0E94C105D82FC1307D
:100BB000C1F4D170C82FCE7F88E60E9487018FE0F4
:100BC00090E00E9499046C2F8EEF95E00E946A04D9
:100BD0000E942A0181E0D11101C080E0DF91CF9114
:100BE0000895D270C82FCD7FE7CF7F928F929F92CA
:100BF000AF92BF92CF92DF92EF92FF920F931F932B
:100C0000CF93DF93EC016C0187E0C80ED11C560135
:100C100010E000E0E62EF12C60E00E151F0544F414
:100C2000F50181915F010E9425030F5F1F4FF4CFF3
:100C30008E810E94F70261E08E810E94F70210E02F
:100C400000E0812CAA24A394B12CF60121916F011C
:100C500030E0F901E851FE4F8491F901EC52FE4F6A
:100C60009490F901E054FE4F749071101AC080E026
:100C7000882A0F5F1F4F0E151F053CF360E08E8121
:100C80000E94F702882DDF91CF911F910F91FF9065
:100C9000EF90DF90CF90BF90AF909F908F907F901C
:100CA000089581110E94CE02E72DF0E0EE0FFF1FA4
:100CB000EE55FE4FA591B491EC919E22C1F2C50173
:100CC000002E01C0880F0A94EAF7D2CFAF92BF92EC
:100CD000CF92DF92EF92FF920F931F93CF93DF9308
:100CE000EC017C0110E000E0A42EB12CC62ED12C2A
:100CF0008FEFE81AF80A0A151B05A4F461E0F70162
:100D000086810E942503B601002E02C07595679565
:100D10000A94E2F76170F70186810E94F7020F5F83
:100D20001F4FE6CF60E08E810E94F70261E08E8166
:100D30000E94F70260E08E810E94F7028BE891E04A
:100D40000197F1F7DF91CF911F910F91FF90EF90F5
:100D5000DF90CF90BF90AF9008951F93CF93DF9314
:100D6000EC01162F642F8C810E94F7028D818F3F3A
:100D700019F060E00E94F7028F8548E084FD0CC006
:100D8000612F70E084E0759567958A95E1F744E0FE
:100D9000CE010E94660644E0612FCE01DF91CF9123
:100DA0001F910C94660640E00C94AD06CF93DF9340
:100DB000823029F490914306986090934306809383
:100DC0004706109248068BE39DE00197F1F760E03B
:100DD000809138060E94F70260E080913A060E94F6
:100DE000F702809139068F3F19F060E00E94F70208
:100DF0006091430664FD45C044E063E084E396E00F
:100E00000E946606CBE4D6E4CE010197F1F744E0F8
:100E100063E084E396E00E9466062197F1F744E0E0
:100E200063E084E396E00E94660683E592E0019722
:100E3000F1F744E062E084E396E00E946606609188
:100E40004306606284E396E00E94D30684E08093C8
:100E500044066CE084E396E00E94D30661E084E3FC
:100E600096E00E94D3068BE39FE10197F1F782E0C1
:100E70008093450666E084E396E0DF91CF910C9481
:100E8000D306606284E396E00E94D3068BE496E486
:100E90000197F1F760914306606284E396E00E9457
:100EA000D30683E592E00197F1F760914306606213
:100EB00084E396E00E94D306C2CF0F931F93CF9393
:100EC000DF938C01C62FDC0155968C9155978130AC
:100ED00001F560E014968C910E94F702F80185817B
:100EE0008F3F19F061E00E94F702D8011F968C91A4
:100EF00084FF1DC068E0C8010E94F5058F7798EF58
:100F0000980F9C3030F4885C682F6068C8010E949C
:100F1000D306C7FF3CC0C03CB8F0C05DF801C68B2B
:100F200081E090E0DF91CF911F910F91089564E0EF
:100F3000C8010E94F505D82FD295D07F64E0C80182
:100F40000E94F5058D2BDACFEC2FEF73D801569662
:100F50006C91611108C0E13069F441E062EAC801B6
:100F60000E94AD06DDCF613029F4E13119F441E092
:100F700065EBF5CFE051FF0BB0E46B9FB00111249E
:100F8000E60FF71FEE59FE4F649141E0E8CF41E0D4
:100F90006C2FE5CFEF92FF920F931F93CF93DF93C8
:100FA000CDB7DEB728970FB6F894DEBF0FBECDBF22
:100FB0007C018B0161E084E396E00E94D3068BE321
:100FC0009FE10197F1F7F7014481558160817181BB
:100FD00084E396E00E94B80188E0EAE0F1E0DE01F7
:100FE000119601900D928A95E1F780914706823023
:100FF00030F5815090E0880F991F21E030E02C0FF0
:101000003D1F820F931FFC016081606884E396E0BE
:101010000E94D306F801448155816081718184E387
:1010200096E028960FB6F894DEBF0FBECDBFDF91D5
:10103000CF911F910F91FF90EF900C94B80181E038
:10104000D9CFFC0101900020E9F73197AF01481B8F
:10105000590BBC0181E695E00C94B8018F929F92E8
:10106000AF92BF920F931F93CF93DF93CDB7DEB7AD
:10107000A1970FB6F894DEBF0FBECDBF19A24230C4
:1010800008F44AE08E010F5D1F4F842E912CB12C85
:10109000A12CA50194010E94801FE62FB901CA016D
:1010A000EA30F4F4E05DD801EE938D01232B242B7C
:1010B000252B79F790E080E0109719F0CD010E9480
:1010C0002108A1960FB6F894DEBF0FBECDBFDF9109
:1010D000CF911F910F91BF90AF909F908F900895E7
:1010E000E95CE1CFCF93DF93EC01809128069091EA
:1010F00029060097E9F06881798161157105B1F0E1
:1011000040912A0650912B062C813D8142175307AE
:1011100068F00E9493218C819D8190932D0680938D
:101120002C061D821C82DF91CF9108950E944420DD
:101130008881998190932906809328068A819B81D2
:1011400090932B0680932A068C819D8190932D0687
:1011500080932C06198218821B821A82E2CFCF93C9
:10116000DF93EC0188819981009711F00E9444205F
:10117000198218821D821C821B821A82DF91CF91F4
:101180000895FC0180819181009711F00C94442016
:1011900008950F931F93CF93DF93EC01888199817A
:1011A000009759F02A813B812617370730F081E0FC
:1011B000DF91CF911F910F9108958B016F5F7F4F4A
:1011C0000E94CD20009759F0998388831B830A835E
:1011D0002C813D81232B59F7FC011082E8CF80E060
:1011E000E7CFEF92FF920F931F93CF93DF93611599
:1011F000710541F480E0DF91CF911F910F91FF9035
:10120000EF90089541155105B1F07B01EC010C817F
:101210001D81040F151FB8010E94C908882351F3CE
:10122000288139818C819D81B701820F931F0E9493
:1012300093211D830C8381E0DECFEF92FF920F9309
:101240001F93CF93DF93CDB7DEB728970FB6F894EF
:10125000DEBF0FBECDBF7C01CB014AE08E010F5F28
:101260001F4FB8010E94D61BF80101900020E9F73A
:101270003197AF01401B510BB801C7010E94F10823
:1012800028960FB6F894DEBF0FBECDBFDF91CF9189
:101290001F910F91FF90EF900895EF92FF920F939F
:1012A0001F93CF93DF9300D000D0CDB7DEB77C0182
:1012B000862F4AE08E010F5F1F4FB80190E00E9419
:1012C000D61BF80101900020E9F73197AF01401BD0
:1012D000510BB801C7010E94F1080F900F900F90B9
:1012E0000F90DF91CF911F910F91FF90EF90089594
:1012F0006115710551F0FB0101900020E9F731976C
:10130000AF01461B570B0C94F10880E00895EF9253
:10131000FF920F931F93CF93DF93EC017B018A0120
:10132000BA010E94C90881110BC0CE010E94AF080A
:10133000CE01DF91CF911F910F91FF90EF90089513
:101340001D830C83B701888199810E949321F0CF7E
:10135000FC0111821082138212821582148250E0E5
:1013600040E069E272E00C948709FB0101900020E3
:10137000E9F73197AF01461B570B0C9487090F9380
:101380001F93CF93DF93CDB7DEB729970FB6F894AD
:10139000DEBF0FBECDBF8C01862FF80111821082F7
:1013A00013821282158214824AE0BE016F5F7F4F62
:1013B00090E00E94E11BBE016F5F7F4FC8010E9459
:1013C000B50929960FB6F894DEBF0FBECDBFDF91E9
:1013D000CF911F910F910895CF93DF93EC01FB0103
:1013E0008617970749F0608171816115710541F099
:1013F000448155810E948709CE01DF91CF910895E4
:101400000E94AF08F9CFFC01118210821382128270
:10141000158214820C94EC09CF92DF92EF92FF9226
:101420001F93CF93DF93CDB7DEB72C970FB6F89409
:10143000DEBF0FBECDBF182F7B0180910001882336
:10144000D9F0BA01CE0107960E94030AB701CE0176
:1014500001960E94030ABE01695F7F4FCE0101968B
:101460000E94CA07CE0101960E94C108CE010796CC
:101470000E94C108109200010E94F003C090EA048B
:10148000D090EB04E090EC04F090ED046C197D0931
:101490008E099F096D3D75408105910570F01F5FB4
:1014A0000E94F0036093EA047093EB048093EC04D1
:1014B0009093ED0481E080930001812F2C960FB66C
:1014C000F894DEBF0FBECDBFDF91CF911F91FF908B
:1014D000EF90DF90CF9008951F920F920FB60F926A
:1014E00011242F933F934F935F936F937F938F9329
:1014F0009F93AF93BF93EF93FF9381E695E00E9494
:101500003F02FF91EF91BF91AF919F918F917F919A
:101510006F915F914F913F912F910F900FBE0F9060
:101520001F9018951F920F920FB60F9211242F93B0
:101530008F939F93EF93FF93E0917105F091720564
:101540008081E0917705F091780582FD1BC0908144
:1015500080917A058F5F8F7320917B05821741F010
:10156000E0917A05F0E0EF59FA4F958F80937A0574
:10157000FF91EF919F918F912F910F900FBE0F9040
:101580001F9018958081F4CF1F920F920FB60F9283
:1015900011242F933F938F939F93AF93BF93809189
:1015A000D2049091D304A091D404B091D504309189
:1015B000D10423E0230F2D3758F50196A11DB11D4D
:1015C0002093D1048093D2049093D304A093D404A5
:1015D000B093D5048091D6049091D704A091D804FB
:1015E000B091D9040196A11DB11D8093D6049093AA
:1015F000D704A093D804B093D904BF91AF919F9121
:101600008F913F912F910F900FBE0F901F901895C3
:1016100026E8230F0296A11DB11DD2CF1F920F9273
:101620000FB60F9211242F933F934F935F936F93B5
:101630007F938F939F93AF93BF93EF93FF9380918B
:10164000B900887F803609F44AC0F0F5883209F481
:10165000A7C018F5803109F49BC0B8F4882309F4B9
:10166000F9C0883009F494C0FF91EF91BF91AF9118
:101670009F918F917F916F915F914F913F912F91AA
:101680000F900FBE0F901F901895883109F488C0F5
:10169000803251F780933A0514C0803409F49DC01C
:1016A00040F48033B9F38833F9F680933A0585EC3A
:1016B000B0C0803509F485C0883509F496C08834F7
:1016C00099F60E94FC03D0CF883909F48CC038F514
:1016D000883729F050F4883611F0803729F683E0F6
:1016E00080933C051092D00457C0883809F47BC021
:1016F000803919F0803809F0B7CF8091D00480325A
:1017000008F071C0E091D00481E08E0F8093D00486
:101710008091BB00F0E0E055FB4F80833DC0803BF3
:1017200039F0E0F4803A09F479C0883A09F09CCFA6
:1017300084E080933C051092AF041092AE04E091D7
:10174000DC04F091DD0409958091AE0481110FC095
:1017500081E08093AE0410928E0409C0803C09F4AD
:10176000A6CF883C09F4A3CF883B09F07DCFE09158
:10177000AF0481E08E0F8093AF04F0E0E257FB4F9F
:1017800080818093BB009091AF048091AE0429C00A
:10179000809117058093BB0085EC8093BC0064CFDB
:1017A0009091390580913805981758F5E0913905E1
:1017B00081E08E0F80933905F0E0E85EFA4F80817A
:1017C000E9CFE091390581E08E0F80933905809152
:1017D000BB00F0E0E85EFA4F80839091390580917C
:1017E00038059817C8F285E8D8CFE091390581E02F
:1017F0008E0F809339058091BB00F0E0E85EFA4FD0
:10180000808380913B0581115CCF81E08093160538
:1018100084EA8093BC0010923C0526CF85EC80932F
:10182000BC0010923C058091D004803230F4E091ED
:10183000D004F0E0E055FB4F10826091D00470E0DE
:10184000E091DA04F091DB0480EB94E009951092CA
:10185000D0040ACF10923A0534CF1092640510924A
:10186000630588EE93E0A0E0B0E080936505909377
:101870006605A0936705B093680524E531E03093D1
:1018800062052093610525EC30E030936E052093CE
:101890006D0524EC30E03093700520936F0520EC4B
:1018A00030E0309372052093710521EC30E03093E5
:1018B00074052093730522EC30E030937605209375
:1018C000750526EC30E0309378052093770510926B
:1018D0007A0510927B0510927C0510927D0510927E
:1018E0000106109200068093020690930306A093CF
:1018F0000406B093050686E691E09093FF05809379
:10190000FE05109237061092360688E791E0909314
:1019100035068093340688E0809338068FEF8093F5
:10192000390689E080933A0684E080933B0685E09F
:1019300080933C0686E080933D0687E080933E06D8
:1019400010923F06109240061092410610924206F5
:1019500061E088E00E942503809139068F3F19F0ED
:1019600061E00E94250361E080913A060E94250310
:101970001092430681E00E94D6068EE296E00E9415
:10198000A80988E296E00E94A80982E296E00E94F7
:10199000A8098CE196E00E94A80986E196E00E94E1
:1019A000A80980E196E00E94A8098AE096E00C94DC
:1019B000A809CF93DF93CDB7DEB7A0970FB6F89401
:1019C000DEBF0FBECDBF789484B5826084BD84B580
:1019D000816084BD85B5826085BD85B5816085BD2A
:1019E00080916E00816080936E00109281008091E2
:1019F000810082608093810080918100816080936A
:101A00008100809180008160809380008091B1008E
:101A100084608093B1008091B00081608093B000B9
:101A200080917A00846080937A0080917A0082604D
:101A300080937A0080917A00816080937A0080910F
:101A40007A00806880937A001092C100E09171055D
:101A5000F091720582E08083E0916D05F0916E0552
:101A60001082E0916F05F09170058FEC80831092E9
:101A70007905E0917505F091760586E08083E09127
:101A80007305F0917405808180618083E091730516
:101A9000F0917405808188608083E0917305F091F6
:101AA0007405808180688083E0917305F0917405EE
:101AB00080818F7D808310921505109214051092FD
:101AC0003E051092600510923C0511E010933B0515
:101AD0001092160561E082E10E94F70261E083E165
:101AE0000E94F7028091B9008E7F8093B9008091A7
:101AF000B9008D7F8093B90088E48093B80085E4B5
:101B00008093BC008CEE91E09093DD048093DC0424
:101B10008DEE91E09093DB048093DA0482E00E94E2
:101B2000D6060E94AD038093EF041093F004109248
:101B3000EE0488E60E94870182E090E00E9499040A
:101B40000E942A0181E090E00E94B9040E94A40151
:101B5000182F88E60E94870182E090E00E94990495
:101B6000612F6F7B8EEF95E00E946A040E942A012C
:101B70000E94F0036093EA047093EB048093EC04FA
:101B80009093ED0462E1A62E61E0B62E7EE1872EF1
:101B900071E0972EEBE36E2EEE24E3944AE0F42EF0
:101BA00054E6752E0E94FF04282F2150330BF901B3
:101BB000EE0FFF1FEE5BFE4F6081718182E296E0C7
:101BC0006115710509F421C10E94B5090E9417052C
:101BD00067EB71E08A3010F069E272E08CE196E028
:101BE0000E94B5090E941705682F8CE196E00E94BB
:101BF0004D0967EB71E08CE196E00E9478090E9444
:101C00002F05E82FF0E0EE0FFF1FE65DFE4F60812D
:101C100071818CE196E00E94780960E871E08CE1C6
:101C200096E00E9478090E944D058A3030F462E8FF
:101C300071E08CE196E00E9478090E944D05682FC2
:101C40008CE196E00E944D0969E272E086E196E03F
:101C50000E94B5090E9495058A3030F462E871E06F
:101C600086E196E00E9478090E949505682F86E13A
:101C700096E00E944D0964E871E086E196E00E94DA
:101C800078090E9465058A3030F462E871E086E1E7
:101C900096E00E9478090E946505682F86E196E02B
:101CA0000E944D096CE871E086E196E00E94780997
:101CB0000E947D058A3030F462E871E086E196E0AA
:101CC0000E9478090E947D05682F86E196E00E94B7
:101CD0004D0964E971E086E196E00E94780968E9BF
:101CE00071E080E196E00E94B50988E60E948701D4
:101CF00081E190E00E9499040E942A0182E090E034
:101D00000E94B9049091140580911505981709F463
:101D10007FC00E94A401182F0E94A401D12EC12CC3
:101D2000B601682B96E0759567959A95E1F7072EB1
:101D3000000C880B990B0E94441E20E030E040E824
:101D40005EE30E947F1E8E010F5F1F4F22E044E082
:101D50000E94B81BFC0101900020E9F73197AF0108
:101D6000481B590BBC0180E196E00E94F10880916C
:101D7000F004823009F451C0833009F46CC0813022
:101D800009F07DC06CE176E0C8010E94030A62E2BE
:101D900076E0CE0145960E94030AA801BE016B5E63
:101DA0007F4F81E00E940C0A8093F004CE0145969B
:101DB0000E94C108C8010E94C1080E94AD0380931F
:101DC000EF04843009F05EC09091EE049F5F909321
:101DD000EE049091EE04913009F074C0813009F462
:101DE00071C038E03093E1048091EF048450823078
:101DF00008F04BC00E94AD038093EF0466E970E0E9
:101E000080E090E00E947B03EFCF0E94AF08DECE1F
:101E100060E07CE38CE196EC96CF66E176E0CE0163
:101E200001960E94030A6CE176E0CE0145960E947D
:101E3000030AAE014F5F5F4FBE016B5E7F4F82E0D2
:101E40000E940C0A8093F004CE0145960E94C108BE
:101E5000CE010196B0CF60E176E0CE0101960E94FE
:101E6000030A66E176E0CE0145960E94030AAE01C0
:101E70004F5F5F4FBE016B5E7F4F83E0E1CFE0922B
:101E8000F0049BCF1092EE04A4CF0E94FF04815077
:101E90008093E0041091E004E12FF0E08091EF04E2
:101EA00084508230E0F51091E0040E94FF048150DC
:101EB000990B1817190609F08CC08091EE048F5FFA
:101EC0008093EE048091EE04823009F043C180914A
:101ED000EF04813009F43EC17092E1040E94F003E6
:101EE0006093EA047093EB048093EC049093ED0408
:101EF000E09203010E944D058093E0048091EF047D
:101F00008450823008F015C10E94AD038093EF0425
:101F100066E970E080E090E00E947B03EFCFEE0F77
:101F2000FF1FEE5BFE4F608171818EE296E06115CE
:101F3000710509F440C00E94B50967EB71E088E2C1
:101F400096E00E94B5098091E1048117D9F068E21A
:101F500076E0CE0101960E94030A6EE276E0CE01A1
:101F600045960E94030ABE016F5F7F4FCE014596E2
:101F70000E94CA07CE0145960E94C108CE01019673
:101F80000E94C1080E94AD03182F8093EF0466E9F8
:101F900070E080E090E00E947B038091E0041230CA
:101FA00069F49FEF882309F475CF980F9093E004AC
:101FB0008093E1046FCF0E94AF08BFCF133029F4A4
:101FC000863008F067CF91E0F0CF113009F062CF92
:101FD0006ACF8091EF04853009F06FCF1F5F88E6EC
:101FE0000E94870183E090E00E949904812F6F2D69
:101FF0000E94741F8295807F682F690F8EEF95E095
:102000000E946A040E942A0158CF2090EA0430906E
:10201000EB044090EC045090ED0480910301882380
:1020200009F4B9C00E94F003621973098409950983
:10203000653F71408105910560F00E94F003609357
:10204000EA047093EB048093EC049093ED041092F7
:1020500003010E94170567EB71E08A3010F069E216
:1020600072E08EE296E00E94B5090E941705682F83
:102070008EE296E00E944D0967EB71E08EE296E0F9
:102080000E9478090E942F05E82FF0E0EE0FFF1F55
:10209000E65DFE4F608171818EE296E00E947809D4
:1020A00060E871E08EE296E00E9478091091E00409
:1020B0001A3030F462E871E08EE296E00E9478090E
:1020C000612F8EE296E00E944D0967EB71E088E295
:1020D00096E00E94B50968E276E0CE0101960E9482
:1020E000030A6EE276E0CE0145960E94030ABE0125
:1020F0006F5F7F4FCE0145960E94CA07CE0145967D
:102100000E94C108CE0101960E94C1080E94AD0341
:10211000182F8093EF0466E970E080E090E00E9461
:102120007B03133009F076C08091E0049FEF8111AA
:1021300079C08091EF048450823008F066CF0E940D
:102140004D051091E004811377C08091EE048F5FFC
:102150008093EE048091EE04833009F035C18091C4
:10216000EF04813009F430C17092E1040E942F0520
:102170008093E0048091EF048450823008F013C112
:102180000E94AD038093EF0466E970E080E090E088
:102190000E947B03EFCF0E94F00362197309840948
:1021A0009509683771408105910560F00E94F00340
:1021B0006093EA047093EB048093EC049093ED0435
:1021C000E09203010E94170567EB71E08A3010F07E
:1021D00069E272E08EE296E00E94B5090E9417055E
:1021E000682F8EE296E00E944D0967EB71E08EE267
:1021F00096E00E9478090E942F05E82FF0E0EE0F8C
:10220000FF1FE65DFE4F608171818EE296E00E94C5
:1022100078095BCF123061F48091E004833608F0D6
:1022200088CF91E0980F9093E0048093E10481CFF0
:10223000113009F07ECF83CF8091EF04853009F013
:1022400084CF88E60E94870186E090E00E9499048E
:10225000812F6F2D0E94741F8295807F682F690FD8
:102260008EEF95E00E946A040E942A016ECF2090B2
:10227000EA043090EB044090EC045090ED0480911F
:102280000301882309F4E3C00E94F0036219730973
:1022900084099509653F71408105910560F00E94B0
:1022A000F0036093EA047093EB048093EC04909342
:1022B000ED04109203010E94170567EB71E08A306C
:1022C00010F069E272E08EE296E00E94B5090E9489
:1022D0001705682F8EE296E00E944D0967EB71E0CA
:1022E0008EE296E00E947809E091E004F0E0EE0FC3
:1022F000FF1FE65DFE4F608171818EE296E00E94D5
:10230000780960E871E08EE296E00E9478090E9408
:102310004D058A3030F462E871E08EE296E00E946A
:1023200078090E944D05682F8EE296E00E944D09C3
:1023300067EB71E088E296E00E94B5099091E104B4
:102340008091E0049817D9F068E276E0CE0101961A
:102350000E94030A6EE276E0CE0145960E94030ACF
:10236000BE016F5F7F4FCE0145960E94CA07CE0126
:1023700045960E94C108CE0101960E94C1080E94A4
:10238000AD038093EF0466E970E080E090E00E9486
:102390007B038091EF04833009F08CC08091E004CE
:1023A0009FEF81118FC08091EF048450823008F03C
:1023B0005ECF0E942F051091E00481138DC08091A3
:1023C000EE048F5F8093EE048091EE04843009F078
:1023D00052C18091EF04813009F44DC17092E10443
:1023E0000E944D05837009F08DC09092DF048092A9
:1023F000DE040E941705582E0091DE041091DF04C0
:102400000E942F05800F912F911DFC018081851561
:1024100048F40E942F05800F912F911DFC018081AF
:102420000E949E040E9417058093E0048091EF04AF
:102430008450823008F00EC10E94AD038093EF04F7
:1024400066E970E080E090E00E947B03EFCF0E949D
:10245000F003621973098409950968377140810591
:10246000910560F00E94F0036093EA047093EB041E
:102470008093EC049093ED04E09203010E94170511
:1024800067EB71E08A3010F069E272E08EE296E06C
:102490000E94B5090E941705682F8EE296E00E94FF
:1024A0004D0967EB71E08EE296E00E94780960EBDF
:1024B00071E023CF823061F48091E0048B3008F02A
:1024C00072CF91E0980F9093E0048093E1046BCF7A
:1024D000813009F068CF6DCF88E60E94870185E0E2
:1024E00090E00E949904812F6F2D0E94741F8295A5
:1024F000807F682F690F8EEF95E00E946A040E942A
:102500002A015DCFB092DF04A092DE0472CF69E2AF
:1025100072E08EE296E00E94B5092090EA043090C5
:10252000EB044090EC045090ED048091030188236B
:1025300009F4CCC00E94F00362197309840995095B
:10254000653F71408105910560F00E94F003609342
:10255000EA047093EB048093EC049093ED041092E2
:1025600003011091E0041A3030F467EB71E08EE261
:1025700096E00E94B509612F8EE296E00E944D0917
:1025800067EB71E08EE296E00E9478090E942F05C9
:10259000E82FF0E0EE0FFF1FE65DFE4F60817181D6
:1025A0008EE296E00E94780960E871E08EE296E0A3
:1025B0000E9478090E944D058A3030F462E871E08B
:1025C0008EE296E00E9478090E944D05682F8EE207
:1025D00096E00E944D0967EB71E088E296E00E9468
:1025E000B5099091E1048091E0049817D9F068E270
:1025F00076E0CE0101960E94030A6EE276E0CE01FB
:1026000045960E94030ABE016F5F7F4FCE0145963B
:102610000E94CA07CE0145960E94C108CE010196CC
:102620000E94C1080E94AD03182F8093EF0466E951
:1026300070E080E090E00E947B03133009F064C0FA
:102640008091E004823030F09FEF980F9093E00487
:102650008093E1048091EF048450823008F057CFDA
:102660000E9417059091E00489136AC08091EE04DE
:102670008F5F8093EE048091EE04853009F023C1D2
:102680008091EF04813009F41EC1CE014B960E9467
:10269000A8097092E10469E272E088E296E00E9483
:1026A000B5090E9465058093E0048091EF04845091
:1026B000823008F0F3C00E94AD038093EF0466E916
:1026C00070E080E090E00E947B03EFCF0E94F00377
:1026D000621973098409950968377140810591056C
:1026E00060F00E94F0036093EA047093EB0480931F
:1026F000EC049093ED04E092030166EB71E08EE24E
:1027000096E00E94B5093CCF1230B1F40091DE048E
:102710001091DF040E942F059091E004F801E80F6A
:10272000F11D8081981708F095CF81E0890F809383
:10273000E0049093E1048ECF113009F08BCF90CF5D
:102740008091EF04853009F091CF892F0E949E047B
:102750008DCF2090EA043090EB044090EC04509030
:10276000ED0480910301882309F4D8C00E94F0038E
:102770006219730984099509653F714081059105C6
:1027800060F00E94F0036093EA047093EB0480937E
:10279000EC049093ED04109203011091E00462E8C0
:1027A00071E01A3010F069E272E0CE014B960E949F
:1027B000B509612FCE014B960E944D0969E272E086
:1027C0008AE096E00E94B5090E9495058A3030F4AF
:1027D00062E871E08AE096E00E9478090E9495051F
:1027E000682F8AE096E00E944D0965E673E08AE072
:1027F00096E00E9478094F8D58A16B8D7C8D8AE000
:1028000096E00E94F10865E673E08AE096E00E9497
:1028100078090E947D058A3030F462E871E08AE030
:1028200096E00E9478090E947D05682F8AE096E074
:102830000E944D099091E1048091E0049817D9F02D
:1028400068E276E0CE0101960E94030A6AE076E033
:10285000CE0145960E94030ABE016F5F7F4FCE01F5
:1028600045960E94CA07CE0145960E94C108CE0136
:1028700001960E94C1080E94AD03182F8093EF04B7
:1028800066E970E080E090E00E947B03133009F07D
:1028900064C08091E0049FEF811167C08091EF04D4
:1028A0008450823008F055CF0E9465051091E004F5
:1028B000811365C08091EE048F5F8093EE04CE019A
:1028C0004B960E94C1088091EE04863009F02CC11D
:1028D0008091EF04813009F427C1CE014B960E940C
:1028E000A8097092E10469E272E088E296E00E9431
:1028F000B5090E9495058093E0048091EF0484500F
:10290000823008F0FCC00E94AD038093EF0466E9BA
:1029100070E080E090E00E947B03EFCF0E94F00324
:102920006219730984099509683771408105910519
:1029300068F00E94F0036093EA047093EB048093C4
:10294000EC049093ED04E092030138CF66EB71E064
:10295000CE014B960E94B50931CF123061F48091BF
:10296000E0048B3308F09ACF91E0980F9093E00445
:102970008093E10493CF113009F090CF95CF8091EF
:10298000EF04853009F096CF88E60E94870181E048
:1029900090E00E949904812F6F2D0E94741F8295F0
:1029A000807F682F690F8EEF95E00E946A040E9475
:1029B0002A0180CF2090EA043090EB044090EC0490
:1029C0005090ED0480910301882309F4D8C00E943F
:1029D000F0036219730984099509653F7140810507
:1029E000910560F00E94F0036093EA047093EB0499
:1029F0008093EC049093ED04109203011091E00495
:102A000062E871E01A3010F069E272E0CE014B9694
:102A10000E94B509612FCE014B960E944D0969E2D3
:102A200072E08AE096E00E94B5094F8D58A16B8D47
:102A30007C8D8AE096E00E94F10865E673E08AE00A
:102A400096E00E9478090E9465058A3030F462E8B9
:102A500071E08AE096E00E9478090E946505682F7F
:102A60008AE096E00E944D0965E673E08AE096E010
:102A70000E9478090E947D058A3030F462E871E096
:102A80008AE096E00E9478090E947D05682F8AE01E
:102A900096E00E944D099091E1048091E00498171E
:102AA000D9F068E276E0CE0101960E94030A6AE05E
:102AB00076E0CE0145960E94030ABE016F5F7F4F0C
:102AC000CE0145960E94CA07CE0145960E94C108D4
:102AD000CE0101960E94C1080E94AD03182F809379
:102AE000EF0466E970E080E090E00E947B03133021
:102AF00009F064C08091E0049FEF811167C080916C
:102B0000EF048450823008F055CF0E949505109153
:102B1000E004811365C08091EE048F5F8093EE0422
:102B2000CE014B960E94C1088091EE04873009F0D7
:102B300056C18091EF04813009F451C1CE014B960A
:102B40000E94A8097092E10469E272E088E296E0CE
:102B50000E94B5090E947D058093E0048091EF04F6
:102B60008450823008F026C10E94AD038093EF04A8
:102B700066E970E080E090E00E947B03EFCF0E9466
:102B8000F00362197309840995096837714081055A
:102B9000910568F00E94F0036093EA047093EB04DF
:102BA0008093EC049093ED04E092030138CF66EB40
:102BB00071E0CE014B960E94B50931CF123061F41D
:102BC0008091E004873108F09ACF91E0980F9093BC
:102BD000E0048093E10493CF113009F090CF95CFBA
:102BE0008091EF04853009F096CF88E60E94870136
:102BF00082E090E00E9499040E942A0181E090E026
:102C00000E94B9040E94A40186FF24C01D30C8F0B0
:102C100084EF810F6F2D0E94741F182F1295107F63
:102C2000190F106688E60E94870182E090E00E94FA
:102C30009904612F8EEF95E00E946A040E942A0198
:102C40006ACF812F6F2D0E94741F8295807F182F6D
:102C5000190FE8CF812F6F2D0E94741F182F129526
:102C6000107F190F1F7BDECF2090EA043090EB0419
:102C70004090EC045090ED0480910301882309F406
:102C8000C9C00E94F0036219730984099509653F60
:102C900071408105910560F00E94F0036093EA04A1
:102CA0007093EB048093EC049093ED041092030175
:102CB0001091E00462E871E01A3010F069E272E00D
:102CC000CE014B960E94B509612FCE014B960E9412
:102CD0004D0969E272E08AE096E00E94B5090E941F
:102CE00095058A3030F462E871E08AE096E00E944F
:102CF00078090E949505682F8AE096E00E944D09A8
:102D000065E673E08AE096E00E9478090E94650516
:102D10008A3030F462E871E08AE096E00E94780937
:102D20000E946505682F8AE096E00E944D0965E6DD
:102D300073E08AE096E00E9478094F8D58A16B8D70
:102D40007C8D8AE096E00E94F1089091E1048091E8
:102D5000E0049817D9F068E276E0CE0101960E946F
:102D6000030A6AE076E0CE0145960E94030ABE019E
:102D70006F5F7F4FCE0145960E94CA07CE014596F0
:102D80000E94C108CE0101960E94C1080E94AD03B5
:102D9000182F8093EF0466E970E080E090E00E94D5
:102DA0007B03133009F055C08091E0048093E10467
:102DB0001092E0048091EF048450823008F054CFE8
:102DC0000E947D051091E004811350C08091EE04B3
:102DD0008F5F8093EE04CE014B960E94C1088091D4
:102DE000EE04883010F01092EE048091EF048130F0
:102DF00009F02CC48091EF04813009F064C00E9476
:102E0000AD038093EF0466E970E080E090E00E94FB
:102E10007B03F0CF0E94F0036219730984099509BE
:102E2000683771408105910568F00E94F003609356
:102E3000EA047093EB048093EC049093ED04E09229
:102E4000030147CF66EB71E0CE014B960E94B509B6
:102E500040CF123039F48091E0048093E104609215
:102E6000E004A8CF113009F0A5CFAACF8091EF04DC
:102E7000853009F0ABCF88E60E94870190E080E0C2
:102E80000E949904812F6F2D0E94741F8295807F6C
:102E9000682F690F8EEF95E00E946A040E942A0154
:102EA0000E94C105182F88E60E9487018FE090E0FC
:102EB0000E949904612F6F778EEF95E00E946A045B
:102EC0000E942A0183CF0E94F0036093EA0470936A
:102ED000EB048093EC049093ED04E0920301E09204
:102EE000020188E60E94870187E090E00E94990431
:102EF0000E942A0184E090E00E94B9040E94A4018B
:102F0000282F22952770982F9F702F9D900D1124A8
:102F10009093E604881F8827881F9091E504892BE9
:102F20008093E5040E94A401382F32953770282F32
:102F30002F703F9D200D11242093E704E6E0959526
:102F40008795EA95E1F782709091E504892B80934B
:102F5000E5040E94A4019C01F5E035952795FA95BA
:102F6000E1F7322F34702091E504232B2093E50400
:102F700021E0AC014074552786FF20E02093E30454
:102F8000382F32953F70282F2F70452B09F439C107
:102F900085FB882780F98093E20431703F9D200DE6
:102FA00011242093E8040E94A4019C0174E035954B
:102FB00027957A95E1F7322F38702091E504232B7D
:102FC0002093E50421E0AC014074552786FF20E002
:102FD0002093E404282F2F70452B09F414C120936B
:102FE000E9048091EF048B7F813009F433C169EBF0
:102FF00071E08EE296E00E94B50981E00E94D10561
:103000006FEC71E0811102C066ED71E08EE296E036
:103010000E9478096FED71E088E296E00E94B509A0
:1030200082E00E94D1056FEC71E0811102C066ED73
:1030300071E088E296E00E94780968E276E0CE01CD
:1030400001960E94030A6EE276E0CE0145960E9448
:10305000030ABE016F5F7F4FCE0145960E94CA07EB
:10306000CE0145960E94C108CE0101960E94C1087A
:1030700080910301882309F4CCC00E94F0030091E1
:10308000EA041091EB042091EC043091ED04601BF4
:10309000710B820B930B653F71408105910500F127
:1030A000109102010E94F0036093EA047093EB0414
:1030B0008093EC049093ED0410920301112309F422
:1030C00036C38091EF04823009F029C369E272E0CF
:1030D0008EE296E00E94B509E09201011092020191
:1030E00090910101809102019817F9F068E276E071
:1030F000CE0101960E94030A6EE276E0CE0145966B
:103100000E94030ABE016F5F7F4FCE0145960E9469
:10311000CA07CE0145960E94C108CE0101960E94C1
:10312000C108809102018093010189EF91E00E9422
:1031300021086091020170E090E080E042E00E948E
:103140002E0885EF91E00E9421086091010170E056
:1031500090E080E042E00E942E0882E092E00E942F
:1031600021086091030170E090E080E042E00E945D
:103170002E088EE092E00E9421086091EF0470E03A
:1031800090E080E04AE00E942E088AE192E00E94EE
:1031900021086091EA047091EB048091EC04909115
:1031A000ED044AE00E942E0887E292E00E94210886
:1031B00069EB71E08EE296E00E94B50981E00E9421
:1031C000D105682F70E08EE296E00E941D096FED38
:1031D00071E088E296E00E94B50982E00E94D10584
:1031E000682F70E088E296E00E941D090E94AD03FE
:1031F0008093EF0466E970E080E090E00E947B033A
:10320000F0CE3370CBCE829583708F9D200D11242C
:10321000E6CE0E94F0030091EA041091EB042091A5
:10322000EC043091ED04601B710B820B930B68373B
:1032300071408105910508F453CF0E94F00360931B
:10324000EA047093EB048093EC049093ED04E09215
:10325000030146CF60ED77E080E090E00E947B03C1
:103260006091E904CE0101960E94BF09CE0101964A
:103270000E947208CE0101960E94C10867EB71E0BE
:1032800088E296E00E9478096091E80488E296E07E
:103290000E944D0967EB71E088E296E00E94780990
:1032A0006091E70488E296E00E944D0967EB71E0C7
:1032B00088E296E00E9478096091E60488E296E050
:1032C0000E944D0967EB71E088E296E00E94780960
:1032D0006091E50488E296E00E944D0967EB71E099
:1032E00088E296E00E9478096091E40470E088E248
:1032F00096E00E941D0967EB71E088E296E00E946B
:1033000078096091E30470E088E296E00E941D096C
:1033100067EB71E088E296E00E9478096091E20430
:1033200070E088E296E00E941D0968E276E0CE0136
:1033300001960E94030A6EE276E0CE0145960E9455
:10334000030ABE016F5F7F4FCE0145960E94CA07F8
:10335000CE0145960E94C108CE0101960E94C10887
:1033600060ED77E080E090E00E947B0368E276E029
:103370008EE296E00E94EC096091E50470E090E036
:1033800080E04AE00E942E0887E292E00E94210835
:103390008091E5048F3009F49BC108F085C1883025
:1033A00009F475C108F062C1882309F476C140911F
:1033B0002C0650912D06609128067091290681E611
:1033C00095E00E94B80187E292E00E94210868E23D
:1033D00076E0CE0101960E94030A6EE276E0CE010D
:1033E00045960E94030ABE016F5F7F4FCE0145964E
:1033F0000E94CA07CE0145960E94C108CE010196DF
:103400000E94C10860ED77E080E090E00E947B03BD
:1034100068E276E08EE296E00E94EC0961E573E0F6
:1034200088E296E00E94B50982E00E94D105682FEB
:1034300070E088E296E00E941D0968E276E0CE0125
:1034400001960E94030A6EE276E0CE0145960E9444
:10345000030ABE016F5F7F4FCE0145960E94CA07E7
:10346000CE0145960E94C108CE0101960E94C10876
:1034700060ED77E080E090E00E947B0368E276E018
:103480008EE296E00E94EC0988E60E9487018BE0BC
:1034900090E00E9499040E942A0183E090E00E943B
:1034A000B9040E94A401382F32953770282F2F704D
:1034B0003F9D200D11242093E70453E095958795B7
:1034C0005A95E1F780719091E504892B8093E5048A
:1034D0000E94A4019C013595279535952795322F9B
:1034E00030722091E504232B2093E50421E0AC0108
:1034F0004074552786FF20E02093E304382F32954F
:103500003F70282F2F70452B09F401C185FB8827B8
:1035100080F98093E20431703F9D200D11242093A7
:10352000E8040E94A4019C0135952795322F307440
:103530002091E504232B2093E50421E0AC014074A5
:10354000552786FF20E02093E404282F2F70452B79
:1035500009F4DFC02093E9046091E904CE010196EB
:103560000E94BF09CE0101960E947208CE01019609
:103570000E94C10867EB71E088E296E00E9478093A
:103580006091E80488E296E00E944D0967EB71E0E3
:1035900088E296E00E9478096091E70488E296E06C
:1035A0000E944D0967EB71E088E296E00E9478097D
:1035B0006091E50488E296E00E944D0967EB71E0B6
:1035C00088E296E00E9478096091E40470E088E265
:1035D00096E00E941D0967EB71E088E296E00E9488
:1035E00078096091E30470E088E296E00E941D098A
:1035F00067EB71E088E296E00E9478096091E2044E
:1036000070E088E296E00E941D0968E276E0CE0153
:1036100001960E94030A6EE276E0CE0145960E9472
:10362000030ABE016F5F7F4FCE0145960E94CA0715
:10363000CE0145960E94C108CE0101960E94C108A4
:1036400060ED77E080E090E00E947B0380E090E016
:10365000892B11F40C94D20D0E942B02882311F4B3
:103660000C94CC0D0E9400000C94CC0D8C3049F0D1
:103670008E3009F09CCE65E472E088E296E00E940C
:10368000B50967E672E088E296E00E94B50969E94B
:1036900072E088E296E00E94B50968E373E088E290
:1036A00096E00E94B50983CE8C3151F1C0F480318F
:1036B00049F0883109F07BCE69E972E088E296E052
:1036C0000E94B50965ED72E088E296E00E94B509B6
:1036D0006FE173E088E296E00E94B509CCCF8E31AD
:1036E00049F08F3109F063CE6AE272E088E296E039
:1036F0000E94B50964E472E088E296E00E94B50990
:1037000067E672E088E296E00E94B509D5CF337093
:1037100003CF829583708F9D200D11241BCF8330A2
:1037200009F0DACC69E272E088E296E0D3CC10923C
:103730000101E0920201D4CC8AE096E00E94C10827
:1037400080E196E00E94C10886E196E00E94C108EF
:103750008CE196E00E94C10882E296E00E94C108D6
:1037600088E296E00E94C1088EE296E00C94C108BF
:10377000EF920F931F93CF93DF93E80134E047FD5F
:1037800034E1042E000C550B57FF03C051954195B1
:103790005109E32E022F242FAE010E94FB1BCE0104
:1037A000DF91CF911F910F91EF900895BB274A3081
:1037B00031F4992322F4BDE2909581959F4F0C94AA
:1037C000E21BBB27FB015527AA27880F991FAA1FB9
:1037D000A41710F0A41B83955051B9F7A05DAA332C
:1037E00008F0A95DA193009779F7B111B1931192F7
:1037F000CB010C94321EA9E0B0E0E1E0FCE10C94B6
:10380000431F6A01F22EB02E102FFBE3AF2EA0163D
:1038100008F41BE31F5F012F27E0AE014F5F5F4FEE
:103820000E945A1DBC018981982F9970913009F42A
:103830003FC09BE2E1FC04C09E2D9170E0FC3AC0C9
:103840005E2D5071E82FE87083FF46C084E091112F
:1038500001C083E0EF2DE81B8F1508F0E0E0D601F2
:103860008E2F20E2552351F1992329F0D6019C9304
:10387000C60101966C0196012D5F3F4FE2FE24C008
:103880008EE4D6018C9391E411969C931197129635
:103890008C93D9018E2F90E281111BC0E20FF32F80
:1038A000F11D10828EEF9FEF2996ECE00C945F1FC4
:1038B0009DE2C6CF90E2C4CF2D9381508111FCCF01
:1038C000CE0ED11CE0E0D0CF8EE6D6018C9391E6EF
:1038D000DBCF9D938150E0CF482F447082FF3DC0E5
:1038E00084E0911101C083E08F1510F4EF2DE81BE7
:1038F000D6018E2F20E2552309F1992329F0D60114
:103900009C93C60101966C0196012D5F3F4FE2FE2C
:103910001BC089E4D6018C938EE411968C93119789
:1039200086E412968C93D9018E2F90E2882309F4B5
:10393000B5CF9D938150FACF2D9381508111FCCF4B
:10394000CE0ED11CE0E0D9CF89E6D6018C938EE66D
:1039500011968C93119786E6E4CF9B0177FF02C006
:1039600030E020E0A1E0B0E0911102C0B0E0A0E0C2
:10397000F9013196AE0FBF1F8B2C912CBB2009F49F
:1039800061C05401EFEFAE1ABE0AAA0DBB1DFA16B4
:103990001B0619F014F04F2D4A1B511188C0E3FC8F
:1039A00059C07601A42FB0E2A1114FC0C40ED11CA2
:1039B000992309F45BC040E0D6011196F60190838B
:1039C0006D01552309F448C0012F060F9A81582F25
:1039D000507184FF03C0913309F4015010160CF0AC
:1039E00047C0093008F008E0EEE2FE2E5B01A01AA5
:1039F000B10885019194819491082F3F320729F4F1
:103A0000D601FC92F60131966F016217730794F1AB
:103A1000021713077CF5DB01A21BB30BAA24A394A6
:103A2000B12CAC0EBD1EAA0DBB1D11968C91215060
:103A30003109D601119628153905F4F0F601808375
:103A40006D01DBCFB12CA12CA0CFF701B1937F0189
:103A5000A150AACF9111B0CFD601942F50E302C04C
:103A60005D9391509111FCCFC40ED11C40E0ACCFBE
:103A700001E0BACF80E3DBCF6217730731F49633EE
:103A800088F4953311F4552369F0F6018083FD0124
:103A9000842F90E2811108C0A40FB11D1C9290E008
:103AA00080E002CF81E3F1CF91938150F3CF911168
:103AB00083CF8ACF283008F027E03327DA01990F27
:103AC000311D87FD916000966105710539F4326002
:103AD0002E5F3D9330E32A95E1F708959F3F30F044
:103AE00080387105610509F03C5F3C5F3D93913082
:103AF00008F08068911DDF93CF931F930F93FF927F
:103B0000EF92192F987F9695E92F96959695E90F44
:103B1000FF27EE53FF4F99273327EE24FF24A701F9
:103B2000E70105900894079428F4360FE71EF81E65
:103B3000491F511D660F771F881F991F0694A1F713
:103B40000590079428F4E70EF81E491F561FC11D63
:103B5000770F881F991F661F0694A1F70590079499
:103B600028F4F80E491F561FC71FD11D880F991F33
:103B7000661F771F0694A1F70590079420F4490F5C
:103B8000561FC71FD81F990F661F771F881F0694DF
:103B9000A9F784911095177041F0D695C795579560
:103BA0004795F794E7941A95C1F7E8E6F0E0689432
:103BB0001590159135916591959105907FE27395DA
:103BC000E118F10A430B560BC90BD009C0F7E10C01
:103BD000F11E431F561FC91FD01D7EF4703311F410
:103BE0008A95E6CFE894015030F0080F0AF40027D8
:103BF000021708F4202F2395022F7A3328F079E357
:103C00007D932A95E9F710C07D932A9589F606944D
:103C100097956795379517951794E118F10A430B17
:103C2000560BC90BD00998F023957E9173957A3382
:103C300008F070E37C932013B8F77E9170617D9358
:103C400030F0839571E37D9370E32A95E1F71124B9
:103C5000EF90FF900F911F91CF91DF91992787FDF2
:103C600090950895DC01FC01672F71917723E1F7AE
:103C7000329704C07C916D9370836291AE17BF0739
:103C8000C8F30895E89409C097FB3EF49095809599
:103C9000709561957F4F8F4F9F4F9923A9F0F92F12
:103CA00096E9BB279395F695879577956795B79590
:103CB000F111F8CFFAF4BB0F11F460FF1BC06F5F76
:103CC0007F4F8F4F9F4F16C0882311F096E911C088
:103CD000772321F09EE8872F762F05C0662371F0A9
:103CE00096E8862F70E060E02AF09A95660F771FBD
:103CF000881FDAF7880F9695879597F908950E949F
:103D0000921E0C94031F0E94F51E38F00E94FC1EA8
:103D100020F0952311F00C94EC1E0C94F21E11244B
:103D20000C94371F0E94141F70F3959FC1F3950FD9
:103D300050E0551F629FF001729FBB27F00DB11D2F
:103D4000639FAA27F00DB11DAA1F649F6627B00DBF
:103D5000A11D661F829F2227B00DA11D621F739FA8
:103D6000B00DA11D621F839FA00D611D221F749FB6
:103D70003327A00D611D231F849F600D211D822FFD
:103D8000762F6A2F11249F5750409AF0F1F0882324
:103D90004AF0EE0FFF1FBB1F661F771F881F915051
:103DA0005040A9F79E3F510580F00C94EC1E0C94F6
:103DB000371F5F3FE4F3983ED4F386957795679578
:103DC000B795F795E7959F5FC1F7FE2B880F911D7B
:103DD0009695879597F9089597F99F6780E870E021
:103DE00060E008959FEF80EC089500240A94161671
:103DF000170618060906089500240A9412161306D9
:103E0000140605060895092E0394000C11F4882366
:103E100052F0BB0F40F4BF2B11F460FF04C06F5F82
:103E20007F4F8F4F9F4F089557FD9058440F551F58
:103E300059F05F3F71F04795880F97FB991F61F02C
:103E40009F3F79F087950895121613061406551FA3
:103E5000F2CF4695F1DF08C0161617061806991F0F
:103E6000F1CF86957105610508940895E894BB2704
:103E700066277727CB0197F908952F923F924F92AB
:103E80005F926F927F928F929F92AF92BF92CF92EA
:103E9000DF92EF92FF920F931F93CF93DF93CDB7F3
:103EA000DEB7CA1BDB0B0FB6F894DEBF0FBECDBF6B
:103EB00009942A88398848885F846E847D848C843C
:103EC0009B84AA84B984C884DF80EE80FD800C8145
:103ED0001B81AA81B981CE0FD11D0FB6F894DEBF28
:103EE0000FBECDBFED010895991B79E004C0991F65
:103EF000961708F0961B881F7A95C9F78095089544
:103F0000A1E21A2EAA1BBB1BFD010DC0AA1FBB1FDD
:103F1000EE1FFF1FA217B307E407F50720F0A21B4F
:103F2000B30BE40BF50B661F771F881F991F1A94BC
:103F300069F760957095809590959B01AC01BD01E6
:103F4000CF010895EE0FFF1F0590F491E02D099425
:103F50000F931F93CF93DF938230910510F482E08B
:103F600090E0E0914D06F0914E0630E020E0B0E0A8
:103F7000A0E0309799F42115310509F44AC0281BB7
:103F8000390B24303105D8F58A819B816115710583
:103F900089F1FB0193838283FE0111C0408151812D
:103FA0000281138148175907E0F04817590799F41F
:103FB000109761F012960C93129713961C933296F9
:103FC000CF01DF91CF911F910F91089500934D067E
:103FD00010934E06F4CF2115310551F042175307C7
:103FE00038F0A901DB019A01BD01DF01F801C1CF61
:103FF000EF01F9CF90934E0680934D06CDCFFE0191
:10400000E20FF31F81939193225031093983288362
:10401000D7CF20914B0630914C06232B41F42091B1
:1040200006013091070130934C0620934B062091F6
:104030000401309105012115310541F42DB73EB73A
:104040004091080150910901241B350BE0914B066A
:10405000F0914C06E217F307A0F42E1B3F0B281734
:10406000390778F0AC014E5F5F4F2417350748F0F1
:104070004E0F5F1F50934C0640934B0681939193D4
:104080009FCFF0E0E0E09CCFCF93DF930097E9F083
:10409000FC01329713821282A0914D06B0914E0618
:1040A000ED0130E020E01097A1F420813181820FF2
:1040B000931F20914B0630914C062817390709F0C1
:1040C00061C0F0934C06E0934B06DF91CF910895C9
:1040D000EA01CE17DF07E8F54A815B819E014115B1
:1040E0005105B1F7E901FB83EA8349915991C40F66
:1040F000D51FEC17FD0761F4808191810296840F32
:10410000951FE90199838883828193819B838A83A8
:10411000F0E0E0E012968D919C9113970097B9F52D
:104120002D913C911197CD010296820F931F209102
:104130004B0630914C062817390739F6309751F560
:1041400010924E0610924D06B0934C06A0934B066B
:10415000BCCFD383C28340815181840F951FC81780
:10416000D90761F44E5F5F4F88819981480F591FCD
:10417000518340838A819B819383828321153105FA
:1041800009F0B0CFF0934E06E0934D069ECFFD01AF
:10419000DC01C0CF13821282D7CFB0E0A0E0E3ED04
:1041A000F0E20C943F1F8C01009751F4CB010E9468
:1041B000A81F8C01C801CDB7DEB7E0E10C945B1FEE
:1041C000FC01E60FF71F9C0122503109E217F307AB
:1041D00008F49DC0D901CD91DC911197C617D7077E
:1041E00098F0C530D10530F3CE01049786179707B4
:1041F00008F3C61BD70B2297C193D1936D937C9381
:10420000CF010E944420D6CF5B01AC1ABD0A4C01FD
:104210008C0E9D1EA0914D06B0914E06512C412C46
:10422000F12CE12C109731F580914B0690914C06C2
:104230008815990509F05CC04616570608F058C065
:104240008091040190910501009741F48DB79EB7CC
:104250004091080150910901841B950BE817F9075B
:1042600008F055C0F0934C06E0934B06F9017183BA
:104270006083A0CF8D919C91119712966C901297AC
:1042800013967C901397A815B90559F56C0142E077
:10429000C40ED11CCA14DB0420F1AC014A195B091D
:1042A000DA011296159780F06282738251834083FF
:1042B000D9016D937C93E114F10471F0D701139649
:1042C000FC93EE93129776CF22968C0F9D1FF901E7
:1042D00091838083F301EFCFF0934E06E0934D0678
:1042E00069CF4816590608F42C017D01D3019ACFF5
:1042F000CB010E94A81F7C01009749F0AE01B801D4
:104300000E948A21C8010E944420870153CF10E0F7
:1043100000E050CFFB01DC0102C001900D92415042
:104320005040D8F70895FB01DC0101900D92002068
:10433000E1F7089511E0CFEFD0E004C0FE010E9444
:0E434000A21F2196C030D107C9F7F894FFCF15
:10434E000101010100004F06800000004000140032
:10435E0054001F1C1F1E1F1E1F1F1E1F1E1F1F1D52
:10436E001F1E1F1E1F1F1E1F1E1F670376038603A1
:10437E009403A303AF03BC03C903D903EA03FA03EF
:10438E0009041904300447045604610470047F04C0
:10439E00000000006102B801EE01AE021F02FD0135
:1043AE001102000000006A043D04B6042D04E5016C
:1043BE0091012E04000000005D07B801B604B7019C
:1043CE0020323000D187D0B0D1812000D0BCD0B8FF
:1043DE00D0BD2000D1812E00D0A2D0B5D0BCD0BF90
:1043EE00D0B5D180D0B0D182D183D180D0B02000D1
:1043FE00202020202020202000D091D183D0B4D0A6
:10440E00B8D0BBD18CD0BDD0B8D0BA20312000D01E
:10441E00B2D0BAD0BB00D0B2D18BD0BAD0BB00D004
:10442E0091D183D0B4D0B8D0BBD18CD0BDD0B8D0C0
:10443E00BA20322000206F6C64616C61726D203D79
:10444E002000206C737769746368203D2000206E15
:10445E00756D427574746F6E2000206C6173746993
:10446E006D6572203D20000D0A0020D0A0D0B0D086
:10447E00B720D0B220D181D0B5D0BAD183D0BDD0A3
:10448E00B4D1830020D181D0BED0B2D0BFD0B0D0B5
:10449E00B4D0B5D0BDD0B8D0B520D181D0B5D0BABA
:1044AE00D183D0BDD0B400D181D0BED0B2D0BFD0D8
:1044BE00B0D0B4D0B5D0BDD0B8D0B520D0BCD0B867
:1044CE00D0BDD183D182D18B2C20D181D0B5D0BAA1
:1044DE00D183D0BDD0B4D18B00D181D0BED0B2D0DB
:1044EE00BFD0B0D0B4D0B5D0BDD0B8D0B520D18764
:1044FE00D0B0D181D18B2C20D0BCD0B8D0BDD1833F
:10450E00D182D18B2C20D181D0B5D0BAD183D0BD60
:10451E00D0B4D18B00D181D0BED0B2D0BFD0B0D06C
:10452E00B4D0B5D0BDD0B8D0B520D0BDD0B5D0B4F4
:10453E00D0B5D0BBD18F2C20D187D0B0D181D18B2B
:10454E002C20D0BCD0B8D0BDD183D182D18B2C2021
:10455E00D181D0B5D0BAD183D0BDD0B4D18B00D15A
:10456E0080D0B0D0B720D0B220D181D0B5D0BAD1C2
:10457E0083D0BDD0B4D18300D0BCD0B52CD0B4D0B4
:10458E00B52CD187D0B02CD0BCD0B82CD181D0B521
:10459E0000D091D183D0B4D0B8D0BBD18CD0BDD007
:1045AE00B8D0BA20323A00D0AFD0BDD0B2D0B0D150
:1045BE0080D18F202000D0A4D0B5D0B2D180D0B081
:1045CE00D0BBD18F2000D09CD0B0D180D182D0B0C2
:1045DE0020202000D090D0BFD180D0B5D0BBD18FBD
:1045EE00202000D09CD0B0D18F202020202000D0C1
:1045FE0098D18ED0BDD18F2020202000D098D18E82
:10460E00D0BBD18F2020202000D090D0B2D0B3D1FB
:10461E0083D181D182D0B02000D0A1D0B5D0BDD170
:10462E0082D18FD0B1D180D18F00D09ED0BAD1821D
:10463E00D18FD0B1D180D18F2000D09DD0BED18F5F
:10464E00D0B1D180D18F202000D094D0B5D0BAD0A7
:10465E00B0D0B1D180D18F2000D092D0BED181D038
:10466E00BAD180D0B5D181D0B5D0BDD18CD0B50066
:10467E00D09FD0BED0BDD0B5D0B4D0B5D0BBD18C2C
:10468E00D0BDD0B8D0BA00D092D182D0BED180D019
:10469E00BDD0B8D0BA00D0A1D180D0B5D0B4D0B0F2
:1046AE0000D0A7D0B5D182D0B2D0B5D180D0B300D2
:1046BE00D09FD18FD182D0BDD0B8D186D0B000D00E
:0E46CE00A1D183D0B1D0B1D0BED182D0B00086
:107E0000112484B714BE81FFF0D085E080938100F7
:107E100082E08093C00088E18093C10086E0809377
:107E2000C20080E18093C4008EE0C9D0259A86E02C
:107E300020E33CEF91E0309385002093840096BBD3
:107E4000B09BFECF1D9AA8958150A9F7CC24DD24C4
:107E500088248394B5E0AB2EA1E19A2EF3E0BF2EE7
:107E6000A2D0813461F49FD0082FAFD0023811F036
:107E7000013811F484E001C083E08DD089C08234E0
:107E800011F484E103C0853419F485E0A6D080C0E4
:107E9000853579F488D0E82EFF2485D0082F10E0AE
:107EA000102F00270E291F29000F111F8ED06801E7
:107EB0006FC0863521F484E090D080E0DECF843638
:107EC00009F040C070D06FD0082F6DD080E0C81688
:107ED00080E7D80618F4F601B7BEE895C0E0D1E017
:107EE00062D089930C17E1F7F0E0CF16F0E7DF06D8
:107EF00018F0F601B7BEE89568D007B600FCFDCFD4
:107F0000A601A0E0B1E02C9130E011968C91119780
:107F100090E0982F8827822B932B1296FA010C0160
:107F200087BEE89511244E5F5F4FF1E0A038BF0790
:107F300051F7F601A7BEE89507B600FCFDCF97BE46
:107F4000E89526C08437B1F42ED02DD0F82E2BD052
:107F50003CD0F601EF2C8F010F5F1F4F84911BD097
:107F6000EA94F801C1F70894C11CD11CFA94CF0C13
:107F7000D11C0EC0853739F428D08EE10CD085E9AC
:107F80000AD08FE07ACF813511F488E018D01DD067
:107F900080E101D065CF982F8091C00085FFFCCF94
:107FA0009093C60008958091C00087FFFCCF809118
:107FB000C00084FD01C0A8958091C6000895E0E648
:107FC000F0E098E1908380830895EDDF803219F02E
:107FD00088E0F5DFFFCF84E1DECF1F93182FE3DFCA
:107FE0001150E9F7F2DF1F91089580E0E8DFEE27F6
:047FF000FF270994CA
:027FFE00040479
:0400000300007E007B
:00000001FF