:100000000C9400010C9428010C9428010C942801F4
:100010000C9428010C9428010C9428010C942801BC
:100020000C9428010C9428010C9428010C942801AC
:100030000C9428010C9428010C9428010C9428019C
:100040000C94F10B0C9428010C94BF0B0C94990B9D
:100050000C9428010C9428010C9428010C9428017C
:100060000C943B0C0C94280100407A10F35A00A029
:10007000724E18090010A5D4E80000E87648170071
:1000800000E40B54020000CA9A3B000000E1F505B1
:10009000000080969800000040420F000000A086FB
:1000A00001000000102700000000E803000000002D
:1000B0006400000000000A000000000001000000D1
:1000C00000002C76D888DC674F0823DFC1DFAE59EB
:1000D000E1B1B796E5E3E453C63AE651997696E87E
:1000E000E6C28426EB898C9B62ED407C6FFCEFBC02
:1000F0009C9F40F2BAA56FA5F490055A2AF75C932D
:100100006B6CF9676DC11BFCE0E40D47FEF520E662
:10011000B500D0ED902E0300943577050080841E45
:10012000080000204E0A000000C80C333333330FA0
:10013000986E12831141EF8D2114893BE65516CF3D
:10014000FEE6DB18D1844B381BF77C1D901DA4BB49
:10015000E424203284725E228100C9F124ECA1E5FE
:100160003D2741A042A1E045A3A4A5A64BA74D4829
:100170004FA8504354A9AA58E1ABACE2ADAE62AF70
:10018000B0B161B2B3B4E365B6B7B8B9BABBBCBD80
:100190006FBE7063BF79E478E5C0C1E6C2C3C4C571
:1001A000C6C7000000002300260029000000000050
:1001B000240027002A0000000000250028002B0052
:1001C00004040404040404040202020202020303FD
:1001D0000303030301020408102040800102040805
:1001E0001020010204081020000000080002010095
:1001F0000003040700000000000000005A0D541B1B
:1002000011241FBECFEFD8E0DEBFCDBF27E0A4E9A9
:10021000B5E001C01D92AA39B207E1F715E0A0E0F0
:10022000B1E0EEEBF2E402C005900D92A439B10703
:10023000D9F710E0CFEFD0E004C02197FE010E9473
:100240005A1FCE3FD107C9F70E94260E0C945221A7
:100250000C940000E6E6F6E0A089B18982E08C9378
:10026000A485B5851C92A685B7858FEC8C93108EDE
:10027000A489B58986E08C93A289B3898C91806129
:100280008C93A289B3898C9188608C93A289B3895D
:100290008C9180688C930288F389E02D80818F7D1A
:1002A000808308952091650681E0213208F044C0E2
:1002B000809141068111FCCF8091640692E0909379
:1002C000410691E0909340069FEF90933F06109275
:1002D0003E0620933D06A4E4B6E0EDE1F6E090E0B2
:1002E000291331C010921C0690911C06880F892B8F
:1002F00080931C0680911B06813049F510921B06E5
:1003000080911C068093BB008091BC0083FDF8CFD8
:1003100085EC8093BC00809141068230E1F38091AE
:100320003F068F3FB1F080913F068032A1F080916F
:100330003F06803391F084E01092430610926506E8
:100340001092420608953D9131939F5FC9CF85EE8B
:10035000E0CF80E0F1CF82E0EFCF83E0EDCF91E01E
:1003600090934206809364061092430610926506AD
:10037000089590911A06809119062FEF3FEF981774
:1003800048F4E92FF0E0E750FA4F208130E09F5F1A
:1003900090931A06C901089590911A068091190642
:1003A0002FEF3FEF981748F4E92FF0E0E750FA4FAE
:1003B000208130E09F5F90931A06C9010895089547
:1003C000AF92BF92CF92DF92EF92FF920F931F9363
:1003D000CF93DF936C017B018B01040F151FEB01A1
:1003E0005E01AE18BF08C017D10759F06991D60158
:1003F000ED91FC910190F081E02DC6010995892BCA
:1004000079F7C501DF91CF911F910F91FF90EF9088
:10041000DF90CF90BF90AF90089508958091190616
:1004200090911A06891B990B089508950895FC016F
:10043000538D448D252F30E0842F90E0821B930B49
:10044000541710F0CF96089501970895FC01918DEF
:10045000828D981761F0A28DAE0FBF2FB11D5D96F2
:100460008C91928D9F5F9F73928F90E008958FEF94
:100470009FEF0895FC01918D828D981731F0828D48
:10048000E80FF11D858D90E008958FEF9FEF08959F
:10049000FC01918D228D892F90E0805C9F4F821B03
:1004A00091098F739927089586E696E00E94480285
:1004B00021E0892B09F420E0822F089580E090E06C
:1004C000892B29F00E94540281110C940000089598
:1004D000FC01A48DA80FB92FB11DA35ABF4F2C91B9
:1004E000848D90E001968F739927848FA689B789B0
:1004F0002C93A089B1898C91837080648C93938DA7
:10050000848D981306C00288F389E02D80818F7D49
:1005100080830895EF92FF920F931F93CF93DF9301
:10052000EC0181E0888F9B8D8C8D98131AC0E8892F
:10053000F989808185FF15C09FB7F894EE89FF89FE
:100540006083E889F98980818370806480839FBF9C
:1005500081E090E0DF91CF911F910F91FF90EF909C
:100560000895F62E0B8D10E00F5F1F4F0F731127AC
:10057000E02E8C8D8E110CC00FB607FCFACFE889E7
:10058000F989808185FFF5CFCE010E946802F1CF05
:10059000EB8DEC0FFD2FF11DE35AFF4FF0829FB75B
:1005A000F8940B8FEA89FB8980818062CFCFCF934B
:1005B000DF93EC01888D8823B9F0AA89BB89E8898B
:1005C000F9898C9185FD03C0808186FD0DC00FB631
:1005D00007FCF7CF8C9185FFF2CF808185FFEDCFAF
:1005E000CE010E946802E9CFDF91CF910895833058
:1005F00081F028F4813099F08230A9F00895873095
:10060000A9F08830C9F08430B1F4809180008F7DEA
:1006100003C0809180008F7780938000089584B517
:100620008F7784BD089584B58F7DFBCF8091B00016
:100630008F778093B00008958091B0008F7DF9CFBF
:100640001F93CF93DF93282F30E0F901E851FE4F3D
:100650008491F901EC52FE4FD491F901E054FE4F20
:10066000C491CC23A9F0162F81110E94F702EC2F20
:10067000F0E0EE0FFF1FEA54FE4FA591B4918FB743
:10068000F894EC91111108C0D095DE23DC938FBF54
:10069000DF91CF911F910895DE2BF8CFCF93DF9399
:1006A00090E0FC01EC52FE4F249180549E4FFC01DF
:1006B00084918823D1F090E0880F991FFC01E455C4
:1006C000FE4FA591B491FC01EA54FE4FC591D4911F
:1006D00061110EC09FB7F8948C91E22FE0958E23A4
:1006E0008C932881E223E8839FBFDF91CF91089507
:1006F0008FB7F894EC91E22BEC938FBFF6CF3FB716
:10070000F8948091DC059091DD05A091DE05B09113
:10071000DF0526B5A89B05C02F3F19F00196A11D46
:10072000B11D3FBFBA2FA92F982F8827BC01CD013B
:10073000620F711D811D911D42E0660F771F881F9A
:10074000991F4A95D1F708958F929F92AF92BF92C9
:10075000CF92DF92EF92FF924B015C010E947F03E8
:100760006B017C010E947F036C197D098E099F0932
:10077000683E734081059105A8F321E0821A910833
:10078000A108B10888EEC80E83E0D81EE11CF11C58
:1007900081149104A104B10429F7FF90EF90DF9038
:1007A000CF90BF90AF909F908F900895CF93DF939D
:1007B00080E480937C0080917A00806480937A004A
:1007C00080917A0086FDFCCF80917800C0917900FD
:1007D000DC2FC82F6FE070E080E090E00E94A4035F
:1007E00081E0C837D105CCF0CE01835891098F3410
:1007F000910590F0865991098336910588F08C58BF
:1008000091098F39910570F0CD5BD24080E0C33BF8
:10081000D10518F485E001C082E0DF91CF91089501
:1008200083E0FBCF84E0F9CF2FB7F8946091D8052F
:100830007091D9058091DA059091DB052FBF08955D
:100840008F929F92AF92BF92CF92DF92EF92FF92E0
:100850006B017C010E9414044B015C01C80CD91C83
:10086000EA1CFB1C0E941404681579058A059B0587
:1008700028F0C616D706E806F906A0F7FF90EF9015
:10088000DF90CF90BF90AF909F908F900895CF92C0
:10089000DF92EF92FF920F931F93811123C00E946A
:1008A0001404009105071091060720910707309165
:1008B0000807DC01CB01801B910BA20BB30B81322B
:1008C0009105A105B10570F401E210E020E030E0EF
:1008D00068017901C81AD90AEA0AFB0AC701B601F8
:1008E0000E9420040E941404609305077093060779
:1008F000809307079093080781E01F910F91FF9065
:10090000EF90DF90CF90089585ED8093BC008091AB
:10091000BC0084FDFCCF1092410608952091B405DF
:10092000260F3327331F21323105ECF42091410685
:10093000FC0190E080E0243069F082E00895A0910D
:10094000B4052191AC014C565A4FA40FB52FB11DDF
:100950002C930196861798F38091B405680F6093E5
:10096000B40580E0089581E00895E0911A06809131
:100970001906E81730F4F0E0E750FA4F808190E074
:1009800008958FEF9FEF0895CF92DF92EF92FF923D
:100990000F931F93CF93DF937C01CB018A012091AA
:1009A0004206222389F0EB016B01C40ED51ECC1543
:1009B000DD0569F06991D701ED91FC910190F0811D
:1009C000E02DC7010995F3CF642F0E948E04C80162
:1009D000DF91CF911F910F91FF90EF90DF90CF901B
:1009E0000895CF93DF931F92CDB7DEB7698320912F
:1009F00042062223F9F020916506203258F021E0CA
:100A000030E0FC013383228390E080E00F90DF919F
:100A1000CF91089580914306E82FF0E0EC5BF94F09
:100A2000998190838F5F809343068093650681E070
:100A300090E0ECCF61E0CE0101960E948E04F7CFEA
:100A4000682F89E497E00C94F104CF93C82F88E6CF
:100A50000E94AF0184E090E00E9420058C2F6AE0A4
:100A60000E944E1F8295807F682F690F89E497E06E
:100A70000E94F104CF910C94520190E080E008951F
:100A8000909141069111FCCF282F91E0909341065F
:100A9000909340063FEF30933F0610923E06380F8A
:100AA00030933D0690931C0690911C06906D909398
:100AB0001C0690911B06913019F510921B0690911F
:100AC0001C069093BB009091BC0093FDF8CF95EC71
:100AD0009093BC00909141069130E1F390913E06D5
:100AE000981710F420913E06ADE1B6E0E9EFF5E08D
:100AF00080E0821307C010921A06809319060895A9
:100B000095EEE6CF9D9191938F5FF3CF88E60E949B
:100B1000AF0183E090E00E9420050E94520181E035
:100B200090E00E9440050E94CC01982F92959F7002
:100B30008F702AE0929F800D1124089588E60E940C
:100B4000AF0184E090E00E9420050E94520181E004
:100B500090E00E9440050E94CC01982F92959F70D2
:100B60008F702AE0929F800D1124089588E60E94DC
:100B7000AF0185E090E00E9420050E94520181E0D3
:100B800090E00E9440050E94CC01982F991F992760
:100B9000991F9093F805982F929597708F702AE07F
:100BA000929F800D1124089588E60E94AF0186E08F
:100BB00090E00E9420050E94520181E090E00E9496
:100BC00040050E94CC01982F92959F708F702AE06B
:100BD000929F800D1124089588E60E94AF0181E064
:100BE00090E00E9420050E94520181E090E00E9466
:100BF00040050E94CC01982F92959F708F702AE03B
:100C0000929F800D1124089588E60E94AF0190E024
:100C100080E00E9420050E94520181E090E00E9445
:100C200040050E94CC01982F92959F708F702AE00A
:100C3000929F800D1124089588E60E94AF0182E002
:100C400090E00E9420050E94520181E090E00E9405
:100C500040050E94CC0121E0AC014074552786FF7D
:100C600020E02093F705282F22952F70382F3F7012
:100C7000452B61F085FB992790F99093F60521703B
:100C8000832F9AE0299F800D112408952370F8CFB7
:100C9000CF9388E60E94AF0187E090E00E94200594
:100CA0000E94520184E090E00E9440050E94CC0125
:100CB000282F22952770CAE0982F9F702C9F900DA7
:100CC00011249093F205881F8827881F9091F105C1
:100CD000892B8093F1050E94CC01382F3295377013
:100CE000282F2F703C9F200D11242093F30556E0F0
:100CF000959587955A95E1F782709091F105892B2A
:100D00008093F1050E94CC019C0165E03595279503
:100D10006A95E1F7322F34702091F105232B20934F
:100D2000F10521E0AC014074552786FF20E02093B7
:100D3000EF05382F32953F70282F2F70452B59F132
:100D400085FB882780F98093EE0531708AE0389F13
:100D5000200D11242093F4050E94CC019C0144E055
:100D6000359527954A95E1F7322F38702091F10596
:100D7000232B2093F10521E0AC014074552786FF19
:100D800020E02093F005282F2F70452B51F0209361
:100D9000F505CF91089533709AE0399F200D112405
:100DA000D9CF829583709AE0899F200D1124EFCFCF
:100DB00088E60E94AF018FE090E00E9420050E942B
:100DC000520181E090E00E9440050E94CC0108950C
:100DD000CF93DF93C82F0E94D806D82FC130C1F41B
:100DE000D170C82FCE7F88E60E94AF018FE090E0DF
:100DF0000E9420056C2F89E497E00E94F1040E9474
:100E0000520181E0D11101C080E0DF91CF910895BE
:100E1000D270C82FCD7FE7CF7F928F929F92AF92F3
:100E2000BF92CF92DF92EF92FF920F931F93CF93D7
:100E3000DF93EC016C0187E0C80ED11C560110E075
:100E400000E0E62EF12C60E00E151F0544F4F501DC
:100E500081915F010E944E030F5F1F4FF4CF8E817F
:100E60000E94200361E08E810E94200310E000E0D8
:100E7000812CAA24A394B12CF60121916F0130E0BA
:100E8000F901E851FE4F8491F901EC52FE4F949024
:100E9000F901E054FE4F749071101AC080E0882A66
:100EA0000F5F1F4F0E151F053CF360E08E810E94FF
:100EB0002003882DDF91CF911F910F91FF90EF902C
:100EC000DF90CF90BF90AF909F908F907F900895CC
:100ED00081110E94F702E72DF0E0EE0FFF1FEE55A3
:100EE000FE4FA591B491EC919E22C1F2C501002E56
:100EF00001C0880F0A94EAF7D2CFAF92BF92CF9287
:100F0000DF92EF92FF920F931F93CF93DF93EC0149
:100F10007C0110E000E0A42EB12CC62ED12C8FEF66
:100F2000E81AF80A0A151B05A4F461E0F7018681A6
:100F30000E944E03B601002E02C0759567950A9473
:100F4000E2F76170F70186810E9420030F5F1F4F57
:100F5000E6CF60E08E810E94200361E08E810E94D6
:100F6000200360E08E810E9420038BE891E00197CE
:100F7000F1F7DF91CF911F910F91FF90EF90DF90EC
:100F8000CF90BF90AF9008951F93CF93DF93EC0164
:100F9000162F642F8C810E9420038D818F3F19F0C2
:100FA00060E00E9420038F8548E084FD0CC0612F23
:100FB00070E084E0759567958A95E1F744E0CE018D
:100FC0000E947D0744E0612FCE01DF91CF911F91F8
:100FD0000C947D0740E00C94C407CF93DF938230DC
:100FE00029F490918E07986090938E0780939207D2
:100FF000109293078BE39DE00197F1F760E08091F9
:1010000083070E94200360E0809185070E942003EF
:10101000809184078F3F19F060E00E942003609167
:101020008E0764FD45C044E063E08FE797E00E94CF
:101030007D07CBE4D6E4CE010197F1F744E063E00D
:101040008FE797E00E947D072197F1F744E063E086
:101050008FE797E00E947D0783E592E00197F1F723
:1010600044E062E08FE797E00E947D0760918E0781
:1010700060628FE797E00E94EA0784E080938F0721
:101080006CE08FE797E00E94EA0761E08FE797E066
:101090000E94EA078BE39FE10197F1F782E08093DA
:1010A000900766E08FE797E0DF91CF910C94EA0715
:1010B00060628FE797E00E94EA078BE496E401976D
:1010C000F1F760918E0760628FE797E00E94EA0770
:1010D00083E592E00197F1F760918E0760628FE7F8
:1010E00097E00E94EA07C2CF0F931F93CF93DF933D
:1010F0008C01C62FDC0155968C915597813001F5F6
:1011000060E014968C910E942003F80185818F3F46
:1011100019F061E00E942003D8011F968C9184FF92
:101120001DC068E0C8010E940C078F7798EF980FE8
:101130009C3030F4885C682F6068C8010E94EA0720
:10114000C7FF3CC0C03CB8F0C05DF801C68B81E071
:1011500090E0DF91CF911F910F91089564E0C80155
:101160000E940C07D82FD295D07F64E0C8010E945E
:101170000C078D2BDACFEC2FEF73D80156966C91BC
:10118000611108C0E13069F441E062EAC8010E94DF
:10119000C407DDCF613029F4E13119F441E065EB9A
:1011A000F5CFE051FF0BB0E46B9FB0011124E60FC7
:1011B000F71FEE59FE4F649141E0E8CF41E06C2FFC
:1011C000E5CFCF93DF93CDB7DEB728970FB6F8946E
:1011D000DEBF0FBECDBF61E08FE797E00E94EA0758
:1011E0008BE39FE10197F1F740917D0750917E07D6
:1011F0006091790770917A078FE797E00E94E0018C
:1012000088E0E0E2F1E0DE01119601900D928A950E
:10121000E1F780919207823028F5815090E0880FA5
:10122000991F21E030E02C0F3D1F820F931FFC011E
:10123000608160688FE797E00E94EA074091770736
:101240005091780760917307709174078FE797E06A
:1012500028960FB6F894DEBF0FBECDBFDF91CF91B9
:101260000C94E00181E0DACF0F931F93CF93C82F46
:1012700080910001882321F00E94E1081092000172
:101280000E9414040091E7051091E8052091E905FA
:101290003091EA05601B710B820B930B6D3D75401D
:1012A0008105910570F0CF5F0E9414046093E705FB
:1012B0007093E8058093E9059093EA0581E08093B7
:1012C00000018C2FCF911F910F910895FC01019087
:1012D0000020E9F73197AF01481B590BBC0186E6A6
:1012E00096E00C94E0018F929F92AF92BF920F9381
:1012F0001F93CF93DF93CDB7DEB7A1970FB6F894C6
:10130000DEBF0FBECDBF19A2423008F44AE08E0105
:101310000F5D1F4F842E912CB12CA12CA50194019F
:101320000E94F51EE62FB901CA01EA30F4F4E05D2F
:10133000D801EE938D01232B242B252B79F790E0F8
:1013400080E0109719F0CD010E946609A1960FB6B2
:10135000F894DEBF0FBECDBFDF91CF911F910F91EB
:10136000BF90AF909F908F900895E95CE1CF8EE79A
:1013700091E00E94660985E891E00C946609CF929D
:10138000DF92EF92FF92CF93DF93C82F0E94140455
:101390006B017C0188E891E00E9466096C2F70E087
:1013A00090E080E04AE00E9473098FE891E00E949B
:1013B00066094AE0C701B6010E94730981E991E01C
:1013C0000E946609C3E0D7E08E819F81A885B98518
:1013D000A7019601281B390B4A0B5B0BCA01B90107
:1013E0004AE00E94730981E991E00E9466096E81DA
:1013F0007F8188859985CA84DB84EC84FD846C199F
:101400007D098E099F094AE0DF91CF91FF90EF900F
:10141000DF90CF900C9473090F931F93CF93DF93BA
:101420008C01EB01FC01808191810097E1F06881E2
:10143000798161157105A9F0428153812C813D812B
:101440004217530770F00E944B218C819D81F80157
:10145000958384831D821C82DF91CF911F910F9110
:1014600008950E94FC1F88819981F80191838083EF
:101470008A819B81938382838C819D8195838483E0
:10148000198218821B821A82E5CFCF93DF93EC0179
:1014900088819981009711F00E94FC1F198218829F
:1014A0001D821C821B821A82DF91CF910895FC015C
:1014B00080819181009711F00C94FC1F08950F9387
:1014C0001F93CF93DF93EC0188819981009759F0A6
:1014D0002A813B812617370730F081E0DF91CF91D9
:1014E0001F910F9108958B016F5F7F4F0E948520A0
:1014F000009759F0998388831B830A832C813D814F
:10150000232B59F7FC011082E8CF80E0E7CFEF9260
:10151000FF920F931F93CF93DF936115710541F4F1
:1015200080E0DF91CF911F910F91FF90EF90089590
:1015300041155105B1F07B01EC010C811D81040FB7
:10154000151FB8010E945F0A882351F32881398151
:101550008C819D81B701820F931F0E944B211D83B7
:101560000C8381E0DECFEF92FF920F931F93CF9316
:10157000DF93CDB7DEB728970FB6F894DEBF0FBE66
:10158000CDBF7C01CB014AE08E010F5F1F4FB80138
:101590000E948E1BF80101900020E9F73197AF01FE
:1015A000401B510BB801C7010E94870A28960FB64D
:1015B000F894DEBF0FBECDBFDF91CF911F910F9189
:1015C000FF90EF900895EF92FF920F931F93CF93A8
:1015D000DF9300D000D0CDB7DEB77C01862F4AE084
:1015E0008E010F5F1F4FB80190E00E948E1BF80123
:1015F00001900020E9F73197AF01401B510BB80172
:10160000C7010E94870A0F900F900F900F90DF91F3
:10161000CF911F910F91FF90EF9008956115710583
:1016200051F0FB0101900020E9F73197AF01461B13
:10163000570B0C94870A80E00895EF92FF920F9366
:101640001F93CF93DF93EC017B018A01BA010E94C3
:101650005F0A81110BC0CE010E94450ACE01DF91C5
:10166000CF911F910F91FF90EF9008951D830C83F0
:10167000B701888199810E944B21F0CFFC01118232
:101680001082138212821582148250E040E067E8D3
:1016900071E00C941D0BFB0101900020E9F73197DC
:1016A000AF01461B570B0C941D0B0F931F93CF9349
:1016B000DF93CDB7DEB729970FB6F894DEBF0FBE24
:1016C000CDBF8C01862FF801118210821382128205
:1016D000158214824AE0BE016F5F7F4F90E00E9446
:1016E000991BBE016F5F7F4FC8010E944B0B29966B
:1016F0000FB6F894DEBF0FBECDBFDF91CF911F9123
:101700000F910895CF93DF93EC01FB0186179707A4
:1017100049F0608171816115710541F04481558105
:101720000E941D0BCE01DF91CF9108950E94450AC2
:10173000F9CF1F920F920FB60F9211242F933F9360
:101740004F935F936F937F938F939F93AF93BF93C9
:10175000EF93FF9386E696E00E946802FF91EF9177
:10176000BF91AF919F918F917F916F915F914F91B9
:101770003F912F910F900FBE0F901F9018951F92C1
:101780000F920FB60F9211242F938F939F93EF9385
:10179000FF93E0917606F09177068081E0917C06D8
:1017A000F0917D0682FD1BC0908180917F068F5F46
:1017B0008F7320918006821741F0E0917F06F0E060
:1017C000EA59F94F958F80937F06FF91EF919F9192
:1017D0008F912F910F900FBE0F901F9018958081C1
:1017E000F4CF1F920F920FB60F9211242F933F93B5
:1017F0008F939F93AF93BF938091D8059091D90514
:10180000A091DA05B091DB053091D70523E0230FD5
:101810002D3758F50196A11DB11D2093D705809352
:10182000D8059093D905A093DA05B093DB05809194
:10183000DC059091DD05A091DE05B091DF050196F4
:10184000A11DB11D8093DC059093DD05A093DE05FD
:10185000B093DF05BF91AF919F918F913F912F91F1
:101860000F900FBE0F901F90189526E8230F029639
:10187000A11DB11DD2CF1F920F920FB60F9211244E
:101880002F933F934F935F936F937F938F939F9388
:10189000AF93BF93EF93FF938091B900887F803619
:1018A00009F44AC0F0F5883209F4A7C018F5803170
:1018B00009F49BC0B8F4882309F4F9C0883009F40E
:1018C00094C0FF91EF91BF91AF919F918F917F91C4
:1018D0006F915F914F913F912F910F900FBE0F909D
:1018E0001F901895883109F488C0803251F7809391
:1018F0003F0614C0803409F49DC040F48033B9F32E
:101900008833F9F680933F0685ECB0C0803509F442
:1019100085C0883509F496C0883499F60E948404FD
:10192000D0CF883909F48CC038F5883729F050F4C5
:10193000883611F0803729F683E0809341061092B3
:10194000D60557C0883809F47BC0803919F0803833
:1019500009F0B7CF8091D605803208F071C0E091D0
:10196000D60581E08E0F8093D6058091BB00F0E014
:10197000EA54FA4F80833DC0803B39F0E0F4803A6E
:1019800009F479C0883A09F09CCF84E0809341063D
:101990001092B5051092B405E091E205F091E305CF
:1019A00009958091B40581110FC081E08093B40541
:1019B0001092940509C0803C09F4A6CF883C09F434
:1019C000A3CF883B09F07DCFE091B50581E08E0F74
:1019D0008093B505F0E0EC56FA4F80818093BB0010
:1019E0009091B5058091B40529C080911C06809323
:1019F000BB0085EC8093BC0064CF90913E06809143
:101A00003D06981758F5E0913E0681E08E0F8093D1
:101A10003E06F0E0E35EF94F8081E9CFE0913E06BB
:101A200081E08E0F80933E068091BB00F0E0E35E84
:101A3000F94F808390913E0680913D069817C8F239
:101A400085E8D8CFE0913E0681E08E0F80933E0678
:101A50008091BB00F0E0E35EF94F80838091400607
:101A600081115CCF81E080931B0684EA8093BC00E7
:101A70001092410626CF85EC8093BC00109241065F
:101A80008091D605803230F4E091D605F0E0EA543A
:101A9000FA4F10826091D60570E0E091E005F09178
:101AA000E10586EB95E009951092D6050ACF1092D4
:101AB0003F0634CF109269061092680688EE93E0D4
:101AC000A0E0B0E080936A0690936B06A0936C064A
:101AD000B0936D0622E531E03093670620936606E9
:101AE00025EC30E0309373062093720624EC30E04E
:101AF000309375062093740620EC30E0309377061F
:101B00002093760621EC30E0309379062093780616
:101B100022EC30E030937B0620937A0626EC30E00E
:101B200030937D0620937C0610927F0610928006EB
:101B300010928106109282061092090710920A07ED
:101B400010920B0710920C0710920D0710920E07BF
:101B500010920F071092100710921107109212079F
:101B6000109213071092140710921507109216077F
:101B7000109217071092180710924C0710924B07FB
:101B800080934D0790934E07A0934F07B093500753
:101B900084E691E090934A07809349071092820768
:101BA0001092810786E791E09093800780937F07EA
:101BB00088E0809383078FEF8093840789E0809388
:101BC000850784E08093860785E08093870786E019
:101BD0008093880787E08093890710928A07109284
:101BE0008B0710928C0710928D0761E088E00E94AD
:101BF0004E03809184078F3F19F061E00E944E03ED
:101C000061E0809185070E944E0310928E0781E06B
:101C10000E94ED0789E797E00E943E0B83E797E07B
:101C20000E943E0B8DE697E00E943E0B87E697E010
:101C30000E943E0B81E697E00E943E0B8BE597E009
:101C40000E943E0B85E597E00C943E0BCF93DF930B
:101C5000CDB7DEB764970FB6F894DEBF0FBECDBF29
:101C6000789484B5826084BD84B5816084BD85B577
:101C7000826085BD85B5816085BD80916E00816083
:101C800080936E0010928100809181008260809329
:101C9000810080918100816080938100809180002B
:101CA0008160809380008091B10084608093B10056
:101CB0008091B00081608093B00080917A00846050
:101CC00080937A0080917A00826080937A0080917C
:101CD0007A00816080937A0080917A008068809396
:101CE0007A001092C1001092450710924607109298
:101CF00047071092480710920507109206071092A6
:101D000007071092080768EB7BE080E090E00E94F4
:101D1000200468EE73E080E090E00E94A4030E943B
:101D20002A010E94140460930507709306078093AC
:101D300007079093080783E991E00E9466096AE02B
:101D400070E080E090E00E94200411E010931907F9
:101D50000E942A0110921A06109219061092430648
:101D600010926506109241061093400610921B06D1
:101D700061E082E10E94200361E083E10E94200390
:101D80008091B9008E7F8093B9008091B9008D7FDA
:101D90008093B90088E48093B80085E48093BC0008
:101DA00085E192E09093E3058093E20586E192E07D
:101DB0009093E1058093E00582E00E94ED070E9488
:101DC000D6038093EC051093ED051092EB0588E6A1
:101DD0000E94AF0182E090E00E9420050E94520123
:101DE00081E090E00E9440050E94CC01182F88E617
:101DF0000E94AF0182E090E00E942005612F6F7B7E
:101E000089E497E00E94F1040E9452010E941404A8
:101E10006093E7057093E8058093E9059093EA05E0
:101E200064EF862E99249394A12CB12CEE24E39494
:101E30005AE0F52E0E948605282F2150330BF90118
:101E4000EE0FFF1FE05CFE4F608171818DE697E031
:101E50006115710509F413C10E944B0B0E949E0588
:101E60006BED71E08A3010F067E871E087E697E08B
:101E70000E944B0B0E949E05682F87E697E00E9408
:101E8000E30A6BED71E087E697E00E940E0B0E947B
:101E9000B605E82FF0E0EE0FFF1FE85DFE4F608112
:101EA000718187E697E00E940E0B64EA71E087E695
:101EB00097E00E940E0B0E94D4058A3030F466EA47
:101EC00071E087E697E00E940E0B0E94D405682F10
:101ED00087E697E00E94E30A67E871E081E697E011
:101EE0000E944B0B0E941C068A3030F466EA71E0B7
:101EF00081E697E00E940E0B0E941C06682F81E687
:101F000097E00E94E30A68EA71E081E697E00E94A8
:101F10000E0B0E94EC058A3030F466EA71E081E62F
:101F200097E00E940E0B0E94EC05682F81E697E077
:101F30000E94E30A60EB71E081E697E00E940E0BDD
:101F40000E9404068A3030F466EA71E081E697E088
:101F50000E940E0B0E940406682F81E697E00E9403
:101F6000E30A68EB71E081E697E00E940E0B6CEBF0
:101F700071E08BE597E00E944B0B88E60E94AF0171
:101F800081E190E00E9420050E94520182E090E0F1
:101F90000E9440059091190680911A06981709F43D
:101FA00071C00E94CC01182F0E94CC01D12EC12CEF
:101FB000B601682B26E0759567952A95E1F7072EFF
:101FC000000C880B990B0E94FC1D20E030E040E8DB
:101FD0005EE30E94371E8E010F5F1F4F22E044E038
:101FE0000E94701BFC0101900020E9F73197AF01BE
:101FF000481B590BBC018BE597E00E94870A809132
:10200000ED05823009F443C0833009F44EC08130BD
:1020100009F059C06DE677E089E797E00E94820BEE
:1020200067E677E083E797E00E94820B81E00E94F9
:1020300034098093ED050E94D6038093EC0584302B
:1020400009F044C09091EB059F5F9093EB05909150
:10205000EB05913009F058C0813009F455C08091EA
:10206000EC0584508230A8F50E94D6038093EC05DD
:1020700066E970E080E090E00E94A403F0CF0E9447
:10208000450AECCE60E07CE38CE196ECA4CF67E6F9
:1020900077E089E797E00E94820B61E677E083E7CB
:1020A00097E00E94820B82E0C2CF61E677E089E789
:1020B00097E00E94820B6BE577E083E797E00E9450
:1020C000820B83E0B4CFE092ED05B5CF1092EB0523
:1020D000BECF0E94860577247A94780E98E0592E18
:1020E000072D10E08091EC0584508230A8F50E9405
:1020F00086058150990B0817190709F069C080916E
:10210000EB058F5F8093EB058091EB05823009F042
:102110008AC08091EC05813009F485C00E941404C6
:102120006093E7057093E8058093E9059093EA05CD
:102130000E94D405182F8091EC058450823008F05D
:1021400063C00E94D6038093EC0566E970E080E0EE
:1021500090E00E94A403EFCFF801EE0FFF1FE05CB8
:10216000FE4F6081718189E797E061157105F9F093
:102170000E944B0B6BED71E083E797E00E944B0BE5
:1021800075100E94E1080E94D603682E8093EC052A
:1021900066E970E080E090E00E94A40332E0631200
:1021A00009C0772009F49CCF572C7A9499CF0E94CC
:1021B000450AE0CF83E0681207C095E0971508F460
:1021C0008FCF572C73948CCFE1E06E1289CF8FCFD5
:1021D0008091EC05853009F092CF739488E60E94D7
:1021E000AF0183E090E00E942005872D6F2D0E94B3
:1021F0004E1F8295807F682F690F89E497E00E94C7
:10220000F1040E9452017BCF01E08091EC058450E3
:10221000823038F50E94D4051813E4C08091EB0594
:102220008F5F8093EB058091EB05833009F005C14A
:102230008091EC05813009F400C10E94B605182F89
:102240008091EC058450823008F0E7C00E94D603EC
:102250008093EC0566E970E080E090E00E94A403C2
:10226000EFCF4090E7055090E8056090E905709049
:10227000EA05002309F46CC00E941404641975096E
:102280008609970901E0653F71408105910558F085
:102290000E9414046093E7057093E8058093E905B4
:1022A0009093EA0500E00E949E056BED71E08A3094
:1022B00010F067E871E089E797E00E944B0B0E94FD
:1022C0009E05682F89E797E00E94E30A6BED71E0B5
:1022D00089E797E00E940E0B0E94B605E82FF0E018
:1022E000EE0FFF1FE85DFE4F6081718189E797E087
:1022F0000E940E0B64EA71E089E797E00E940E0BE2
:102300001A3030F466EA71E089E797E00E940E0B1C
:10231000612F89E797E00E94E30A6BED71E083E7A4
:1023200097E00E944B0B0E94E1080E94D603782E92
:102330008093EC0566E970E080E090E00E94A403E1
:1023400033E0731243C0112309F45FCF11505DCF06
:102350000E94140464197509860997096837714049
:102360008105910558F00E9414046093E70570936D
:10237000E8058093E9059093EA0501E00E949E0537
:102380006BED71E08A3010F067E871E089E797E063
:102390000E944B0B0E949E05682F89E797E00E94E0
:1023A000E30A6BED71E089E797E00E940E0B0E9453
:1023B000B605E82FF0E0EE0FFF1FE85DFE4F6081ED
:1023C000718189E797E00E940E0BA7CF82E0781217
:1023D00005C0133608F019CF1F5F17CF91E07912AF
:1023E00014CF18CF8091EC05853009F017CF88E61F
:1023F0000E94AF0186E090E00E942005812F6F2DA2
:102400000E944E1F8295807F682F690F89E497E0B4
:102410000E94F1040E94520101CF04E68091EC0574
:102420008450823008F04BC00E94B605181303C1D7
:102430008091EB058F5F8093EB058091EB058430F5
:1024400009F026C18091EC05813009F421C10E9478
:10245000D405837009F005C12DE031E03093E50526
:102460002093E4050E949E05782E0091E4051091CA
:10247000E5050E94B605800F912F911DFC0180811A
:10248000871548F40E94B605800F912F911DFC011D
:1024900080810E9425050E949E05782E8091EC0582
:1024A0008450823008F0E4C00E94D6038093EC058B
:1024B00066E970E080E090E00E94A403EFCF4090D6
:1024C000E7055090E8056090E9057090EA05809175
:1024D0001901882309F470C00E9414046419750955
:1024E00086099709653F71408105910560F00E945A
:1024F00014046093E7057093E8058093E9059093D1
:10250000EA05109219010E949E056BED71E08A3078
:1025100010F067E871E089E797E00E944B0B0E949A
:102520009E05682F89E797E00E94E30A6BED71E052
:1025300089E797E00E940E0BE12FF0E0EE0FFF1FFE
:10254000E85DFE4F6081718189E797E00E940E0B84
:1025500064EA71E089E797E00E940E0B0E94D405BF
:102560008A3030F466EA71E089E797E00E940E0B4A
:102570000E94D405682F89E797E00E94E30A6BED7B
:1025800071E083E797E00E944B0B10130E94E10873
:102590000E94D6038093EC0566E970E080E090E04D
:1025A0000E94A4038091EC058330C9F5112309F43E
:1025B00035CF012F115032CF0E94140464197509D0
:1025C00086099709683771408105910560F00E947E
:1025D00014046093E7057093E8058093E9059093F0
:1025E000EA05E09219010E949E056BED71E08A30C8
:1025F00010F067E871E089E797E00E944B0B0E94BA
:102600009E05682F89E797E00E94E30A6BED71E071
:1026100089E797E00E940E0B64ED71E095CF823060
:1026200031F41B3008F0FACE012F1F5FF7CE813056
:1026300009F0F4CEF9CE88E60E94AF0185E090E083
:102640000E942005812F6F2D0E944E1F8295807F52
:10265000682F690F89E497E00E94F1040E945201FB
:10266000E7CE81E091E09093E5058093E405FACE12
:1026700064E6662E8091EC058450823088F50E94D5
:102680009E057812E2C08091EB058F5F8093EB0589
:102690008091EB05853009F0F4C08091EC05813024
:1026A00009F4EFC0CE0101960E943E0B67E871E08D
:1026B00083E797E00E944B0B0E94EC05182F809156
:1026C000EC058450823008F0C9C00E94D603809384
:1026D000EC0566E970E080E090E00E94A403EFCF93
:1026E00067E871E089E797E00E944B0B2090E705CF
:1026F0003090E8054090E9055090EA058091190175
:10270000882309F46DC00E941404621973098409B6
:102710009509653F71408105910560F00E941404A0
:102720006093E7057093E8058093E9059093EA05C7
:102730001092190129E0271530F06BED71E089E75F
:1027400097E00E944B0B672D89E797E00E94E30A10
:102750006BED71E089E797E00E940E0B0E94B605D1
:10276000E82FF0E0EE0FFF1FE85DFE4F6081718102
:1027700089E797E00E940E0B64EA71E089E797E031
:102780000E940E0B0E94D4058A3030F466EA71E094
:1027900089E797E00E940E0B0E94D405682F89E715
:1027A00097E00E94E30A6BED71E083E797E00E94F7
:1027B0004B0B76100E94E1080E94D603182F8093DD
:1027C000EC0566E970E080E090E00E94A40313301D
:1027D00029F581E0871508F04DCF672C7A944ACF10
:1027E0000E941404621973098409950968377140BD
:1027F0008105910560F00E9414046093E7057093D1
:10280000E8058093E9059093EA05E09219016AEDE5
:1028100071E089E797E00E944B0B9ACF123089F460
:102820000091E4051091E5050E94B605800F912FF7
:10283000911DFC018081781608F01CCF672C7394E1
:1028400019CF113009F016CF1ACF8091EC058530E1
:1028500009F019CF872D0E94250515CF04E6809138
:10286000EC0584508230A8F50E94EC051813E3C0F3
:102870008091EB058F5F8093EB05CE0101960E945E
:10288000570A8091EB05863009F003C18091EC0571
:10289000813009F4FEC0CE0101960E943E0B67E82C
:1028A00071E083E797E00E944B0B0E941C06182FF3
:1028B0008091EC058450823008F0D8C00E94D60385
:1028C0008093EC0566E970E080E090E00E94A4034C
:1028D000EFCF4090E7055090E8056090E9057090D3
:1028E000EA0580911901882309F479C00E94140433
:1028F0006419750986099709653F7140810591053D
:1029000060F00E9414046093E7057093E8058093DB
:10291000E9059093EA051092190166EA71E01A3010
:1029200010F067E871E0CE0101960E944B0B612F19
:10293000CE0101960E94E30A67E871E085E597E021
:102940000E944B0B0E941C068A3030F466EA71E04C
:1029500085E597E00E940E0B0E941C06682F85E516
:1029600097E00E94E30A61E971E085E597E00E9443
:102970000E0B4D815E8169817A8185E597E00E9429
:10298000870A61E971E085E597E00E940E0B0E94DD
:1029900004068A3030F466EA71E085E597E00E942B
:1029A0000E0B0E940406682F85E597E00E94E30A5B
:1029B00010130E94E1080E94D603782E8093EC0544
:1029C00066E970E080E090E00E94A40333E07312B7
:1029D00025C0112309F443CF012F115040CF0E948D
:1029E00014046419750986099709683771408105CF
:1029F000910568F00E9414046093E7057093E80560
:102A00008093E9059093EA05E092190195CF6AED6C
:102A100071E0CE0101960E944B0B8ECF82E07812BE
:102A200006C01B3308F01BCF012F1F5F18CF91E0AA
:102A3000791215CF19CF8091EC05853009F018CFA8
:102A400088E60E94AF0181E090E00E942005812F7E
:102A50006F2D0E944E1F8295807F682F690F89E439
:102A600097E00E94F1040E94520102CF04E6809197
:102A7000EC0584508230A8F50E941C061813E3C0B0
:102A80008091EB058F5F8093EB05CE0101960E944C
:102A9000570A8091EB05873009F02FC18091EC0532
:102AA000813009F42AC1CE0101960E943E0B67E8ED
:102AB00071E083E797E00E944B0B0E940406182FF9
:102AC0008091EC058450823008F066C10E94D603E4
:102AD0008093EC0566E970E080E090E00E94A4033A
:102AE000EFCF4090E7055090E8056090E9057090C1
:102AF000EA0580911901882309F479C00E94140421
:102B00006419750986099709653F7140810591052A
:102B100060F00E9414046093E7057093E8058093C9
:102B2000E9059093EA051092190166EA71E01A30FE
:102B300010F067E871E0CE0101960E944B0B612F07
:102B4000CE0101960E94E30A67E871E085E597E00F
:102B50000E944B0B4D815E8169817A8185E597E00A
:102B60000E94870A61E971E085E597E00E940E0BFB
:102B70000E94EC058A3030F466EA71E085E597E062
:102B80000E940E0B0E94EC05682F85E597E00E94DD
:102B9000E30A61E971E085E597E00E940E0B0E946F
:102BA00004068A3030F466EA71E085E597E00E9419
:102BB0000E0B0E940406682F85E597E00E94E30A49
:102BC00010130E94E1080E94D603782E8093EC0532
:102BD00066E970E080E090E00E94A40323E07212B6
:102BE00025C0112309F443CF012F115040CF0E947B
:102BF00014046419750986099709683771408105BD
:102C0000910568F00E9414046093E7057093E8054D
:102C10008093E9059093EA05E092190195CF6AED5A
:102C200071E0CE0101960E944B0B8ECF32E0731201
:102C300006C0173108F01BCF012F1F5F18CF81E0AE
:102C4000781215CF19CF8091EC05853009F018CF97
:102C500088E60E94AF0182E090E00E9420050E9479
:102C6000520181E090E00E9440050E94CC0186FF65
:102C700024C01D30C8F084EF810F6F2D0E944E1FBD
:102C8000182F1295107F190F106688E60E94AF0169
:102C900082E090E00E942005612F89E497E00E9485
:102CA000F1040E945201ECCE812F6F2D0E944E1F25
:102CB0008295807F182F190FE8CF812F6F2D0E94EA
:102CC0004E1F182F1295107F190F1F7BDECF80E04B
:102CD000012F182F8091EC058450823008F05EC0DF
:102CE0000E940406181306C18091EB058F5F809344
:102CF000EB05CE0101960E94570A8091EB058830C2
:102D000010F01092EB058091EC05813009F090C332
:102D10006DED71E089E797E00E944B0B81E00E9426
:102D2000E80668E072E0811102C064E272E089E7BF
:102D300097E00E940E0B82E00E94E80663EF71E0CC
:102D4000811102C06FE072E083E797E00E944B0BB5
:102D50000E94E10860ED77E080E090E00E94A4032B
:102D60000E9414042B013C014092E7055092E805B3
:102D70006092E9057092EA058091EC05813009F0D6
:102D8000E6C00E94D6038093EC0566E970E080E01F
:102D900090E00E94A403F0CF04E69CCF4090E705AA
:102DA0005090E8056090E9057090EA05809119015E
:102DB000882309F480C00E941404641975098609E7
:102DC0009709653F71408105910560F00E941404E8
:102DD0006093E7057093E8058093E9059093EA0511
:102DE0001092190166EA71E01A3010F067E871E09C
:102DF000CE0101960E944B0B612FCE0101960E94DD
:102E0000E30A67E871E085E597E00E944B0B0E94BA
:102E10001C068A3030F466EA71E085E597E00E948E
:102E20000E0B0E941C06682F85E597E00E94E30ABE
:102E300061E971E085E597E00E940E0B0E94EC05C8
:102E40008A3030F466EA71E085E597E00E940E0B67
:102E50000E94EC05682F85E597E00E94E30A61E98E
:102E600071E085E597E00E940E0B4D815E816981DE
:102E70007A8185E597E00E94870A10130E94E10895
:102E80000E94D603782E8093EC0566E970E080E01E
:102E900090E00E94A40323E0721609F418CF32E0F8
:102EA0008BE3731609F414CF81E0781609F418CF78
:102EB000812F102F0DCF0E94140464197509860903
:102EC0009709683771408105910568F00E941404E4
:102ED0006093E7057093E8058093E9059093EA0510
:102EE000E09219018ECF6AED71E0CE0101960E9449
:102EF0004B0B87CF8091EC05853009F0F5CE88E645
:102F00000E94AF0190E080E00E942005812F6F2D8C
:102F10000E944E1F8295807F682F690F89E497E099
:102F20000E94F1040E9452010E94D806182F88E6E0
:102F30000E94AF018FE090E00E942005612F6F7723
:102F400089E497E00E94F1040E945201CDCE0E94D4
:102F5000140464197509860997096D3D754081054A
:102F6000910508F497C01092E6050E94140460933E
:102F7000E7057093E8058093E9059093EA05E092F0
:102F800019018091EC058B7F813009F483C06DEDD0
:102F900071E089E797E00E944B0B81E00E94E80610
:102FA000682F70E089E797E00E94B30A6DE272E053
:102FB00083E797E00E944B0B82E00E94E806682FAF
:102FC00070E083E797E00E94B30A8091EC058230BD
:102FD000E1F5E092E6054090E7055090E805609045
:102FE000E9057090EA05809119018823D9F10E94C2
:102FF00014046419750986099709653F71408105B4
:103000009105C0F00E9414046093E7057093E805F1
:103010008093E9059093EA05109219018091E605E5
:103020008130C9F467E871E089E797E00E944B0BB3
:103030000E94E1080E94D6038093EC0566E970E0E7
:1030400080E090E00E94A4039CCF833021F682E0D0
:103050008093E605C0CF823059F767E871E083E7D7
:1030600097E0E4CF0E941404641975098609970952
:103070006837714081059105E8F20E94140460935D
:10308000E7057093E8058093E9059093EA05E092DF
:103090001901CECF8091E605813009F083C20E94EC
:1030A00048066091F1056F3009F452C0E8F46830C9
:1030B00011F198F4662309F44EC0CE0101960E94E6
:1030C000550BBE016F5F7F4F83E797E00E940C0AAC
:1030D000CE0101960E94570A1BC06C3099F16E30E8
:1030E00061F76EE572E010C06C3161F138F4603167
:1030F00061F1683111F762EB72E006C06E31F9F0F0
:103100006F31D9F663E472E083E797E00E944B0BDE
:103110000E94E1081092EC058091EC05813009F4E1
:10312000E9C1853009F4E3C10E94D6038093EC0520
:1031300066E970E080E090E00E94A403EDCF6DE5C9
:1031400072E0E2CF60E872E0DFCF6EEE72E0DCCFDB
:1031500068E373E0D9CF6091F505CE0101960E9436
:10316000550BBE016F5F7F4F89E797E00E940C0A05
:10317000CE0101960E94570A61E573E089E797E066
:103180000E940E0B6091F405CE0101960E94550B32
:10319000BE016F5F7F4F83E797E00E940C0ACE016C
:1031A00001960E94570A6EE573E083E797E00E945C
:1031B0000E0B6091F30583E797E00E94E30A60EB52
:1031C00071E083E797E00E940E0B6091F20583E7C0
:1031D00097E00E94E30A61E873E083E797E00E94CA
:1031E0000E0B96CF6C3029F16E3009F04DC269E2BA
:1031F00073E012C06C31E9F040F46031E9F06831FD
:1032000009F042C26BE673E007C06E3181F36F31A3
:1032100009F03AC264E472E083E797E00E944B0B46
:1032200066E970E080E090E00E94A4030E94E1085B
:1032300012C264E773E0F0CF68E873E089E797E0D3
:103240000E944B0BDFCF6EE973E0F8CF60ED77E0C3
:1032500080E090E00E94A4038092110790921207F0
:10326000A0921307B0921407109215071092160738
:1032700010921707109218078091090790910A077A
:10328000A0910B07B0910C0780930D0790930E0748
:10329000A0930F07B09310070E94140460930907CE
:1032A00070930A0780930B0790930C0780E00E94AD
:1032B0004704882389F082E00E94BF0989E693E0F1
:1032C0000E9466096091EB0570E090E080E04AE0C2
:1032D0000E9473090E94B70962E070E080E090E00C
:1032E0000E9420040E9414046093090770930A0747
:1032F00080930B0790930C078091E605823009F0CC
:1033000097C088E60E94AF018BE090E00E94200504
:103310000E94520183E090E00E9440050E94CC018F
:10332000382F32953770282F2F703F9D200D112494
:103330002093F30533E0959587953A95E1F78071F1
:103340009091F105892B8093F1050E94CC019C019D
:103350003595279535952795322F30722091F105B7
:10336000232B2093F10521E0AC014074552786FF03
:1033700020E02093EF05382F32953F70282F2F70D3
:10338000452B09F43FC085FB882780F98093EE0523
:1033900031703F9D200D11242093F4050E94CC0133
:1033A000BC017595679560742091F105622B60935F
:1033B000F10521E0AC014074552786FF20E0209301
:1033C000F005282F2F70452BF9F02093F505862F57
:1033D0008051990BFC01409708F079C0EE50F64EF1
:1033E0000C945A1F311A671A671A671A2B1A671A30
:1033F000281A0A1A2E1A671A671A671A2B1A671AD6
:10340000281A0A1A3370C5CF829583708F9D200DBC
:103410001124DBCF64EB73E083E797E00E944B0B52
:103420000E94E10860ED77E080E090E00E94A40354
:10343000E0E0F0E0EF2B11F40C941A0F0E9454021C
:10344000882311F40C94160F0E9400000C94160FA0
:103450006CEC73E0E1CF6CEE73E0DECF68E174E01A
:10346000DBCF67E871E089E797E00E944B0B609142
:10347000F505CE0101960E94550BBE016F5F7F4F8F
:1034800083E797E00E940C0ACE0101960E94570A3A
:103490006BE574E083E797E00E940E0B6091F40502
:1034A00083E797E00E94E30A68EA71E083E797E028
:1034B0000E940E0B6091F30583E797E00E94E30AF8
:1034C00066E674E083E797E00E940E0BA9CFCE0179
:1034D00001960E94550BBE016F5F7F4F83E797E017
:1034E0000E940C0ACE0101960E94570A99CFF8E07B
:1034F000F093EB051092EC0560ED77E080E090E052
:103500000E94A4038092110790921207A0921307C1
:10351000B092140710921507109216071092170711
:10352000109218078091090790910A07A0910B0744
:10353000B0910C0780930D0790930E07A0930F078F
:10354000B09310070E9414046093090770930A0750
:1035500080930B0790930C0780E00E944704882318
:1035600089F081E00E94BF0989E693E00E94660924
:103570006091EB0570E090E080E04AE00E94730902
:103580000E94B70962E070E080E090E00E942004B1
:103590000E9414046093090770930A0780930B0735
:1035A00090930C078091EB05883009F0A5CE0E941E
:1035B00048061092EC058092110790921207A09293
:1035C0001307B09214071092150710921607109265
:1035D0001707109218078091090790910A07A09188
:1035E0000B07B0910C0780930D0790930E07A093E3
:1035F0000F07B09310070E9414046093090770939B
:103600000A0780930B0790930C0780E00E94470401
:10361000882389F083E00E94BF0989E693E00E9435
:1036200066096091EC0570E090E080E04AE00E945D
:1036300073090E94B70962E070E080E090E00E94A8
:1036400020040E9414046093090770930A07809372
:103650000B0790930C078091EC058B7F813009F468
:10366000F5CD0E94D6038093EC056091F1056F3093
:1036700009F4D0CD08F0BECD683009F4C3CD08F010
:10368000B1CD662309F4DFCDCE0101960E94550B22
:10369000BE016F5F7F4F83E797E00E940C0ACE0167
:1036A00001960E94570ABCCD85E597E00E94570A13
:1036B0008BE597E00E94570A81E697E00E94570A3F
:1036C00087E697E00E94570A8DE697E00E94570A26
:1036D00083E797E00E94570A89E797E00C94570A1E
:1036E000EF920F931F93CF93DF93E80134E047FDF0
:1036F00034E1042E000C550B57FF03C05195419542
:103700005109E32E022F242FAE010E94B31BCE01DC
:10371000DF91CF911F910F91EF900895BB274A3011
:1037200031F4992322F4BDE2909581959F4F0C943A
:103730009A1BBB27FB015527AA27880F991FAA1F91
:10374000A41710F0A41B83955051B9F7A05DAA33BC
:1037500008F0A95DA193009779F7B111B193119287
:10376000CB010C94EA1DA9E0B0E0E9EBFBE10C947D
:103770001D1F6A01F22EB02E102FFBE3AF2EA016F4
:1037800008F41BE31F5F012F27E0AE014F5F5F4F7F
:103790000E94121DBC018981982F9970913009F403
:1037A0003FC09BE2E1FC04C09E2D9170E0FC3AC05A
:1037B0005E2D5071E82FE87083FF46C084E09111C0
:1037C00001C083E0EF2DE81B8F1508F0E0E0D60183
:1037D0008E2F20E2552351F1992329F0D6019C9395
:1037E000C60101966C0196012D5F3F4FE2FE24C099
:1037F0008EE4D6018C9391E411969C9311971296C6
:103800008C93D9018E2F90E281111BC0E20FF32F10
:10381000F11D10828EEF9FEF2996ECE00C94391F7A
:103820009DE2C6CF90E2C4CF2D9381508111FCCF91
:10383000CE0ED11CE0E0D0CF8EE6D6018C9391E67F
:10384000DBCF9D938150E0CF482F447082FF3DC075
:1038500084E0911101C083E08F1510F4EF2DE81B77
:10386000D6018E2F20E2552309F1992329F0D601A4
:103870009C93C60101966C0196012D5F3F4FE2FEBD
:103880001BC089E4D6018C938EE411968C9311971A
:1038900086E412968C93D9018E2F90E2882309F446
:1038A000B5CF9D938150FACF2D9381508111FCCFDC
:1038B000CE0ED11CE0E0D9CF89E6D6018C938EE6FE
:1038C00011968C93119786E6E4CF9B0177FF02C097
:1038D00030E020E0A1E0B0E0911102C0B0E0A0E053
:1038E000F9013196AE0FBF1F8B2C912CBB2009F430
:1038F00061C05401EFEFAE1ABE0AAA0DBB1DFA1645
:103900001B0619F014F04F2D4A1B511188C0E3FC1F
:1039100059C07601A42FB0E2A1114FC0C40ED11C32
:10392000992309F45BC040E0D6011196F60190831B
:103930006D01552309F448C0012F060F9A81582FB5
:10394000507184FF03C0913309F4015010160CF03C
:1039500047C0093008F008E0EEE2FE2E5B01A01A35
:10396000B10885019194819491082F3F320729F481
:10397000D601FC92F60131966F016217730794F13C
:10398000021713077CF5DB01A21BB30BAA24A39437
:10399000B12CAC0EBD1EAA0DBB1D11968C912150F1
:1039A0003109D601119628153905F4F0F601808306
:1039B0006D01DBCFB12CA12CA0CFF701B1937F011A
:1039C000A150AACF9111B0CFD601942F50E302C0DD
:1039D0005D9391509111FCCFC40ED11C40E0ACCF4F
:1039E00001E0BACF80E3DBCF6217730731F496337F
:1039F00088F4953311F4552369F0F6018083FD01B5
:103A0000842F90E2811108C0A40FB11D1C9290E098
:103A100080E002CF81E3F1CF91938150F3CF9111F8
:103A200083CF8ACF283008F027E03327DA01990FB7
:103A3000311D87FD916000966105710539F4326092
:103A40002E5F3D9330E32A95E1F708959F3F30F0D4
:103A500080387105610509F03C5F3C5F3D93913012
:103A600008F08068911DDF93CF931F930F93FF920F
:103A7000EF92192F987F9695E92F96959695E90FD5
:103A8000FF27EE53FF4F99273327EE24FF24A7018A
:103A9000E70105900894079428F4360FE71EF81EF6
:103AA000491F511D660F771F881F991F0694A1F7A4
:103AB0000590079428F4E70EF81E491F561FC11DF4
:103AC000770F881F991F661F0694A1F7059007942A
:103AD00028F4F80E491F561FC71FD11D880F991FC4
:103AE000661F771F0694A1F70590079420F4490FED
:103AF000561FC71FD81F990F661F771F881F069470
:103B0000A9F784911095177041F0D695C7955795F0
:103B10004795F794E7941A95C1F7E8E6F0E06894C2
:103B20001590159135916591959105907FE273956A
:103B3000E118F10A430B560BC90BD009C0F7E10C91
:103B4000F11E431F561FC91FD01D7EF4703311F4A0
:103B50008A95E6CFE894015030F0080F0AF4002768
:103B6000021708F4202F2395022F7A3328F079E3E7
:103B70007D932A95E9F710C07D932A9589F60694DE
:103B800097956795379517951794E118F10A430BA8
:103B9000560BC90BD00998F023957E9173957A3313
:103BA00008F070E37C932013B8F77E9170617D93E9
:103BB00030F0839571E37D9370E32A95E1F711244A
:103BC000EF90FF900F911F91CF91DF91992787FD83
:103BD00090950895DC01FC01672F71917723E1F73F
:103BE000329704C07C916D9370836291AE17BF07CA
:103BF000C8F30895E89409C097FB3EF4909580952A
:103C0000709561957F4F8F4F9F4F9923A9F0F92FA2
:103C100096E9BB279395F695879577956795B79520
:103C2000F111F8CFFAF4BB0F11F460FF1BC06F5F06
:103C30007F4F8F4F9F4F16C0882311F096E911C018
:103C4000772321F09EE8872F762F05C0662371F039
:103C500096E8862F70E060E02AF09A95660F771F4D
:103C6000881FDAF7880F9695879597F908950E942F
:103C70004A1E0C94BB1E0E94AD1E38F00E94B41E5A
:103C800020F0952311F00C94A41E0C94AA1E11246C
:103C90000C94EF1E0E94CC1E70F3959FC1F3950FFC
:103CA00050E0551F629FF001729FBB27F00DB11DC0
:103CB000639FAA27F00DB11DAA1F649F6627B00D50
:103CC000A11D661F829F2227B00DA11D621F739F39
:103CD000B00DA11D621F839FA00D611D221F749F47
:103CE0003327A00D611D231F849F600D211D822F8E
:103CF000762F6A2F11249F5750409AF0F1F08823B5
:103D00004AF0EE0FFF1FBB1F661F771F881F9150E1
:103D10005040A9F79E3F510580F00C94A41E0C94CE
:103D2000EF1E5F3FE4F3983ED4F386957795679551
:103D3000B795F795E7959F5FC1F7FE2B880F911D0B
:103D40009695879597F9089597F99F6780E870E0B1
:103D500060E008959FEF80EC089500240A94161601
:103D6000170618060906089500240A941216130669
:103D7000140605060895092E0394000C11F48823F7
:103D800052F0BB0F40F4BF2B11F460FF04C06F5F13
:103D90007F4F8F4F9F4F089557FD9058440F551FE9
:103DA00059F05F3F71F04795880F97FB991F61F0BD
:103DB0009F3F79F087950895121613061406551F34
:103DC000F2CF4695F1DF08C0161617061806991FA0
:103DD000F1CF86957105610508940895E894BB2795
:103DE00066277727CB0197F90895A1E21A2EAA1B1F
:103DF000BB1BFD010DC0AA1FBB1FEE1FFF1FA2179B
:103E0000B307E407F50720F0A21BB30BE40BF50B97
:103E1000661F771F881F991F1A9469F76095709520
:103E2000809590959B01AC01BD01CF0108952F9223
:103E30003F924F925F926F927F928F929F92AF923A
:103E4000BF92CF92DF92EF92FF920F931F93CF9387
:103E5000DF93CDB7DEB7CA1BDB0B0FB6F894DEBF1E
:103E60000FBECDBF09942A88398848885F846E8444
:103E70007D848C849B84AA84B984C884DF80EE808E
:103E8000FD800C811B81AA81B981CE0FD11D0FB697
:103E9000F894DEBF0FBECDBFED010895991B79E008
:103EA00004C0991F961708F0961B881F7A95C9F7CA
:103EB00080950895EE0FFF1F0590F491E02D099471
:103EC0000F931F93CF93DF938230910510F482E01C
:103ED00090E0E0919807F091990730E020E0B0E0A1
:103EE000A0E0309799F42115310509F44AC0281B48
:103EF000390B24303105D8F58A819B816115710514
:103F000089F1FB0193838283FE0111C040815181BD
:103F10000281138148175907E0F04817590799F4AF
:103F2000109761F012960C93129713961C93329689
:103F3000CF01DF91CF911F910F91089500939807C2
:103F400010939907F4CF2115310551F0421753070B
:103F500038F0A901DB019A01BD01DF01F801C1CFF1
:103F6000EF01F9CF9093990780939807CDCFFE0189
:103F7000E20FF31F819391932250310939832883F3
:103F8000D7CF2091960730919707232B41F42091AA
:103F90001C0130911D0130939707209396072091C3
:103FA0001A0130911B012115310541F42DB73EB79F
:103FB00040911E0150911F01241B350BE091960783
:103FC000F0919707E217F307A0F42E1B3F0B281779
:103FD000390778F0AC014E5F5F4F2417350748F082
:103FE0004E0F5F1F509397074093960781939193CD
:103FF0009FCFF0E0E0E09CCFCF93DF930097E9F014
:10400000FC01329713821282A0919807B091990710
:10401000ED0130E020E01097A1F420813181820F82
:10402000931F20919607309197072817390709F0B9
:1040300061C0F0939707E0939607DF91CF910895C1
:10404000EA01CE17DF07E8F54A815B819E01411541
:104050005105B1F7E901FB83EA8349915991C40FF6
:10406000D51FEC17FD0761F4808191810296840FC2
:10407000951FE90199838883828193819B838A8339
:10408000F0E0E0E012968D919C9113970097B9F5BE
:104090002D913C911197CD010296820F931F209193
:1040A0009607309197072817390739F6309751F559
:1040B0001092990710929807B0939707A0939607CC
:1040C000BCCFD383C28340815181840F951FC81711
:1040D000D90761F44E5F5F4F88819981480F591F5E
:1040E000518340838A819B8193838283211531058B
:1040F00009F0B0CFF0939907E09398079ECFFD01A8
:10410000DC01C0CF13821282D7CFB0E0A0E0EBE891
:10411000F0E20C94191F8C01009751F4CB010E941E
:10412000601F8C01C801CDB7DEB7E0E10C94351FEC
:10413000FC01E60FF71F9C0122503109E217F3073B
:1041400008F49DC0D901CD91DC911197C617D7070E
:1041500098F0C530D10530F3CE0104978617970744
:1041600008F3C61BD70B2297C193D1936D937C9311
:10417000CF010E94FC1FD6CF5B01AC1ABD0A4C01D7
:104180008C0E9D1EA0919807B0919907512C412C3F
:10419000F12CE12C109731F58091960790919707BB
:1041A0008815990509F05CC04616570608F058C0F6
:1041B00080911A0190911B01009741F48DB79EB731
:1041C00040911E0150911F01841B950BE817F907C0
:1041D00008F055C0F0939707E0939607F9017183B3
:1041E0006083A0CF8D919C91119712966C9012973D
:1041F00013967C901397A815B90559F56C0142E008
:10420000C40ED11CCA14DB0420F1AC014A195B09AD
:10421000DA011296159780F062827382518340838F
:10422000D9016D937C93E114F10471F0D7011396D9
:10423000FC93EE93129776CF22968C0F9D1FF90177
:1042400091838083F301EFCFF0939907E093980770
:1042500069CF4816590608F42C017D01D3019ACF85
:10426000CB010E94601F7C01009749F0AE01B801AC
:104270000E944221C8010E94FC1F870153CF10E019
:1042800000E050CFFB01DC0102C001900D924150D3
:104290005040D8F70895FB01DC0101900D920020F9
:1042A000E1F7089511E0CFEFD0E004C0FE010E94D5
:0E42B0005A1F2196C030D107C9F7F894FFCFEE
:1042BE00011F1C1F1E1F1E1F1F1E1F1E1F1F1D1F27
:1042CE001E1F1E1F1F1E1F1E1F0100009A078000AB
:1042DE0000004000140054006D047C048C049A0409
:1042EE00A904B504C204CF04DF04F00400050F05D1
:1042FE001F0536054D055C0567057605850500002D
:10430E0000008A02E0011702D702480226023A0292
:10431E0000000000F104C4043D050D020E02B901B7
:10432E00B504000000007408E0013D05DF015F5692
:10433E004D445045000D0A00564D4450455F003A1D
:10434E00323A00564D4450565F317C315F564D44E3
:10435E0050560A0020323000D187D0B0D1812000D3
:10436E00D0BCD0B8D0BD2000D1812E00D0A2D0B507
:10437E00D0BCD0BFD0B5D180D0B0D182D183D180C6
:10438E00D0B02000202020202020202000D091D14D
:10439E0083D0B4D0B8D0BBD18CD0BDD0B8D0BA20D9
:1043AE00312000D091D183D0B4D0B8D0BBD18CD035
:1043BE00BDD0B8D0BA203220D0B2D0BAD0BB00D047
:1043CE0091D183D0B4D0B8D0BBD18CD0BDD0B8D021
:1043DE00BA203220D0B2D18BD0BAD0BB00D091D17E
:1043EE0083D0B4D0B8D0BBD18CD0BDD0B8D0BA2089
:1043FE0032200020D0A0D0B0D0B720D0B220D181B2
:10440E00D0B5D0BAD183D0BDD0B4D1830020D18164
:10441E00D0BED0B2D0BFD0B0D0B4D0B5D0BDD0B851
:10442E00D0B520D181D0B5D0BAD183D0BDD0B40013
:10443E00D181D0BED0B2D0BFD0B0D0B4D0B5D0BD67
:10444E00D0B8D0B520D0BCD0B8D0BDD183D182D118
:10445E008B2C20D181D0B5D0BAD183D0BDD0B4D1E0
:10446E008B00D181D0BED0B2D0BFD0B0D0B4D0B539
:10447E00D0BDD0B8D0B520D187D0B0D181D18B2CC2
:10448E0020D0BCD0B8D0BDD183D182D18B2C20D13D
:10449E0081D0B5D0BAD183D0BDD0B4D18B00D1816B
:1044AE00D0BED0B2D0BFD0B0D0B4D0B5D0BDD0B8C1
:1044BE00D0B520D0BDD0B5D0B4D0B5D0BBD18F2C17
:1044CE0020D187D0B0D181D18B2C20D0BCD0B8D008
:1044DE00BDD183D182D18B2C20D181D0B5D0BAD190
:1044EE0083D0BDD0B4D18B00D180D0B0D0B720D086
:1044FE00B220D181D0B5D0BAD183D0BDD0B4D183C2
:10450E000020D187D0B8D181D0BBD0B02000D187C8
:10451E00D0B0D18120D0B820007C00D187D0B0D1CE
:10452E0081D18B20D0BCD0B8D0BDD183D182D18BDC
:10453E0020D181D0B5D0BA00D094D0B5D0BDD18C19
:10454E0020D0BDD0B5D0B4D0B5D0BBD0B800D094AB
:10455E00D0B5D0BDD18C20D0BCD0B5D181D18FD12A
:10456E0086D0B00020D0A0D0B0D0B720D0B220D00E
:10457E00BCD0B8D0BDD183D182D18300D181D0BE81
:10458E00D0B2D0BFD0B0D0B4D0B5D0BDD0B8D0B5E9
:10459E0020D0BCD0B8D0BDD183D18200D181D0BEC5
:1045AE00D0B2D0BFD0B0D0B4D0B5D0BDD0B8D0B5C9
:1045BE0020D187D0B0D181D18B2C20D0BCD0B8D017
:1045CE00BDD183D182D18B00D181D0BED0B2D0BF2C
:1045DE00D0B0D0B4D0B5D0BDD0B8D0B520D0B4D036
:1045EE00B5D0BDD18C20D0BDD0B5D0B4D0B5D0BB58
:1045FE00D0B82C20D187D0B0D181D18B2C20D0BC7B
:10460E00D0B8D0BDD183D182D18B0020D0B4D0B55B
:10461E00D0BDD18C2000D0BCD0B8D0BD00D0AFD092
:10462E00BDD0B2D0B0D180D18F202000D0A4D0B5D3
:10463E00D0B2D180D0B0D0BBD18F2000D09CD0B022
:10464E00D180D182D0B020202000D090D0BFD18098
:10465E00D0B5D0BBD18F202000D09CD0B0D18F2030
:10466E002020202000D098D18ED0BDD18F202020A8
:10467E002000D098D18ED0BBD18F2020202000D00A
:10468E0090D0B2D0B3D183D181D182D0B02000D01E
:10469E00A1D0B5D0BDD182D18FD0B1D180D18F0074
:1046AE00D09ED0BAD182D18FD0B1D180D18F2000FF
:1046BE00D09DD0BED18FD0B1D180D18F202000D04F
:1046CE0094D0B5D0BAD0B0D0B1D180D18F2000D097
:1046DE0092D0BED181D0BAD180D0B5D181D0B5D053
:1046EE00BDD18CD0B500D09FD0BED0BDD0B5D0B48A
:1046FE00D0B5D0BBD18CD0BDD0B8D0BA00D092D16D
:10470E0082D0BED180D0BDD0B8D0BA00D0A1D180D9
:10471E00D0B5D0B4D0B000D0A7D0B5D182D0B2D061
:10472E00B5D180D0B300D09FD18FD182D0BDD0B8BB
:10473E00D186D0B000D0A1D183D0B1D0B1D0BED16E
:04474E0082D0B00065
:107E0000112484B714BE81FFF0D085E080938100F7
:107E100082E08093C00088E18093C10086E0809377
:107E2000C20080E18093C4008EE0C9D0259A86E02C
:107E300020E33CEF91E0309385002093840096BBD3
:107E4000B09BFECF1D9AA8958150A9F7CC24DD24C4
:107E500088248394B5E0AB2EA1E19A2EF3E0BF2EE7
:107E6000A2D0813461F49FD0082FAFD0023811F036
:107E7000013811F484E001C083E08DD089C08234E0
:107E800011F484E103C0853419F485E0A6D080C0E4
:107E9000853579F488D0E82EFF2485D0082F10E0AE
:107EA000102F00270E291F29000F111F8ED06801E7
:107EB0006FC0863521F484E090D080E0DECF843638
:107EC00009F040C070D06FD0082F6DD080E0C81688
:107ED00080E7D80618F4F601B7BEE895C0E0D1E017
:107EE00062D089930C17E1F7F0E0CF16F0E7DF06D8
:107EF00018F0F601B7BEE89568D007B600FCFDCFD4
:107F0000A601A0E0B1E02C9130E011968C91119780
:107F100090E0982F8827822B932B1296FA010C0160
:107F200087BEE89511244E5F5F4FF1E0A038BF0790
:107F300051F7F601A7BEE89507B600FCFDCF97BE46
:107F4000E89526C08437B1F42ED02DD0F82E2BD052
:107F50003CD0F601EF2C8F010F5F1F4F84911BD097
:107F6000EA94F801C1F70894C11CD11CFA94CF0C13
:107F7000D11C0EC0853739F428D08EE10CD085E9AC
:107F80000AD08FE07ACF813511F488E018D01DD067
:107F900080E101D065CF982F8091C00085FFFCCF94
:107FA0009093C60008958091C00087FFFCCF809118
:107FB000C00084FD01C0A8958091C6000895E0E648
:107FC000F0E098E1908380830895EDDF803219F02E
:107FD00088E0F5DFFFCF84E1DECF1F93182FE3DFCA
:107FE0001150E9F7F2DF1F91089580E0E8DFEE27F6
:047FF000FF270994CA
:027FFE00040479
:0400000300007E007B
:00000001FF