:100000000C9400010C9428010C9428010C942801F4
:100010000C9428010C9428010C9428010C942801BC
:100020000C9428010C9428010C9428010C942801AC
:100030000C9428010C9428010C9428010C9428019C
:100040000C94040C0C9428010C94D20B0C94AC0B63
:100050000C9428010C9428010C9428010C9428017C
:100060000C944E0C0C94280100407A10F35A00A016
:10007000724E18090010A5D4E80000E87648170071
:1000800000E40B54020000CA9A3B000000E1F505B1
:10009000000080969800000040420F000000A086FB
:1000A00001000000102700000000E803000000002D
:1000B0006400000000000A000000000001000000D1
:1000C00000002C76D888DC674F0823DFC1DFAE59EB
:1000D000E1B1B796E5E3E453C63AE651997696E87E
:1000E000E6C28426EB898C9B62ED407C6FFCEFBC02
:1000F0009C9F40F2BAA56FA5F490055A2AF75C932D
:100100006B6CF9676DC11BFCE0E40D47FEF520E662
:10011000B500D0ED902E0300943577050080841E45
:10012000080000204E0A000000C80C333333330FA0
:10013000986E12831141EF8D2114893BE65516CF3D
:10014000FEE6DB18D1844B381BF77C1D901DA4BB49
:10015000E424203284725E228100C9F124ECA1E5FE
:100160003D2741A042A1E045A3A4A5A64BA74D4829
:100170004FA8504354A9AA58E1ABACE2ADAE62AF70
:10018000B0B161B2B3B4E365B6B7B8B9BABBBCBD80
:100190006FBE7063BF79E478E5C0C1E6C2C3C4C571
:1001A000C6C7000000002300260029000000000050
:1001B000240027002A0000000000250028002B0052
:1001C00004040404040404040202020202020303FD
:1001D0000303030301020408102040800102040805
:1001E0001020010204081020000000080002010095
:1001F0000003040700000000000000006D0D771DE3
:1002000011241FBECFEFD8E0DEBFCDBF26E0A4EBA8
:10021000B4E001C01D92AB3BB207E1F714E0A0E0EF
:10022000B1E0E4E0F7E402C005900D92A43BB10711
:10023000D9F710E0CFEFD0E004C02197FE010E9473
:100240007D21CE3FD107C9F70E94390E0C9475234A
:100250000C940000E7E8F5E0A089B18982E08C9376
:10026000A485B5851C92A685B7858FEC8C93108EDE
:10027000A489B58986E08C93A289B3898C91806129
:100280008C93A289B3898C9188608C93A289B3895D
:100290008C9180688C930288F389E02D80818F7D1A
:1002A000808308952091860581E0213208F044C0C2
:1002B000809162058111FCCF8091850592E0909339
:1002C000620591E0909361059FEF90936005109215
:1002D0005F0520935E05A5E6B5E0EEE3F5E090E06E
:1002E000291331C010923D0590913D05880F892B4F
:1002F00080933D0580913C05813049F510923C0585
:1003000080913D058093BB008091BC0083FDF8CFB8
:1003100085EC8093BC00809162058230E1F380918E
:1003200060058F3FB1F0809160058032A1F080912F
:100330006005803391F084E0109264051092860588
:100340001092630508953D9131939F5FC9CF85EE6B
:10035000E0CF80E0F1CF82E0EFCF83E0EDCF91E01E
:10036000909363058093850510926405109286052D
:10037000089590913B0580913A052FEF3FEF981734
:1003800048F4E92FF0E0E65EFA4F208130E09F5F0D
:1003900090933B05C901089590913B0580913A05E2
:1003A0002FEF3FEF981748F4E92FF0E0E65EFA4FA1
:1003B000208130E09F5F90933B05C9010895089527
:1003C000AF92BF92CF92DF92EF92FF920F931F9363
:1003D000CF93DF936C017B018B01040F151FEB01A1
:1003E0005E01AE18BF08C017D10759F06991D60158
:1003F000ED91FC910190F081E02DC6010995892BCA
:1004000079F7C501DF91CF911F910F91FF90EF9088
:10041000DF90CF90BF90AF900895089580913A05F6
:1004200090913B05891B990B089508950895FC014F
:10043000538D448D252F30E0842F90E0821B930B49
:10044000541710F0CF96089501970895FC01918DEF
:10045000828D981761F0A28DAE0FBF2FB11D5D96F2
:100460008C91928D9F5F9F73928F90E008958FEF94
:100470009FEF0895FC01918D828D981731F0828D48
:10048000E80FF11D858D90E008958FEF9FEF08959F
:10049000FC01918D228D892F90E0805C9F4F821B03
:1004A00091098F739927089587E895E00E94480283
:1004B00021E0892B09F420E0822F089580E090E06C
:1004C000892B29F00E94540281110C940000089598
:1004D000FC01A48DA80FB92FB11DA35ABF4F2C91B9
:1004E000848D90E001968F739927848FA689B789B0
:1004F0002C93A089B1898C91837080648C93938DA7
:10050000848D981306C00288F389E02D80818F7D49
:1005100080830895EF92FF920F931F93CF93DF9301
:10052000EC0181E0888F9B8D8C8D98131AC0E8892F
:10053000F989808185FF15C09FB7F894EE89FF89FE
:100540006083E889F98980818370806480839FBF9C
:1005500081E090E0DF91CF911F910F91FF90EF909C
:100560000895F62E0B8D10E00F5F1F4F0F731127AC
:10057000E02E8C8D8E110CC00FB607FCFACFE889E7
:10058000F989808185FFF5CFCE010E946802F1CF05
:10059000EB8DEC0FFD2FF11DE35AFF4FF0829FB75B
:1005A000F8940B8FEA89FB8980818062CFCFCF934B
:1005B000DF93EC01888D8823B9F0AA89BB89E8898B
:1005C000F9898C9185FD03C0808186FD0DC00FB631
:1005D00007FCF7CF8C9185FFF2CF808185FFEDCFAF
:1005E000CE010E946802E9CFDF91CF910895833058
:1005F00081F028F4813099F08230A9F00895873095
:10060000A9F08830C9F08430B1F4809180008F7DEA
:1006100003C0809180008F7780938000089584B517
:100620008F7784BD089584B58F7DFBCF8091B00016
:100630008F778093B00008958091B0008F7DF9CFBF
:100640001F93CF93DF93282F30E0F901E851FE4F3D
:100650008491F901EC52FE4FD491F901E054FE4F20
:10066000C491CC23A9F0162F81110E94F702EC2F20
:10067000F0E0EE0FFF1FEA54FE4FA591B4918FB743
:10068000F894EC91111108C0D095DE23DC938FBF54
:10069000DF91CF911F910895DE2BF8CFCF93DF9399
:1006A00090E0FC01EC52FE4F249180549E4FFC01DF
:1006B00084918823D1F090E0880F991FFC01E455C4
:1006C000FE4FA591B491FC01EA54FE4FC591D4911F
:1006D00061110EC09FB7F8948C91E22FE0958E23A4
:1006E0008C932881E223E8839FBFDF91CF91089507
:1006F0008FB7F894EC91E22BEC938FBFF6CF3FB716
:10070000F8948091FC049091FD04A091FE04B091B6
:10071000FF0426B5A89B05C02F3F19F00196A11D27
:10072000B11D3FBFBA2FA92F982F8827BC01CD013B
:10073000620F711D811D911D42E0660F771F881F9A
:10074000991F4A95D1F708958F929F92AF92BF92C9
:10075000CF92DF92EF92FF924B015C010E947F03E8
:100760006B017C010E947F036C197D098E099F0932
:10077000683E734081059105A8F321E0821A910833
:10078000A108B10888EEC80E83E0D81EE11CF11C58
:1007900081149104A104B10429F7FF90EF90DF9038
:1007A000CF90BF90AF909F908F900895CF93DF939D
:1007B00080E480937C0080917A00806480937A004A
:1007C00080917A0086FDFCCF80917800C0917900FD
:1007D000DC2FC82F6FE070E080E090E00E94A4035F
:1007E00081E0C837D105C4F0CE01835891098F3418
:1007F0009105A8F0865991098336910590F08C589F
:1008000091098F39910578F088519140833B91058A
:1008100060F0C538D3405CF4DF91CF91089582E059
:10082000FBCF83E0F9CF84E0F7CF85E0F5CF80E020
:10083000F3CF2FB7F8946091F8047091F904809188
:10084000FA049091FB042FBF08958F929F92AF926C
:10085000BF92CF92DF92EF92FF926B017C010E94D8
:1008600019044B015C01C80CD91CEA1CFB1C0E943A
:100870001904681579058A059B0528F0C616D70660
:10088000E806F906A0F7FF90EF90DF90CF90BF90B9
:10089000AF909F908F900895CF92DF92EF92FF924A
:1008A0000F931F93811123C00E9419040091260603
:1008B000109127062091280630912906DC01CB01F2
:1008C000801B910BA20BB30B81329105A105B105E1
:1008D00070F401E210E020E030E068017901C81A0C
:1008E000D90AEA0AFB0AC701B6010E9425040E9440
:1008F0001904609326067093270680932806909328
:10090000290681E01F910F91FF90EF90DF90CF902B
:10091000089585ED8093BC008091BC0084FDFCCFE0
:100920001092620508952091D404260F3327331FB7
:1009300021323105ECF420916205FC0190E080E069
:10094000243069F082E00895A091D4042191AC0193
:100950004C545B4FA40FB52FB11D2C9301968617F5
:1009600098F38091D404680F6093D40480E00895D4
:1009700081E00895E0913B0580913A05E81730F455
:10098000F0E0E65EFA4F808190E008958FEF9FEFF0
:100990000895CF92DF92EF92FF920F931F93CF9320
:1009A000DF937C01CB018A0120916305222389F02A
:1009B000EB016B01C40ED51ECC15DD0569F0699104
:1009C000D701ED91FC910190F081E02DC7010995CF
:1009D000F3CF642F0E949304C801DF91CF911F9140
:1009E0000F91FF90EF90DF90CF900895CF93DF931A
:1009F0001F92CDB7DEB76983209163052223F9F0FA
:100A000020918605203258F021E030E0FC0133834C
:100A1000228390E080E00F90DF91CF910895809144
:100A20006405E82FF0E0EB59FA4F998190838F5FCE
:100A3000809364058093860581E090E0ECCF61E0CF
:100A4000CE0101960E949304F7CF682F8AE696E0C4
:100A50000C94F604CF93C82F88E60E94AF0184E07F
:100A600090E00E9425058C2F6AE00E9471218295FA
:100A7000807F682F690F8AE696E00E94F604CF9186
:100A80000C94520190E080E00895909162059111DC
:100A9000FCCF282F91E090936205909361053FEF82
:100AA0003093600510925F05380F30935E05909388
:100AB0003D0590913D05906D90933D0590913C05CD
:100AC000913019F510923C0590913D059093BB0033
:100AD0009091BC0093FDF8CF95EC9093BC00909161
:100AE00062059130E1F390915F05981710F4209121
:100AF0005F05AEE3B5E0EAE1F5E080E0821307C010
:100B000010923B0580933A05089595EEE6CF9D91AE
:100B100091938F5FF3CF88E60E94AF0183E090E06E
:100B20000E9425050E94520181E090E00E94450547
:100B30000E94CC01982F92959F708F702AE0929F0F
:100B4000800D1124089588E60E94AF0184E090E0B2
:100B50000E9425050E94520181E090E00E94450517
:100B60000E94CC01982F92959F708F702AE0929FDF
:100B7000800D1124089588E60E94AF0185E090E081
:100B80000E9425050E94520181E090E00E944505E7
:100B90000E94CC01982F991F9927991F90931905AE
:100BA000982F929597708F702AE0929F800D112454
:100BB000089588E60E94AF0186E090E00E94250536
:100BC0000E94520181E090E00E9445050E94CC0104
:100BD000982F92959F708F702AE0929F800D11241C
:100BE000089588E60E94AF0181E090E00E9425050B
:100BF0000E94520181E090E00E9445050E94CC01D4
:100C0000982F92959F708F702AE0929F800D1124EB
:100C1000089588E60E94AF0190E080E00E942505DB
:100C20000E94520181E090E00E9445050E94CC01A3
:100C3000982F92959F708F702AE0929F800D1124BB
:100C4000089588E60E94AF0182E090E00E942505A9
:100C50000E94520181E090E00E9445050E94CC0173
:100C600021E0AC014074552786FF20E02093180551
:100C7000282F22952F70382F3F70452B61F085FB70
:100C8000992790F9909317052170832F9AE0299F57
:100C9000800D112408952370F8CF88E60E94AF01DB
:100CA0008FE090E00E9425050E94520181E090E0D3
:100CB0000E9445050E94CC010895CF93DF93C82F71
:100CC0000E944D06D82FC130C1F4D170C82FCE7FFD
:100CD00088E60E94AF018FE090E00E9425056C2F0E
:100CE0008AE696E00E94F6040E94520181E0D1114A
:100CF00001C080E0DF91CF910895D270C82FCD7FE1
:100D0000E7CF7F928F929F92AF92BF92CF92DF9266
:100D1000EF92FF920F931F93CF93DF93EC016C013F
:100D200087E0C80ED11C560110E000E0E62EF12C41
:100D300060E00E151F0544F4F50181915F010E94EA
:100D40004E030F5F1F4FF4CF8E810E94200361E09E
:100D50008E810E94200310E000E0812CAA24A3943D
:100D6000B12CF60121916F0130E0F901E851FE4FFD
:100D70008491F901EC52FE4F9490F901E054FE4F3A
:100D8000749071101AC080E0882A0F5F1F4F0E15F3
:100D90001F053CF360E08E810E942003882DDF91C7
:100DA000CF911F910F91FF90EF90DF90CF90BF9068
:100DB000AF909F908F907F90089581110E94F702CD
:100DC000E72DF0E0EE0FFF1FEE55FE4FA591B49119
:100DD000EC919E22C1F2C501002E01C0880F0A9439
:100DE000EAF7D2CFAF92BF92CF92DF92EF92FF920B
:100DF0000F931F93CF93DF93EC017C0110E000E091
:100E0000A42EB12CC62ED12C8FEFE81AF80A0A15A1
:100E10001B05A4F461E0F70186810E944E03B60130
:100E2000002E02C0759567950A94E2F76170F7018C
:100E300086810E9420030F5F1F4FE6CF60E08E8106
:100E40000E94200361E08E810E94200360E08E8179
:100E50000E9420038BE891E00197F1F7DF91CF9199
:100E60001F910F91FF90EF90DF90CF90BF90AF90C8
:100E700008951F93CF93DF93EC01162F642F8C817D
:100E80000E9420038D818F3F19F060E00E942003B3
:100E90008F8548E084FD0CC0612F70E084E075957B
:100EA00067958A95E1F744E0CE010E94F20644E09E
:100EB000612FCE01DF91CF911F910C94F20640E09B
:100EC0000C943907CF93DF93823029F49091AF06C9
:100ED00098609093AF068093B3061092B4068BE3AC
:100EE0009DE00197F1F760E08091A4060E94200345
:100EF00060E08091A6060E9420038091A5068F3FA6
:100F000019F060E00E9420036091AF0664FD45C0C7
:100F100044E063E080EA96E00E94F206CBE4D6E487
:100F2000CE010197F1F744E063E080EA96E00E9489
:100F3000F2062197F1F744E063E080EA96E00E9430
:100F4000F20683E592E00197F1F744E062E080EA7F
:100F500096E00E94F2066091AF06606280EA96E039
:100F60000E945F0784E08093B0066CE080EA96E020
:100F70000E945F0761E080EA96E00E945F078BE3D2
:100F80009FE10197F1F782E08093B10666E080EA85
:100F900096E0DF91CF910C945F07606280EA96E063
:100FA0000E945F078BE496E40197F1F76091AF062A
:100FB000606280EA96E00E945F0783E592E0019715
:100FC000F1F76091AF06606280EA96E00E945F07E9
:100FD000C2CF0F931F93CF93DF938C01C62FDC01F9
:100FE00055968C915597813001F560E014968C915F
:100FF0000E942003F80185818F3F19F061E00E9473
:101000002003D8011F968C9184FF1DC068E0C801A1
:101010000E9481068F7798EF980F9C3030F4885C9F
:10102000682F6068C8010E945F07C7FF3CC0C03CD2
:10103000B8F0C05DF801C68B81E090E0DF91CF9100
:101040001F910F91089564E0C8010E948106D82F76
:10105000D295D07F64E0C8010E9481068D2BDACF43
:10106000EC2FEF73D80156966C91611108C0E130F6
:1010700069F441E062EAC8010E943907DDCF6130BE
:1010800029F4E13119F441E065EBF5CFE051FF0BB4
:10109000B0E46B9FB0011124E60FF71FEE59FE4F2D
:1010A000649141E0E8CF41E06C2FE5CFEF92FF92F1
:1010B0000F931F93CF93DF93CDB7DEB728970FB66B
:1010C000F894DEBF0FBECDBF7C018B0161E080EAEA
:1010D00096E00E945F078BE39FE10197F1F7F7012C
:1010E000448155816081718180EA96E00E94E0012F
:1010F00088E0E2E2F1E0DE01119601900D928A951E
:10110000E1F78091B306823030F5815090E0880F8E
:10111000991F21E030E02C0F3D1F820F931FFC012F
:101120006081606880EA96E00E945F07F801448170
:1011300055816081718180EA96E028960FB6F89417
:10114000DEBF0FBECDBFDF91CF911F910F91FF90FA
:10115000EF900C94E00181E0D9CFFC0101900020D8
:10116000E9F73197AF01481B590BBC0187E895E0BF
:101170000C94E0018F929F92AF92BF920F931F93B6
:10118000CF93DF93CDB7DEB7A1970FB6F894DEBF4C
:101190000FBECDBF19A2423008F44AE08E010F5DA8
:1011A0001F4F842E912CB12CA12CA50194010E94DB
:1011B0001821E62FB901CA01EA30F4F4E05DD80144
:1011C000EE938D01232B242B252B79F790E080E0E3
:1011D000109719F0CD010E94AD08A1960FB6F894B2
:1011E000DEBF0FBECDBFDF91CF911F910F91BF909A
:1011F000AF909F908F900895E95CE1CF682F70E0E9
:1012000090E080E04AE00C94BA080C94AD08CF92CC
:10121000DF92EF92FF92CF93DF93C82F0E941904C1
:101220006B017C0180E891E00E9405098C2F0E94EF
:10123000FE0887E891E00E9405094AE0C701B6016F
:101240000E94BA088AE893E00E940509C4E2D6E049
:101250008E819F81A885B985A7019601281B390B2E
:101260004A0B5B0BCA01B9014AE00E94BA088AE83E
:1012700093E00E9405096E817F8188859985CA84E3
:10128000DB84EC84FD846C197D098E099F094AE09A
:10129000DF91CF91FF90EF90DF90CF900C94BA0840
:1012A0008BE891E00E94AD0882E991E00C94AD08D2
:1012B000CF93DF93EC01809194069091950600976F
:1012C000E9F06881798161157105B1F04091960668
:1012D000509197062C813D814217530768F00E9478
:1012E0006E238C819D8190939906809398061D8230
:1012F0001C82DF91CF9108950E941F2288819981DD
:1013000090939506809394068A819B81909397068B
:10131000809396068C819D81909399068093980680
:10132000198218821B821A82E2CFCF93DF93EC01DD
:1013300088819981009711F00E941F2219821882DA
:101340001D821C821B821A82DF91CF910895FC01BD
:1013500080819181009711F00C941F2208950F93C2
:101360001F93CF93DF93EC0188819981009759F007
:101370002A813B812617370730F081E0DF91CF913A
:101380001F910F9108958B016F5F7F4F0E94A822DC
:10139000009759F0998388831B830A832C813D81B0
:1013A000232B59F7FC011082E8CF80E0E7CFEF92C2
:1013B000FF920F931F93CF93DF936115710541F453
:1013C00080E0DF91CF911F910F91FF90EF900895F2
:1013D00041155105B1F07B01EC010C811D81040F19
:1013E000151FB8010E94AF09882351F32881398164
:1013F0008C819D81B701820F931F0E946E231D83F4
:101400000C8381E0DECFEF92FF920F931F93CF9377
:10141000DF93CDB7DEB728970FB6F894DEBF0FBEC7
:10142000CDBF7C01CB014AE08E010F5F1F4FB80199
:101430000E94B11DF80101900020E9F73197AF013A
:10144000401B510BB801C7010E94D70928960FB65F
:10145000F894DEBF0FBECDBFDF91CF911F910F91EA
:10146000FF90EF900895EF92FF920F931F93CF9309
:10147000DF9300D000D0CDB7DEB77C01862F4AE0E5
:101480008E010F5F1F4FB80190E00E94B11DF8015F
:1014900001900020E9F73197AF01401B510BB801D3
:1014A000C7010E94D7090F900F900F900F90DF9106
:1014B000CF911F910F91FF90EF90089561157105E5
:1014C00051F0FB0101900020E9F73197AF01461B75
:1014D000570B0C94D70980E00895EF92FF920F9379
:1014E0001F93CF93DF93EC017B018A01BA010E9425
:1014F000AF0981110BC0CE010E949509CE01DF9189
:10150000CF911F910F91FF90EF9008951D830C8351
:10151000B701888199810E946E23F0CFFC0111826E
:101520001082138212821582148250E040E064E936
:1015300071E00C946D0AFB0101900020E9F73197EE
:10154000AF01461B570B0C946D0A0F931F93CF935B
:10155000DF93CDB7DEB729970FB6F894DEBF0FBE85
:10156000CDBF8C01862FF801118210821382128266
:10157000158214824AE0BE016F5F7F4F90E00E94A7
:10158000BC1DBE016F5F7F4FC8010E949B0A299658
:101590000FB6F894DEBF0FBECDBFDF91CF911F9184
:1015A0000F910895CF93DF93EC01FB018617970706
:1015B00049F0608171816115710541F04481558167
:1015C0000E946D0ACE01DF91CF9108950E94950986
:1015D000F9CFFC01118210821382128215821482CB
:1015E0000C94D20ACF93DF93CDB7DEB72C970FB60A
:1015F000F894DEBF0FBECDBF65E971E08AE996E0E1
:101600000E949B0A81E00E945D066BEA71E08111F5
:1016100002C062EB71E08AE996E00E945E0A6BEB21
:1016200071E084E996E00E949B0A82E00E945D06D8
:101630006BEA71E0811102C062EB71E084E996E02F
:101640000E945E0A64E976E0CE0107960E94E90AEC
:101650006AE976E0CE0101960E94E90ABE01695F5F
:101660007F4FCE0101960E945608CE0101960E943E
:10167000A709CE0107960E94A70960ED77E080E0F8
:1016800090E00E94A4032C960FB6F894DEBF0FBE24
:10169000CDBFDF91CF910895CF92DF92EF92FF926D
:1016A0001F93CF93DF93CDB7DEB72C970FB6F89487
:1016B000DEBF0FBECDBF182F7B01809100018823B4
:1016C000D9F0BA01CE0107960E94E90AB701CE010E
:1016D00001960E94E90ABE01695F7F4FCE01019623
:1016E0000E945608CE0101960E94A709CE010796D6
:1016F0000E94A709109200010E941904C0901005D1
:10170000D0901105E0901205F09013056C197D0939
:101710008E099F096D3D75408105910570F01F5F31
:101720000E941904609310057093110580931205AF
:101730009093130581E080930001812F2C960FB6C2
:10174000F894DEBF0FBECDBFDF91CF911F91FF9008
:10175000EF90DF90CF9008951F920F920FB60F92E7
:1017600011242F933F934F935F936F937F938F93A6
:101770009F93AF93BF93EF93FF9387E895E00E9409
:101780006802FF91EF91BF91AF919F918F917F91EF
:101790006F915F914F913F912F910F900FBE0F90DE
:1017A0001F9018951F920F920FB60F9211242F932E
:1017B0008F939F93EF93FF93E0919705F091980596
:1017C0008081E0919D05F0919E0582FD1BC0908176
:1017D0008091A0058F5F8F732091A105821741F042
:1017E000E091A005F0E0E957FA4F958F8093A005AE
:1017F000FF91EF919F918F912F910F900FBE0F90BE
:101800001F9018958081F4CF1F920F920FB60F9200
:1018100011242F933F938F939F93AF93BF93809106
:10182000F8049091F904A091FA04B091FB0430916E
:10183000F70423E0230F2D3758F50196A11DB11DA4
:101840002093F7048093F8049093F904A093FA048A
:10185000B093FB048091FC049091FD04A091FE04E0
:10186000B091FF040196A11DB11D8093FC049093DB
:10187000FD04A093FE04B093FF04BF91AF919F912C
:101880008F913F912F910F900FBE0F901F90189541
:1018900026E8230F0296A11DB11DD2CF1F920F92F1
:1018A0000FB60F9211242F933F934F935F936F9333
:1018B0007F938F939F93AF93BF93EF93FF93809109
:1018C000B900887F803609F44AC0F0F5883209F4FF
:1018D000A7C018F5803109F49BC0B8F4882309F437
:1018E000F9C0883009F494C0FF91EF91BF91AF9196
:1018F0009F918F917F916F915F914F913F912F9128
:101900000F900FBE0F901F901895883109F488C072
:10191000803251F78093600514C0803409F49DC073
:1019200040F48033B9F38833F9F68093600585EC91
:10193000B0C0803509F485C0883509F496C0883474
:1019400099F60E948904D0CF883909F48CC038F503
:10195000883729F050F4883611F0803729F683E073
:10196000809362051092F60457C0883809F47BC052
:10197000803919F0803809F0B7CF8091F6048032B1
:1019800008F071C0E091F60481E08E0F8093F604B8
:101990008091BB00F0E0EA52FB4F80833DC0803B6A
:1019A00039F0E0F4803A09F479C0883A09F09CCF24
:1019B00084E0809362051092D5041092D404E091E3
:1019C0000205F091030509958091D40481110FC09F
:1019D00081E08093D4041092B40409C0803C09F4DF
:1019E000A6CF883C09F4A3CF883B09F07DCFE091D6
:1019F000D50481E08E0F8093D504F0E0EC54FB4FCA
:101A000080818093BB009091D5048091D40429C03B
:101A100080913D058093BB0085EC8093BC0064CF32
:101A200090915F0580915E05981758F5E0915F05EC
:101A300081E08E0F80935F05F0E0E25CFA4F8081D9
:101A4000E9CFE0915F0581E08E0F80935F05809183
:101A5000BB00F0E0E25CFA4F808390915F058091DB
:101A60005E059817C8F285E8D8CFE0915F0581E060
:101A70008E0F80935F058091BB00F0E0E25CFA4F2F
:101A800080838091610581115CCF81E080933C056A
:101A900084EA8093BC001092620526CF85EC809387
:101AA000BC00109262058091F604803230F4E0911F
:101AB000F604F0E0EA52FB4F10826091F60470E009
:101AC000E0910005F091010586ED94E009951092F2
:101AD000F6040ACF1092600534CF10928A05109256
:101AE000890588EE93E0A0E0B0E080938B059093A9
:101AF0008C05A0938D05B0938E0524E531E03093DD
:101B000088052093870525EC30E0309394052093D9
:101B1000930524EC30E0309396052093950520EC56
:101B200030E0309398052093970521EC30E0309316
:101B30009A052093990522EC30E030939C05209380
:101B40009B0526EC30E030939E0520939D05109276
:101B5000A0051092A1051092A2051092A305109263
:101B60002A0610922B0610922C0610922D06109227
:101B70002E0610922F061092300610923106109207
:101B800032061092330610923406109235061092E7
:101B900036061092370610923806109239061092C7
:101BA0006D0610926C0680936E0690936F06A0935C
:101BB0007006B093710686E691E090936B06809371
:101BC0006A061092A3061092A20688E791E090930D
:101BD000A1068093A00688E08093A4068FEF8093EF
:101BE000A50689E08093A60684E08093A70685E099
:101BF0008093A80686E08093A90687E08093AA06D2
:101C00001092AB061092AC061092AD061092AE0682
:101C100061E088E00E944E038091A5068F3F19F095
:101C200061E00E944E0361E08091A6060E944E038F
:101C30001092AF0681E00E9462078AE996E00E9456
:101C40008E0A84E996E00E948E0A8EE896E00E9451
:101C50008E0A88E896E00E948E0A82E896E00E944A
:101C60008E0A8CE796E00E948E0A86E796E00C9436
:101C70008E0ACF93DF93CDB7DEB7A0970FB6F89457
:101C8000DEBF0FBECDBF789484B5826084BD84B5BD
:101C9000816084BD85B5826085BD85B5816085BD67
:101CA00080916E00816080936E001092810080911F
:101CB00081008260809381008091810081608093A7
:101CC0008100809180008160809380008091B100CC
:101CD00084608093B1008091B00081608093B000F7
:101CE00080917A00846080937A0080917A0082608B
:101CF00080937A0080917A00816080937A0080914D
:101D00007A00806880937A001092C1001092660673
:101D100010926706109268061092690610922606C5
:101D200010922706109228061092290668EB7BE095
:101D300080E090E00E94250468EE73E080E090E08F
:101D40000E94A4030E942A010E941904609326069F
:101D500070932706809328069093290681ED91E0E1
:101D60000E9405096AE070E080E090E00E9425048E
:101D700011E010933A060E942A0110923B0510923E
:101D80003A05109264051092860510926205109330
:101D9000610510923C0561E082E10E94200361E050
:101DA00083E10E9420038091B9008E7F8093B90067
:101DB0008091B9008D7F8093B90088E48093B8004A
:101DC00085E48093BC0085E192E0909303058093C5
:101DD000020586E192E0909301058093000582E080
:101DE0000E9462070E94D603809315051093160582
:101DF0001092140588E60E94AF0182E090E00E94F4
:101E000025050E94520181E090E00E9445050E9454
:101E1000CC01182F88E60E94AF0182E090E00E947A
:101E20002505612F6F7B8AE696E00E94F6040E94EA
:101E300052010E941904609310057093110580935C
:101E40001205909313055DE0252E51E0352E64EFC9
:101E5000862E99249394A12CB12CEE24E3944AE08D
:101E6000F42E0E948B05282F2150330BF901EE0F21
:101E7000FF1FEE5BFE4F608171818EE896E0611579
:101E8000710509F421C10E949B0A0E94A30569E122
:101E900072E08A3010F064E971E088E896E00E9410
:101EA0009B0A0E94A305682F88E896E00E94330AE7
:101EB00069E172E088E896E00E945E0A0E94BB0534
:101EC000E82FF0E0EE0FFF1FE65DFE4F60817181AD
:101ED00088E896E00E945E0A62EE71E088E896E08B
:101EE0000E945E0A0E94D9058A3030F464EE71E0E7
:101EF00088E896E00E945E0A0E94D905682F88E86B
:101F000096E00E94330A64E971E082E896E00E945C
:101F10009B0A0E9421068A3030F464EE71E082E868
:101F200096E00E945E0A0E942106682F82E896E0F1
:101F30000E94330A66EE71E082E896E00E945E0A33
:101F40000E94F1058A3030F464EE71E082E896E098
:101F50000E945E0A0E94F105682F82E896E00E94C6
:101F6000330A6EEE71E082E896E00E945E0A0E94FB
:101F700009068A3030F464EE71E082E896E00E944F
:101F80005E0A0E940906682F82E896E00E94330AE2
:101F900066EF71E082E896E00E945E0A6AEF71E007
:101FA0008CE796E00E949B0A88E60E94AF0181E1DF
:101FB00090E00E9425050E94520182E090E00E947C
:101FC000450590913A0580913B05981709F47FC02B
:101FD0000E94CC01182F0E94CC01D12EC12CB60139
:101FE000682B96E0759567959A95E1F7072E000C9A
:101FF000880B990B0E941F2020E030E040E85EE350
:102000000E945A208E010F5F1F4F22E044E00E9481
:10201000931DFC0101900020E9F73197AF01481BA7
:10202000590BBC018CE796E00E94D70980911605F8
:10203000823009F451C0833009F46CC0813009F05A
:102040007DC068E876E0C8010E94E90A6EE876E0A3
:10205000CE0145960E94E90AA801BE016B5E7F4F42
:1020600081E00E944C0B80931605CE0145960E949C
:10207000A709C8010E94A7090E94D60380931505ED
:10208000843009F05EC0909114059F5F9093140511
:1020900090911405913009F074C0813009F471C039
:1020A00038E030930705809115058450823008F0A0
:1020B0004BC00E94D6038093150566E970E080E06E
:1020C00090E00E94A403EFCF0E949509DECE60E06D
:1020D0007CE38CE196EC96CF62E876E0CE01019647
:1020E0000E94E90A68E876E0CE0145960E94E90A76
:1020F000AE014F5F5F4FBE016B5E7F4F82E00E947B
:102100004C0B80931605CE0145960E94A709CE017F
:102110000196B0CF6CE776E0CE0101960E94E90A05
:1021200062E876E0CE0145960E94E90AAE014F5F73
:102130005F4FBE016B5E7F4F83E0E1CFE0921605FB
:102140009BCF10921405A4CF0E948B0581508093E1
:10215000060510910605E12FF0E0809115058450E9
:102160008230E8F5109106050E948B058150990B8D
:102170001817190609F08DC0809114058F5F8093A0
:10218000140580911405823009F044C18091150531
:10219000813009F43FC184E6809307050E94190449
:1021A00060931005709311058093120590931305A9
:1021B000E0921B010E94D9058093060580911505C8
:1021C0008450823008F015C10E94D6038093150513
:1021D00066E970E080E090E00E94A403EFCFEE0F8C
:1021E000FF1FEE5BFE4F608171818AE996E0611509
:1021F000710509F440C00E949B0A69E172E084E91C
:1022000096E00E949B0A809107058117D9F064E946
:1022100076E0CE0101960E94E90A6AE976E0CE01F5
:1022200045960E94E90ABE016F5F7F4FCE01459639
:102230000E945608CE0145960E94A709CE0101963C
:102240000E94A7090E94D603182F8093150566E9FE
:1022500070E080E090E00E94A403809106051230B7
:1022600069F49FEF882309F474CF980F90930605C3
:10227000809307056ECF0E949509BFCF133029F4D4
:10228000863008F066CF91E0F0CF113009F061CFD1
:1022900069CF80911505853009F06ECF1F5F88E604
:1022A0000E94AF0183E090E00E942505812F6F2DF1
:1022B0000E9471218295807F682F690F8AE696E0DF
:1022C0000E94F6040E94520157CF40901005509092
:1022D0001105609012057090130580911B018823F1
:1022E00009F4BAC00E94190464197509860997098E
:1022F000653F71408105910560F00E94190460936B
:102300001005709311058093120590931305109298
:102310001B010E94A30569E172E08A3010F064E9B4
:1023200071E08AE996E00E949B0A0E94A305682F4B
:102330008AE996E00E94330A69E172E08AE996E050
:102340000E945E0A0E94BB05E82FF0E0EE0FFF1F1F
:10235000E65DFE4F608171818AE996E00E945E0A27
:1023600062EE71E08AE996E00E945E0A109106052D
:102370001A3030F464EE71E08AE996E00E945E0A59
:10238000612F8AE996E00E94330A69E172E084E9EC
:1023900096E00E949B0A64E976E0CE0101960E94D5
:1023A000E90A6AE976E0CE0145960E94E90ABE0193
:1023B0006F5F7F4FCE0145960E945608CE0145962D
:1023C0000E94A709CE0101960E94A7090E94D60388
:1023D000182F8093150566E970E080E090E00E9478
:1023E000A403133009F077C0809106059FEF811197
:1023F0007AC0809115058450823008F066CF0E9423
:10240000D90510910605811378C0809114058F5F5E
:102410008093140580911405833009F036C18091B2
:102420001505813009F431C184E6809307050E94C7
:10243000BB0580930605809115058450823008F015
:1024400013C10E94D6038093150566E970E080E011
:1024500090E00E94A403EFCF0E941904641975094B
:1024600086099709683771408105910560F00E94DF
:1024700019046093100570931105809312059093D1
:102480001305E0921B010E94A30569E172E08A3006
:1024900010F064E971E08AE996E00E949B0A0E94CC
:1024A000A305682F8AE996E00E94330A69E172E089
:1024B0008AE996E00E945E0A0E94BB05E82FF0E0E0
:1024C000EE0FFF1FE65DFE4F608171818AE996E0A5
:1024D0000E945E0A5ACF123061F48091060583365D
:1024E00008F087CF91E0980F909306058093070539
:1024F00080CF113009F07DCF82CF809115058530D6
:1025000009F083CF88E60E94AF0186E090E00E9448
:102510002505812F6F2D0E9471218295807F682F64
:10252000690F8AE696E00E94F6040E9452016DCF80
:1025300040901005509011056090120570901305A1
:1025400080911B01882309F4E4C00E9419046419D6
:10255000750986099709653F71408105910560F00D
:102560000E94190460931005709311058093120561
:102570009093130510921B010E94A30569E172E07C
:102580008A3010F064E971E08AE996E00E949B0AC3
:102590000E94A305682F8AE996E00E94330A69E148
:1025A00072E08AE996E00E945E0AE0910605F0E09A
:1025B000EE0FFF1FE65DFE4F608171818AE996E0B4
:1025C0000E945E0A62EE71E08AE996E00E945E0A6D
:1025D0000E94D9058A3030F464EE71E08AE996E011
:1025E0000E945E0A0E94D905682F8AE996E00E943F
:1025F000330A69E172E084E996E00E949B0A9091B7
:102600000705809106059817D9F064E976E0CE01B8
:1026100001960E94E90A6AE976E0CE0145960E9499
:10262000E90ABE016F5F7F4FCE0145960E945608B2
:10263000CE0145960E94A709CE0101960E94A709E6
:102640000E94D6038093150566E970E080E090E073
:102650000E94A40380911505833009F08DC08091FC
:1026600006059FEF811190C080911505845082303E
:1026700008F05ECF0E94BB051091060581138EC045
:10268000809114058F5F8093140580911405843028
:1026900009F055C180911505813009F450C184E6D7
:1026A000809307050E94D905837009F08DC0309290
:1026B0000505209204050E94A305782E00910405CB
:1026C000109105050E94BB05800F912F911DFC0103
:1026D0008081871548F40E94BB05800F912F911DC2
:1026E000FC0180810E942A050E94A30580930605B3
:1026F000809115058450823008F010C10E94D603E5
:102700008093150566E970E080E090E00E94A403E4
:10271000EFCF0E9419046419750986099709683773
:1027200071408105910560F00E94190460931005C5
:10273000709311058093120590931305E0921B018D
:102740000E94A30569E172E08A3010F064E971E04B
:102750008AE996E00E949B0A0E94A305682F8AE9F5
:1027600096E00E94330A69E172E08AE996E00E94ED
:102770005E0A62E172E022CF823061F48091060548
:102780008B3008F071CF91E0980F909306058093FD
:1027900007056ACF813009F067CF6CCF88E60E94C9
:1027A000AF0185E090E00E942505812F6F2D0E94EA
:1027B00071218295807F682F690F8AE696E00E94DA
:1027C000F6040E9452015CCF81E091E090930505F0
:1027D0008093040570CF64E971E08AE996E00E9475
:1027E0009B0A409010055090110560901205709062
:1027F000130580911B01882309F4CDC00E941904A0
:102800006419750986099709653F7140810591052D
:1028100060F00E9419046093100570931105809375
:1028200012059093130510921B01109106051A30A2
:1028300030F469E172E08AE996E00E949B0A612F18
:102840008AE996E00E94330A69E172E08AE996E03B
:102850000E945E0A0E94BB05E82FF0E0EE0FFF1F0A
:10286000E65DFE4F608171818AE996E00E945E0A12
:1028700062EE71E08AE996E00E945E0A0E94D90544
:102880008A3030F464EE71E08AE996E00E945E0AD4
:102890000E94D905682F8AE996E00E94330A69E10F
:1028A00072E084E996E00E949B0A9091070580916E
:1028B00006059817D9F064E976E0CE0101960E94EA
:1028C000E90A6AE976E0CE0145960E94E90ABE016E
:1028D0006F5F7F4FCE0145960E945608CE01459608
:1028E0000E94A709CE0101960E94A7090E94D60363
:1028F000182F8093150566E970E080E090E00E9453
:10290000A403133009F065C080910605823030F0D1
:102910009FEF980F9093060580930705809115050A
:102920008450823008F057CF0E94A305909106058D
:1029300089136BC0809114058F5F8093140580917B
:102940001405853009F024C180911505813009F402
:102950001FC1CE014B960E948E0A84E68093070524
:1029600064E971E084E996E00E949B0A0E94F10507
:1029700080930605809115058450823008F0F3C0DD
:102980000E94D6038093150566E970E080E090E030
:102990000E94A403EFCF0E941904641975098609E7
:1029A0009709683771408105910560F00E9419040C
:1029B0006093100570931105809312059093130591
:1029C000E0921B0168E172E08AE996E00E949B0AAE
:1029D0003BCF1230B1F400910405109105050E941F
:1029E000BB0590910605F801E80FF11D808198174D
:1029F00008F094CF81E0890F809306059093070536
:102A00008DCF113009F08ACF8FCF80911505853099
:102A100009F090CF892F0E942A058CCF4090100595
:102A200050901105609012057090130580911B0164
:102A3000882309F4D9C00E9419046419750986090C
:102A40009709653F71408105910560F00E94190466
:102A500060931005709311058093120590931305F0
:102A600010921B011091060564EE71E01A3010F00F
:102A700064E971E0CE014B960E949B0A612FCE0162
:102A80004B960E94330A64E971E086E796E00E9463
:102A90009B0A0E9421068A3030F464EE71E086E7DA
:102AA00096E00E945E0A0E942106682F86E796E063
:102AB0000E94330A6AE873E086E796E00E945E0AA5
:102AC0004F8D58A16B8D7C8D86E796E00E94D709CB
:102AD0006AE873E086E796E00E945E0A0E940906B3
:102AE0008A3030F464EE71E086E796E00E945E0A78
:102AF0000E940906682F86E796E00E94330A9091AB
:102B00000705809106059817D9F064E976E0CE01B3
:102B100001960E94E90A66E776E0CE0145960E949A
:102B2000E90ABE016F5F7F4FCE0145960E945608AD
:102B3000CE0145960E94A709CE0101960E94A709E1
:102B40000E94D603182F8093150566E970E080E097
:102B500090E00E94A403133009F065C0809106053F
:102B60009FEF811168C0809115058450823008F074
:102B700055CF0E94F10510910605811366C0809122
:102B800014058F5F80931405CE014B960E94A70910
:102B900080911405863009F02DC180911505813092
:102BA00009F428C1CE014B960E948E0A84E68093D8
:102BB000070564E971E084E996E00E949B0A0E949F
:102BC000210680930605809115058450823008F017
:102BD000FCC00E94D6038093150566E970E080E092
:102BE00090E00E94A403EFCF0E94190464197509B4
:102BF00086099709683771408105910568F00E9440
:102C00001904609310057093110580931205909339
:102C10001305E0921B0137CF68E172E0CE014B96BD
:102C20000E949B0A30CF123061F4809106058B33ED
:102C300008F099CF91E0980F9093060580930705CF
:102C400092CF113009F08FCF94CF80911505853048
:102C500009F095CF88E60E94AF0181E090E00E94E4
:102C60002505812F6F2D0E9471218295807F682F0D
:102C7000690F8AE696E00E94F6040E9452017FCF17
:102C8000409010055090110560901205709013054A
:102C900080911B01882309F4D9C00E94190464198A
:102CA000750986099709653F71408105910560F0B6
:102CB0000E9419046093100570931105809312050A
:102CC0009093130510921B011091060564EE71E0BC
:102CD0001A3010F064E971E0CE014B960E949B0A15
:102CE000612FCE014B960E94330A64E971E086E7BA
:102CF00096E00E949B0A4F8D58A16B8D7C8D86E7D4
:102D000096E00E94D7096AE873E086E796E00E94A1
:102D10005E0A0E94F1058A3030F464EE71E086E7C5
:102D200096E00E945E0A0E94F105682F86E796E011
:102D30000E94330A6AE873E086E796E00E945E0A22
:102D40000E9409068A3030F464EE71E086E796E06E
:102D50000E945E0A0E940906682F86E796E00E949C
:102D6000330A90910705809106059817D9F064E918
:102D700076E0CE0101960E94E90A66E776E0CE0190
:102D800045960E94E90ABE016F5F7F4FCE014596CE
:102D90000E945608CE0145960E94A709CE010196D1
:102DA0000E94A7090E94D603182F8093150566E993
:102DB00070E080E090E00E94A403133009F065C049
:102DC000809106059FEF811168C0809115058450A0
:102DD000823008F055CF0E9421061091060581131C
:102DE00066C0809114058F5F80931405CE014B96C9
:102DF0000E94A70980911405873009F057C180917E
:102E00001505813009F452C1CE014B960E948E0AFD
:102E100084E68093070564E971E084E996E00E9406
:102E20009B0A0E940906809306058091150584502F
:102E3000823008F026C10E94D6038093150566E90A
:102E400070E080E090E00E94A403EFCF0E9419049C
:102E500064197509860997096837714081059105DC
:102E600068F00E9419046093100570931105809317
:102E7000120590931305E0921B0137CF68E172E0D1
:102E8000CE014B960E949B0A30CF123061F48091A4
:102E90000605873108F099CF91E0980F90930605C9
:102EA0008093070592CF113009F08FCF94CF809196
:102EB0001505853009F095CF88E60E94AF0182E0C4
:102EC00090E00E9425050E94520181E090E00E945E
:102ED00045050E94CC0186FF24C01D30C8F084EF58
:102EE000810F6F2D0E947121182F1295107F190FDD
:102EF000106688E60E94AF0182E090E00E942505FE
:102F0000612F8AE696E00E94F6040E94520169CF82
:102F1000812F6F2D0E9471218295807F182F190FAC
:102F2000E8CF812F6F2D0E947121182F1295107FED
:102F3000190F1F7BDECF4090100550901105609057
:102F400012057090130580911B01882309F4D7C0E6
:102F50000E9419046419750986099709653F714033
:102F60008105910560F00E9419046093100570932B
:102F70001105809312059093130510921B01109177
:102F8000060564EE71E01A3010F064E971E0CE01DC
:102F90004B960E949B0A612FCE014B960E94330AEA
:102FA00064E971E086E796E00E949B0A0E94210690
:102FB0008A3030F464EE71E086E796E00E945E0AA3
:102FC0000E942106682F86E796E00E94330A6AE88D
:102FD00073E086E796E00E945E0A0E94F1058A305F
:102FE00030F464EE71E086E796E00E945E0A0E948B
:102FF000F105682F86E796E00E94330A6AE873E0DD
:1030000086E796E00E945E0A4F8D58A16B8D7C8DFD
:1030100086E796E00E94D709909107058091060502
:103020009817D9F064E976E0CE0101960E94E90A8A
:1030300066E776E0CE0145960E94E90ABE016F5F21
:103040007F4FCE0145960E945608CE0145960E94BC
:10305000A709CE0101960E94A7090E94D603182F46
:103060008093150566E970E080E090E00E94A4037B
:10307000133009F063C08091060580930705109214
:103080000605809115058450823008F054CF0E94C7
:1030900009061091060581135FC0809114058F5FAA
:1030A00080931405CE014B960E94A70980911405C8
:1030B000883010F01092140580911505813009F0C8
:1030C000A0C40E94F20A0E9419042B013C01409204
:1030D00010055092110560921205709213058091AF
:1030E0001505813009F065C00E94D603809315054F
:1030F00066E970E080E090E00E94A403F0CF0E94B7
:1031000019046419750986099709683771408105A2
:10311000910568F00E9419046093100570931105E1
:103120008093120590931305E0921B0139CF68E15B
:1031300072E0CE014B960E949B0A32CF123041F4CE
:103140008091060580930705FBE3F093060599CF70
:10315000113009F096CF9BCF80911505853009F08D
:103160009CCF88E60E94AF0190E080E00E94250598
:10317000812F6F2D0E9471218295807F682F690FAA
:103180008AE696E00E94F6040E9452010E944D06D3
:10319000182F88E60E94AF018FE090E00E9425057D
:1031A000612F6F778AE696E00E94F6040E94520132
:1031B00074CF0E94190464197509860997096D3D39
:1031C00075408105910508F41CC40E9419046093A0
:1031D0001005709311058093120590931305E092EA
:1031E0001B01E0921A0188E60E94AF0187E090E09F
:1031F0000E9425050E94520184E090E00E9445054E
:103200000E94CC01282F22952770982F9F702F9D08
:10321000900D112490930C05881F8827881F90918A
:103220000B05892B80930B050E94CC01382F32951A
:103230003770282F2F703F9D200D112420930D05EE
:10324000E6E095958795EA95E1F7827090910B05F8
:10325000892B80930B050E94CC019C01F5E03595EC
:103260002795FA95E1F7322F347020910B05232B27
:1032700020930B0521E0AC014074552786FF20E028
:1032800020930905382F32953F70282F2F70452B3A
:1032900009F449C185FB882780F9809308053170BE
:1032A0003F9D200D112420930E050E94CC019C010E
:1032B00074E0359527957A95E1F7322F3870209193
:1032C0000B05232B20930B0521E0AC0140745527FF
:1032D00086FF20E020930A05282F2F70452B09F444
:1032E00024C120930F05809115058B7F813009F44F
:1032F0003BC10E94F20A8092320690923306A0925D
:103300003406B092350610923606109237061092A7
:1033100038061092390680912A0690912B06A091CA
:103320002C06B0912D0680932E0690932F06A09325
:103330003006B09331060E94190460932A067093F8
:103340002B0680932C0690932D0680E00E944C045F
:103350008823A1F082E00E9407098BE192E00E949D
:103360000509809115050E94FE088BE192E00E94FC
:10337000050985E00E94FE080E94500962E070E0A5
:1033800080E090E00E9425040E94190460932A06C0
:1033900070932B0680932C0690932D064090100579
:1033A00050901105609012057090130580911B01DB
:1033B000882309F4C0C010911A010E9419046419ED
:1033C000750986099709653F714081059105F0F0FF
:1033D0000E941904609310057093110580931205E3
:1033E0009093130510921B01112309F47BC3809164
:1033F0001505823009F06EC364E971E08AE996E050
:103400000E949B0AE092190110921A0190911901F1
:1034100080911A019817F9F064E976E0CE010196DF
:103420000E94E90A6AE976E0CE0145960E94E90A1F
:10343000BE016F5F7F4FCE0145960E945608CE01B8
:1034400045960E94A709CE0101960E94A709809186
:103450001A018093190181E292E00E9405096091AE
:103460001A0170E090E080E042E00E94BA088DE12D
:1034700092E00E9405096091190170E090E080E0FF
:1034800042E00E94BA088AE292E00E940509609137
:103490001B0170E090E080E042E00E94BA0886E301
:1034A00092E00E940509809115050E94FE0882E4C1
:1034B00092E00E94050960911005709111058091BC
:1034C0001205909113054AE00E94BA0882E991E042
:1034D0000E94AD0865E971E08AE996E00E949B0AC6
:1034E00081E00E945D06682F70E08AE996E00E9404
:1034F000030A6BEB71E084E996E00E949B0A82E08C
:103500000E945D06682F70E084E996E00E94030A3D
:103510000E94D6038093150566E970E080E090E094
:103520000E94A403E0CE3370BBCE829583708F9D42
:10353000200D1124D6CE0E9419046419750986093C
:103540009709683771408105910508F45FCF0E94A3
:1035500019046093100570931105809312059093E0
:103560001305E0921B0152CF60ED77E080E090E020
:103570000E94A40360910F05CE0101960E94A50A46
:10358000CE0101960E945809CE0101960E94A7091A
:1035900069E172E084E996E00E945E0A60910E059E
:1035A00084E996E00E94330A69E172E084E996E0DA
:1035B0000E945E0A60910D0584E996E00E94330A3C
:1035C00069E172E084E996E00E945E0A60910C0570
:1035D00084E996E00E94330A69E172E084E996E0AA
:1035E0000E945E0A60910B0584E996E00E94330A0E
:1035F00069E172E084E996E00E945E0A60910A0542
:1036000070E084E996E00E94030A69E172E084E9CF
:1036100096E00E945E0A6091090570E084E996E0F8
:103620000E94030A69E172E084E996E00E945E0A62
:103630006091080570E084E996E00E94030A64E95D
:1036400076E0CE0101960E94E90A6AE976E0CE01B1
:1036500045960E94E90ABE016F5F7F4FCE014596F5
:103660000E945608CE0145960E94A709CE010196F8
:103670000E94A70960ED77E080E090E00E94A4033B
:1036800064E976E08AE996E00E94D20A80910B050F
:103690000E94FE0882E991E00E94AD0880910B052E
:1036A0008F3009F4F0C108F0DAC1883009F4CAC1DA
:1036B00008F0B7C1882309F4CBC140919806509116
:1036C0009906609194067091950687E895E00E94AE
:1036D000E00182E991E00E94AD0864E976E0CE0164
:1036E00001960E94E90A6AE976E0CE0145960E94B9
:1036F000E90ABE016F5F7F4FCE0145960E945608D2
:10370000CE0145960E94A709CE0101960E94A70905
:1037100060ED77E080E090E00E94A40364E976E049
:103720008AE996E00E94D20A66E773E084E996E0AF
:103730000E949B0A82E00E945D06682F70E084E987
:1037400096E00E94030A64E976E0CE0101960E94A9
:10375000E90A6AE976E0CE0145960E94E90ABE01CF
:103760006F5F7F4FCE0145960E945608CE01459669
:103770000E94A709CE0101960E94A70960ED77E09B
:1037800080E090E00E94A40364E976E08AE996E094
:103790000E94D20A88E60E94AF018BE090E00E946E
:1037A00025050E94520183E090E00E9445050E9499
:1037B000CC01382F32953770282F2F703F9D200D68
:1037C000112420930D0553E0959587955A95E1F7BF
:1037D000807190910B05892B80930B050E94CC0181
:1037E0009C013595279535952795322F307220917C
:1037F0000B05232B20930B0521E0AC0140745527CA
:1038000086FF20E020930905382F32953F70282F3E
:103810002F70452B09F456C185FB882780F98093CA
:10382000080531703F9D200D112420930E050E9444
:10383000CC019C0135952795322F307420910B05D2
:10384000232B20930B0521E0AC014074552786FF04
:1038500020E020930A05282F2F70452B09F434C14E
:1038600020930F0560910F05CE0101960E94A50AD5
:10387000CE0101960E945809CE0101960E94A70927
:1038800069E172E084E996E00E945E0A60910E05AB
:1038900084E996E00E94330A69E172E084E996E0E7
:1038A0000E945E0A60910D0584E996E00E94330A49
:1038B00069E172E084E996E00E945E0A60910B057E
:1038C00084E996E00E94330A69E172E084E996E0B7
:1038D0000E945E0A60910A0570E084E996E00E9409
:1038E000030A69E172E084E996E00E945E0A609151
:1038F000090570E084E996E00E94030A69E172E03C
:1039000084E996E00E945E0A6091080570E084E90F
:1039100096E00E94030A64E976E0CE0101960E94D7
:10392000E90A6AE976E0CE0145960E94E90ABE01FD
:103930006F5F7F4FCE0145960E945608CE01459697
:103940000E94A709CE0101960E94A70960ED77E0C9
:1039500080E090E00E94A4038092320690923306A9
:10396000A0923406B09235061092360610923706B1
:10397000109238061092390680912A0690912B06F3
:10398000A0912C06B0912D0680932E0690932F06C1
:10399000A0933006B09331060E94190460932A0662
:1039A00070932B0680932C0690932D0680E00E9446
:1039B0004C048823B1F081E00E9407098BE192E07A
:1039C0000E940509809115050E94FE088BE192E096
:1039D0000E9405090E9419044AE00E94BA080E9448
:1039E000500962E070E080E090E00E9425040E94AF
:1039F000190460932A0670932B0680932C069093EB
:103A00002D0620E030E0232B11F40C94310F0E949E
:103A10005402882311F40C942D0F0E9400000C9482
:103A20002D0F8C3049F08E3009F047CE6AE672E0F7
:103A300084E996E00E949B0A6CE872E084E996E0D3
:103A40000E949B0A6EEB72E084E996E00E949B0A5A
:103A50006DE573E084E996E00E949B0A2ECE8C31DE
:103A600051F1C0F4803149F0883109F026CE6EEB77
:103A700072E084E996E00E949B0A6AEF72E084E9B2
:103A800096E00E949B0A64E473E084E996E00E9459
:103A90009B0ACCCF8E3149F08F3109F00ECE6FE406
:103AA00072E084E996E00E949B0A69E672E084E98C
:103AB00096E00E949B0A6CE872E084E996E00E941E
:103AC0009B0AD5CF3370AECE829583708F9D200D2B
:103AD0001124C6CE833009F095CC64E971E084E905
:103AE00096E08ECC10921901E0921A018FCC86E7F5
:103AF00096E00E94A7098CE796E00E94A70982E859
:103B000096E00E94A70988E896E00E94A7098EE83F
:103B100096E00E94A70984E996E00E94A7098AE935
:103B200096E00C94A709EF920F931F93CF93DF9326
:103B3000E80134E047FD34E1042E000C550B57FF3B
:103B400003C0519541955109E32E022F242FAE0158
:103B50000E94D61DCE01DF91CF911F910F91EF9062
:103B60000895BB274A3031F4992322F4BDE29095A1
:103B700081959F4F0C94BD1DBB27FB015527AA279C
:103B8000880F991FAA1FA41710F0A41B83955051EA
:103B9000B9F7A05DAA3308F0A95DA193009779F762
:103BA000B111B1931192CB010C940D20A9E0B0E0BA
:103BB000ECEDFDE10C9440216A01F22EB02E102FA5
:103BC000FBE3AF2EA01608F41BE31F5F012F27E0D5
:103BD000AE014F5F5F4F0E94351FBC018981982F56
:103BE0009970913009F43FC09BE2E1FC04C09E2D26
:103BF0009170E0FC3AC05E2D5071E82FE87083FFB1
:103C000046C084E0911101C083E0EF2DE81B8F15C1
:103C100008F0E0E0D6018E2F20E2552351F19923E0
:103C200029F0D6019C93C60101966C0196012D5F87
:103C30003F4FE2FE24C08EE4D6018C9391E41196AE
:103C40009C93119712968C93D9018E2F90E281113B
:103C50001BC0E20FF32FF11D10828EEF9FEF29960C
:103C6000ECE00C945C219DE2C6CF90E2C4CF2D9392
:103C700081508111FCCFCE0ED11CE0E0D0CF8EE67A
:103C8000D6018C9391E6DBCF9D938150E0CF482FF6
:103C9000447082FF3DC084E0911101C083E08F1524
:103CA00010F4EF2DE81BD6018E2F20E2552309F1E9
:103CB000992329F0D6019C93C60101966C019601C7
:103CC0002D5F3F4FE2FE1BC089E4D6018C938EE44A
:103CD00011968C93119786E412968C93D9018E2FAE
:103CE00090E2882309F4B5CF9D938150FACF2D93AC
:103CF00081508111FCCFCE0ED11CE0E0D9CF89E6F6
:103D0000D6018C938EE611968C93119786E6E4CFBC
:103D10009B0177FF02C030E020E0A1E0B0E091110C
:103D200002C0B0E0A0E0F9013196AE0FBF1F8B2CAE
:103D3000912CBB2009F461C05401EFEFAE1ABE0A0A
:103D4000AA0DBB1DFA161B0619F014F04F2D4A1BC5
:103D5000511188C0E3FC59C07601A42FB0E2A11133
:103D60004FC0C40ED11C992309F45BC040E0D601BA
:103D70001196F60190836D01552309F448C0012F77
:103D8000060F9A81582F507184FF03C0913309F4B4
:103D9000015010160CF047C0093008F008E0EEE2C0
:103DA000FE2E5B01A01AB1088501919481949108BF
:103DB0002F3F320729F4D601FC92F60131966F01AC
:103DC0006217730794F1021713077CF5DB01A21B3E
:103DD000B30BAA24A394B12CAC0EBD1EAA0DBB1D1F
:103DE00011968C9121503109D6011196281539056B
:103DF000F4F0F60180836D01DBCFB12CA12CA0CFB4
:103E0000F701B1937F01A150AACF9111B0CFD60194
:103E1000942F50E302C05D9391509111FCCFC40EDA
:103E2000D11C40E0ACCF01E0BACF80E3DBCF62171A
:103E3000730731F4963388F4953311F4552369F000
:103E4000F6018083FD01842F90E2811108C0A40F48
:103E5000B11D1C9290E080E002CF81E3F1CF9193FD
:103E60008150F3CF911183CF8ACF283008F027E01B
:103E70003327DA01990F311D87FD916000966105A6
:103E8000710539F432602E5F3D9330E32A95E1F7F6
:103E900008959F3F30F080387105610509F03C5F5F
:103EA0003C5F3D93913008F08068911DDF93CF9384
:103EB0001F930F93FF92EF92192F987F9695E92FFA
:103EC00096959695E90FFF27EE53FF4F99273327D5
:103ED000EE24FF24A701E70105900894079428F435
:103EE000360FE71EF81E491F511D660F771F881FEA
:103EF000991F0694A1F70590079428F4E70EF81E81
:103F0000491F561FC11D770F881F991F661F0694F2
:103F1000A1F70590079428F4F80E491F561FC71FF4
:103F2000D11D880F991F661F771F0694A1F7059072
:103F3000079420F4490F561FC71FD81F990F661FFB
:103F4000771F881F0694A9F784911095177041F088
:103F5000D695C79557954795F794E7941A95C1F765
:103F6000E8E6F0E06894159015913591659195918A
:103F700005907FE27395E118F10A430B560BC90BCC
:103F8000D009C0F7E10CF11E431F561FC91FD01DF9
:103F90007EF4703311F48A95E6CFE894015030F046
:103FA000080F0AF40027021708F4202F2395022F88
:103FB0007A3328F079E37D932A95E9F710C07D9351
:103FC0002A9589F6069497956795379517951794CE
:103FD000E118F10A430B560BC90BD00998F0239551
:103FE0007E9173957A3308F070E37C932013B8F7D1
:103FF0007E9170617D9330F0839571E37D9370E3E2
:104000002A95E1F71124EF90FF900F911F91CF9126
:10401000DF91992787FD90950895DC01FC01672FBA
:1040200071917723E1F7329704C07C916D9370838F
:104030006291AE17BF07C8F30895E89409C097FBD3
:104040003EF490958095709561957F4F8F4F9F4F6F
:104050009923A9F0F92F96E9BB279395F6958795B3
:1040600077956795B795F111F8CFFAF4BB0F11F476
:1040700060FF1BC06F5F7F4F8F4F9F4F16C088231D
:1040800011F096E911C0772321F09EE8872F762F53
:1040900005C0662371F096E8862F70E060E02AF094
:1040A0009A95660F771F881FDAF7880F9695879580
:1040B00097F908950E946D200C94DE200E94D02074
:1040C00038F00E94D72020F0952311F00C94C720DF
:1040D0000C94CD2011240C9412210E94EF2070F337
:1040E000959FC1F3950F50E0551F629FF001729F9D
:1040F000BB27F00DB11D639FAA27F00DB11DAA1FAC
:10410000649F6627B00DA11D661F829F2227B00DF8
:10411000A11D621F739FB00DA11D621F839FA00D83
:10412000611D221F749F3327A00D611D231F849FD3
:10413000600D211D822F762F6A2F11249F5750402A
:104140009AF0F1F088234AF0EE0FFF1FBB1F661FA5
:10415000771F881F91505040A9F79E3F510580F06E
:104160000C94C7200C9412215F3FE4F3983ED4F3E3
:10417000869577956795B795F795E7959F5FC1F712
:10418000FE2B880F911D9695879597F9089597F9BD
:104190009F6780E870E060E008959FEF80EC0895ED
:1041A00000240A9416161706180609060895002416
:1041B0000A9412161306140605060895092E039490
:1041C000000C11F4882352F0BB0F40F4BF2B11F404
:1041D00060FF04C06F5F7F4F8F4F9F4F089557FD63
:1041E0009058440F551F59F05F3F71F04795880F65
:1041F00097FB991F61F09F3F79F0879508951216FC
:1042000013061406551FF2CF4695F1DF08C01616A7
:1042100017061806991FF1CF869571056105089458
:104220000895E894BB2766277727CB0197F908956F
:10423000A1E21A2EAA1BBB1BFD010DC0AA1FBB1FAA
:10424000EE1FFF1FA217B307E407F50720F0A21B1C
:10425000B30BE40BF50B661F771F881F991F1A9489
:1042600069F760957095809590959B01AC01BD01B3
:10427000CF0108952F923F924F925F926F927F925B
:104280008F929F92AF92BF92CF92DF92EF92FF9266
:104290000F931F93CF93DF93CDB7DEB7CA1BDB0B12
:1042A0000FB6F894DEBF0FBECDBF09942A883988B7
:1042B00048885F846E847D848C849B84AA84B984BE
:1042C000C884DF80EE80FD800C811B81AA81B981CA
:1042D000CE0FD11D0FB6F894DEBF0FBECDBFED01DE
:1042E0000895991B79E004C0991F961708F0961B52
:1042F000881F7A95C9F780950895EE0FFF1F0590E6
:10430000F491E02D09940F931F93CF93DF938230A4
:10431000910510F482E090E0E091B906F091BA06C0
:1043200030E020E0B0E0A0E0309799F421153105AD
:1043300009F44AC0281B390B24303105D8F58A818D
:104340009B816115710589F1FB0193838283FE01D5
:1043500011C0408151810281138148175907E0F053
:104360004817590799F4109761F012960C93129719
:1043700013961C933296CF01DF91CF911F910F912D
:1043800008950093B9061093BA06F4CF21153105AC
:1043900051F04217530738F0A901DB019A01BD0122
:1043A000DF01F801C1CFEF01F9CF9093BA068093F6
:1043B000B906CDCFFE01E20FF31F819391932250F6
:1043C000310939832883D7CF2091B7063091B806B9
:1043D000232B41F420911E0130911F013093B80628
:1043E0002093B70620911C0130911D012115310544
:1043F00041F42DB73EB74091200150912101241B7B
:10440000350BE091B706F091B806E217F307A0F478
:104410002E1B3F0B2817390778F0AC014E5F5F4F1A
:104420002417350748F04E0F5F1F5093B80640938E
:10443000B706819391939FCFF0E0E0E09CCFCF93BC
:10444000DF930097E9F0FC01329713821282A0916A
:10445000B906B091BA06ED0130E020E01097A1F462
:1044600020813181820F931F2091B7063091B806C9
:104470002817390709F061C0F093B806E093B70632
:10448000DF91CF910895EA01CE17DF07E8F54A8161
:104490005B819E0141155105B1F7E901FB83EA8378
:1044A00049915991C40FD51FEC17FD0761F4808124
:1044B00091810296840F951FE901998388838281F7
:1044C00093819B838A83F0E0E0E012968D919C912A
:1044D00013970097B9F52D913C911197CD01029654
:1044E000820F931F2091B7063091B806281739071D
:1044F00039F6309751F51092BA061092B906B0937A
:10450000B806A093B706BCCFD383C2834081518144
:10451000840F951FC817D90761F44E5F5F4F8881DC
:104520009981480F591F518340838A819B819383CE
:1045300082832115310509F0B0CFF093BA06E093DC
:10454000B9069ECFFD01DC01C0CF13821282D7CF06
:10455000B0E0A0E0EEEAF2E20C943C218C0100977E
:1045600051F4CB010E9483218C01C801CDB7DEB785
:10457000E0E10C945821FC01E60FF71F9C0122504A
:104580003109E217F30708F49DC0D901CD91DC9100
:104590001197C617D70798F0C530D10530F3CE0173
:1045A00004978617970708F3C61BD70B2297C1936A
:1045B000D1936D937C93CF010E941F22D6CF5B01D4
:1045C000AC1ABD0A4C018C0E9D1EA091B906B0918B
:1045D000BA06512C412CF12CE12C109731F5809129
:1045E000B7069091B8068815990509F05CC0461683
:1045F000570608F058C080911C0190911D0100974A
:1046000041F48DB79EB74091200150912101841B48
:10461000950BE817F90708F055C0F093B806E0933A
:10462000B706F90171836083A0CF8D919C9111979A
:1046300012966C90129713967C901397A815B90553
:1046400059F56C0142E0C40ED11CCA14DB0420F100
:10465000AC014A195B09DA011296159780F0628263
:10466000738251834083D9016D937C93E114F104EB
:1046700071F0D7011396FC93EE93129776CF2296A2
:104680008C0F9D1FF90191838083F301EFCFF0938D
:10469000BA06E093B90669CF4816590608F42C010A
:1046A0007D01D3019ACFCB010E9483217C01009729
:1046B00049F0AE01B8010E946523C8010E941F2283
:1046C000870153CF10E000E050CFFB01DC0102C0B6
:1046D00001900D9241505040D8F70895FB01DC0144
:1046E00001900D920020E1F7089511E0CFEFD0E0A6
:1046F00004C0FE010E947D212196C030D107C9F778
:04470000F894FFCF5B
:10470400011F1C1F1E1F1E1F1F1E1F1E1F1F1D1FDC
:104714001E1F1E1F1F1E1F1E1F0101010000BB06BE
:10472400800000004000140054008C039B03AB0382
:10473400B903C803D403E103EE03FE030F041F040B
:104744002E043E0455046C047B0486049504A404DE
:10475400000000008A02E0011702D7024802260284
:104764003A0200000000F604C90442050D020E02DC
:10477400B901BA0400000000E907E0014205DF01C5
:10478400564D4450455F003A323A005F564D44500E
:1047940045000D0A00D091D183D0B4D0B8D0BBD19C
:1047A4008CD0BDD0B8D0BA20312000D0B2D0BAD08D
:1047B400BB00D0B2D18BD0BAD0BB00D091D183D0C2
:1047C400B4D0B8D0BBD18CD0BDD0B8D0BA203220B0
:1047D40000564D4450565F317C315F564D4450561F
:1047E4000A0020323000D187D0B0D1812000D0BC63
:1047F400D0B8D0BD2000D1812E00D0A2D0B5D0BC7D
:10480400D0BFD0B5D180D0B0D182D183D180D0B047
:1048140020002020202020202020007C00206F6CFD
:1048240064616C61726D203D2000206C7377697443
:104834006368203D2000206E756D427574746F6E40
:104844002000206C617374696D6572203D20002026
:10485400D0A0D0B0D0B720D0B220D181D0B5D0BABA
:10486400D183D0BDD0B4D1830020D181D0BED0B209
:10487400D0BFD0B0D0B4D0B5D0BDD0B8D0B520D191
:1048840081D0B5D0BAD183D0BDD0B400D181D0BE4F
:10489400D0B2D0BFD0B0D0B4D0B5D0BDD0B8D0B5E0
:1048A40020D0BCD0B8D0BDD183D182D18B2C20D123
:1048B40081D0B5D0BAD183D0BDD0B4D18B00D18151
:1048C400D0BED0B2D0BFD0B0D0B4D0B5D0BDD0B8A7
:1048D400D0B520D187D0B0D181D18B2C20D0BCD001
:1048E400B8D0BDD183D182D18B2C20D181D0B5D089
:1048F400BAD183D0BDD0B4D18B00D181D0BED0B2D7
:10490400D0BFD0B0D0B4D0B5D0BDD0B8D0B520D001
:10491400BDD0B5D0B4D0B5D0BBD18F2C20D187D0E9
:10492400B0D181D18B2C20D0BCD0B8D0BDD183D113
:1049340082D18B2C20D181D0B5D0BAD183D0BDD037
:10494400B4D18B00D180D0B0D0B720D0B220D181E7
:10495400D0B5D0BAD183D0BDD0B4D18300D0BCD02F
:10496400B52CD0B4D0B52CD187D0B02CD0BCD0B815
:104974002CD181D0B500D091D183D0B4D0B8D0BBE4
:10498400D18CD0BDD0B8D0BA20323A00D0AFD0BD8F
:10499400D0B2D0B0D180D18F202000D0A4D0B5D057
:1049A400B2D180D0B0D0BBD18F2000D09CD0B0D1B8
:1049B40080D182D0B020202000D090D0BFD180D030
:1049C400B5D0BBD18F202000D09CD0B0D18F202077
:1049D40020202000D098D18ED0BDD18F202020203F
:1049E40000D098D18ED0BBD18F2020202000D09031
:1049F400D0B2D0B3D183D181D182D0B02000D0A1A4
:104A0400D0B5D0BDD182D18FD0B1D180D18F00D0DB
:104A14009ED0BAD182D18FD0B1D180D18F2000D095
:104A24009DD0BED18FD0B1D180D18F202000D09421
:104A3400D0B5D0BAD0B0D0B1D180D18F2000D0922F
:104A4400D0BED181D0BAD180D0B5D181D0B5D0BDBE
:104A5400D18CD0B500D09FD0BED0BDD0B5D0B4D00D
:104A6400B5D0BBD18CD0BDD0B8D0BA00D092D18251
:104A7400D0BED180D0BDD0B8D0BA00D0A1D180D022
:104A8400B5D0B4D0B000D0A7D0B5D182D0B2D0B513
:104A9400D180D0B300D09FD18FD182D0BDD0B8D136
:104AA40086D0B000D0A1D183D0B1D0B1D0BED18254
:044AB400D0B000007E
:00000001FF
